:100000000C94BE000C94DB000C94DB000C94DB0021
:100010000C94DB000C94DB000C94DB000C94DB00F4
:100020000C94DB000C9451060C94DB000C94DB0068
:100030000C94DB000C94DB000C94DB000C94DB00D4
:100040000C94DB000C94DB000C94DB000C94DB00C4
:100050000C94DB00084AD73B3BCE016E84BCBFFD4D
:10006000C12F3D6C74319ABD56833DDA3D00C77F88
:1000700011BED9E4BB4C3E916BAAAABE0000008021
:100080003F0000407A10F35A00A0724E1809001089
:10009000A5D4E80000E87648170000E40B540200FD
:1000A00000CA9A3B000000E1F50500008096980028
:1000B000000040420F000000A08601000000102751
:1000C00000000000E80300000000640000000000E1
:1000D0000A00000000000100000000002C76D88813
:1000E000DC674F0823DFC1DFAE59E1B1B796E5E326
:1000F000E453C63AE651997696E8E6C28426EB893F
:100100008C9B62ED407C6FFCEFBC9C9F40F2BAA5DB
:100110006FA5F490055A2AF75C936B6CF9676DC173
:100120001BFCE0E40D47FEF520E6B500D0ED902E77
:100130000300943577050080841E080000204E0AD5
:10014000000000C80C333333330F986E1283114113
:10015000EF8D2114893BE65516CFFEE6DB18D184DE
:100160004B381BF77C1D901DA4BBE4242032847205
:100170005E228100C9F124ECA1E53D2711241FBEB8
:10018000CFE5D8E0DEBFCDBF10E0A0E6B0E0E6EA04
:10019000F1E202C005900D92A836B107D9F720E030
:1001A000A8E6B0E001C01D92A43CB207E1F70E94AE
:1001B00089060C94D1100C94000011B888E480B921
:1001C000089594EA96BF06B607FEFDCF91B1987FD9
:1001D000903171F483B984E886BF06B607FEFDCF7F
:1001E00081B1887F803431F0803231F083E008952E
:1001F00080E0089581E0089582E0089584E986BF53
:1002000006B604FCFDCF08951F93CF93DF93C82F4C
:10021000D4EA14E8D6BF06B607FEFDCF81B1887FC9
:100220008830C1F7C3B916BF06B607FEFDCF81B14E
:10023000887F883119F00E94FE00ECCFDF91CF91CA
:100240001F91089583B984E886BF06B607FEFDCFE7
:1002500081B1887F883221F0803321F082E00895D7
:1002600080E0089581E0089584EC86BF06B607FE1D
:10027000FDCF83B1089584E886BF06B607FEFDCFA3
:1002800083B108952FEF82E597E0215080409040A0
:10029000E1F700C0000080ED0E94040189E10E94A6
:1002A000220187E00E9422010E94FE0080ED0E9450
:1002B00004018BE60E94220181E00E9422010E943B
:1002C000FE0080ED0E9404018AE10E94220180E08C
:1002D0000E9422010E94FE0080ED0E9404018BE139
:1002E0000E94220188E10E9422010E94FE0080ED0E
:1002F0000E9404018CE10E94220180E00E94220100
:100300000E94FE0080ED0E9404018FE10E94220104
:1003100080E00E9422010E94FE0080ED0E94040104
:1003200083E20E94220180E00E9422010E94FE00DE
:1003300080ED0E9404018DE10E94220180E00E9474
:1003400022010E94FE0080ED0E9404018EE10E94C5
:10035000220180E00E9422010E94FE0080ED0E94A6
:10036000040180E20E94220180E00E9422010E949A
:10037000FE0080ED0E94040182E20E94220180E0E2
:100380000E9422010E94FE0080ED0E94040181E291
:100390000E94220180E00E9422010E94FE0080ED66
:1003A0000E94040184E20E94220180E00E94220156
:1003B0000E94FE0080ED0E94040186E20E9422015C
:1003C00080E00E9422010E94FE0080ED0E94040154
:1003D00085E20E94220180E00E9422010E94FE002C
:1003E00080ED0E94040187E20E94220180E00E94C9
:1003F00022010E94FE0080ED0E94040189E20E9419
:10040000220180E00E9422010E94FE0080ED0E94F5
:10041000040188E20E94220180E00E9422010E94E1
:10042000FE0080ED0E9404018AE20E94220180E029
:100430000E9422010E94FE0080ED0E9404018CE2D5
:100440000E94220180E00E9422010E94FE0080EDB5
:100450000E9404018CE20E94220180E00E9422019D
:100460000E94FE0080ED0E9404018DE20E942201A4
:1004700080E00E9422010E94FE0080ED0E940401A3
:100480008FE20E94220180E00E9422010E94FE0071
:1004900080ED0E9404018EE20E94220180E00E9411
:1004A00022010E94FE0080ED0E94040180E30E9470
:1004B000220180E00E9422010E94FE0080ED0E9445
:1004C000040182E30E94220180E00E9422010E9436
:1004D000FE0080ED0E94040181E30E94220180E081
:1004E0000E9422010E94FE0080ED0E94040184E32C
:1004F0000E94220180E00E9422010E94FE0080ED05
:100500000E94040183E30E94220180E00E942201F4
:100510000E94FE0080ED0E94040185E30E942201FA
:1005200080E00E9422010E94FE0080ED0E940401F2
:1005300087E30E94220180E00E9422010E94FE00C7
:1005400080ED0E94040188E30E94220181E00E9464
:1005500022010E94FE0080ED0E94040183E60E94B9
:10056000220180E00E9422010E94FE0080ED0E9494
:10057000040184E60E94220180E00E9422010E9480
:10058000FE0080ED0E94040185E60E94220180E0C9
:100590000E9422010E94FE0080ED0E94040186E676
:1005A0000E94220180E00E9422010E94FE0080ED54
:1005B0000E94040187E60E94220180E00E9422013D
:1005C0000E94FE0080ED0E94040188E60E94220144
:1005D00080E00E9422010E94FE0080ED0E94040142
:1005E00089E60E94220180E00E9422010E94FE0012
:1005F00080ED0E9404018AE60E94220180E00E94B0
:1006000022010E94FE0080ED0E9404018CE60E94FF
:10061000220180E00E9422010E94FE0080ED0E94E3
:10062000040184E70E94220180E00E9422010C94D0
:10063000FE0080ED0E9404018BE30E94220181ED07
:100640000C94E100CF930E9419030E943401C82F3B
:100650000E9434016C2F70E0762F6627682B072EDE
:10066000000C880B990B0E94EC0960939400709326
:10067000950080939600909397000E943401C82FB4
:100680000E9434016C2F70E0762F6627682B072EAE
:10069000000C880B990B0E94EC0960937400709316
:1006A000750080937600909377000E943401C82FE4
:1006B0000E9434016C2F70E0762F6627682B072E7E
:1006C000000C880B990B0E94EC09609368007093F2
:1006D000690080936A0090936B000E943401C82FD8
:1006E0000E9434016C2F70E0762F6627682B072E4E
:1006F000000C880B990B0E94EC09609370007093BA
:10070000710080937200909373000E943401C82F8F
:100710000E9434016C2F70E0762F6627682B072E1D
:10072000000C880B990B0E94EC0960936C0070938D
:100730006D0080936E0090936F000E943401C82F6B
:100740000E9434016C2F70E0762F6627682B072EED
:10075000000C880B990B0E94EC096093AC0070931D
:10076000AD008093AE009093AF000E943401C82F7B
:100770000E943B016C2F70E0762F6627682B072EB6
:10078000000C880B990B0E94EC0960938C0070930D
:100790008D0080938E0090938F000E94FE0020E0D9
:1007A00030E040E858E360919400709195008091AA
:1007B0009600909197000E94A70A6093940070930E
:1007C0009500809396009093970020E030E040E8F9
:1007D00058E360917400709175008091760090915B
:1007E00077000E94A70A609374007093750080934D
:1007F00076009093770020E030E040E858E3609185
:1008000068007091690080916A0090916B000E946D
:10081000A70A609368007093690080936A009093C0
:100820006B0023E333E343E851E460916C00709183
:100830006D0080916E0090916F000E947809609326
:100840006C0070936D0080936E0090936F0023E3B3
:1008500033E343E851E46091AC007091AD008091C6
:10086000AE009091AF000E9478096093AC00709345
:10087000AD008093AE009093AF0023E333E343E8F1
:1008800051E460918C0070918D0080918E00909168
:100890008F000E94780960938C0070938D00809384
:1008A0008E0090938F00CF9108954F925F926F9238
:1008B0007F928F929F92AF92BF92CF92DF92EF92F0
:1008C000FF92CF93DF93CDB7DEB762970FB6F89460
:1008D000DEBF0FBECDBF88EC90E09A8B898B0E9463
:1008E00022038090740090907500A0907600B090E4
:1008F0007700409094005090950060909600709022
:100900009700C0906800D0906900E0906A00F09075
:100910006B00A7019601C701B6010E94A70A6D836B
:100920007E838F839887A3019201C301B2010E9445
:10093000A70A2D813E814F8158850E94DD080E94C3
:100940001A0B69837A838B839C839B01AC01C5015D
:10095000B4010E9478090E94490921EE3EE245E671
:1009600052E40E94A70A2091A0003091A10040917A
:10097000A2005091A3000E94DD0869877A878B87C7
:100980009C876093A0007093A1008093A200909335
:10099000A300A5019401C501B4010E94A70A2D81FD
:1009A0003E814F8158850E94DD080E941A0B9B01F1
:1009B000AC01C301B20190580E9478090E94490914
:1009C00021EE3EE245E652E40E94A70A20919C00F7
:1009D00030919D0040919E0050919F000E94DD0843
:1009E0004B015C0160939C0070939D0080939E007E
:1009F00090939F0029813A814B815C81C701B601A8
:100A00000E9478090E94490921EE3EE245E652E43F
:100A10000E94A70A209188003091890040918A00A5
:100A200050918B000E94DD086B017C01609388006F
:100A30007093890080938A0090938B0020916C00C2
:100A400030916D0040916E0050916F006091BC003C
:100A50007091BD008091BE009091BF000E94DD08A2
:100A600069837A838B839C836093BC007093BD0001
:100A70008093BE009093BF002091AC003091AD00F8
:100A80004091AE005091AF006091A8007091A90014
:100A90008091AA009091AB000E94DD086D837E8357
:100AA0008F8398876093A8007093A9008093AA0011
:100AB0009093AB0020918C0030918D0040918E007E
:100AC00050918F0060918400709185008091860024
:100AD000909187000E94DD086D877E878F87988BB5
:100AE00060938400709385008093860090938700C4
:100AF000A989BA891197BA8BA98BAB2B09F0EFCED4
:100B000020E030E048E453E469857A858B859C8554
:100B10000E9478096093A0007093A1008093A200C6
:100B20009093A30020E030E048E453E4C501B40111
:100B30000E94780960939C0070939D0080939E00B2
:100B400090939F0020E030E048E453E4C701B601F1
:100B50000E947809609388007093890080938A00CE
:100B600090938B0020E030E048E453E469817A817F
:100B70008B819C810E9478096093BC007093BD00BA
:100B80008093BE009093BF0020E030E048E453E43F
:100B90006D817E818F8198850E9478096093A8007D
:100BA0007093A9008093AA009093AB0020E030E0FE
:100BB00048E453E46D857E858F8598890E94780985
:100BC00060938400709385008093860090938700E3
:100BD00062960FB6F894DEBF0FBECDBFDF91CF9106
:100BE000FF90EF90DF90CF90BF90AF909F908F904D
:100BF0007F906F905F904F9008951FBC89B784607D
:100C000089BF8EB582608EBD8EB58A7F8EBD0895F8
:100C10008F929F92AF92BF92EF92FF921F93CF93CA
:100C2000DF937C011FB7F894CCB5DDB52DEB37E32E
:100C300046E05DE36091A4007091A5008091A6005C
:100C40009091A7000E94A70A4B015C01BE0180E0C1
:100C500090E00E94EA092DEB37E346E055E30E945D
:100C6000A70A9B01AC01C501B4010E94DD08F70190
:100C700060837183828393831DBC1CBC1092A4008B
:100C80001092A5001092A6001092A7001FBFDF913E
:100C9000CF911F91FF90EF90BF90AF909F908F905A
:100CA00008951F920F920FB60F9211242F933F9326
:100CB0004F935F936F937F938F939F93AF93BF9364
:100CC000EF93FF9320E030E040E85FE36091A40001
:100CD0007091A5008091A6009091A7000E94DD0868
:100CE0006093A4007093A5008093A6009093A70042
:100CF000FF91EF91BF91AF919F918F917F916F91F4
:100D00005F914F913F912F910F900FBE0F901F90C9
:100D10001895CF93DF93CDB7DEB7AA970FB6F894A7
:100D2000DEBF0FBECDBF0E94DD000E9442010E94C7
:100D3000DD0060E07BE480E090E00E94A9080E9472
:100D4000FD050E9455041E0125E1220E311C0E9462
:100D5000220388EB90E00E94080680907400909037
:100D60007500A0907600B09077004090940050906D
:100D700095006090960070909700C0906800D090A9
:100D80006900E0906A00F0906B00A7019601C7012E
:100D9000B6010E94A70A6BA37CA38DA39EA3A30107
:100DA0009201C301B2010E94A70A2BA13CA14DA14F
:100DB0005EA10E94DD080E941A0B6F8F78A389A3A1
:100DC0009AA39B01AC01C501B4010E9478090E945D
:100DD000490921EE3EE245E652E40E94A70A20912D
:100DE000A0003091A1004091A2005091A3000E9468
:100DF000DC086FA378A789A79AA7609378007093FF
:100E0000790080937A0090937B00A5019401C5013D
:100E1000B4010E94A70A2BA13CA14DA15EA10E9492
:100E2000DD080E941A0B9B01AC01C301B20190586E
:100E30000E9478090E94490921EE3EE245E652E40B
:100E40000E94A70A20919C0030919D0040919E0035
:100E500050919F000E94DC086BA37CA38DA39EA3EE
:100E60006093900070939100809392009093930010
:100E70002F8D38A149A15AA1C701B6010E94780956
:100E80000E94490921EE3EE245E652E40E94A70A8B
:100E9000209188003091890040918A0050918B0008
:100EA0000E94DC0860938000709381008093820030
:100EB000909383002091BC003091BD004091BE0012
:100EC0005091BF0060916C0070916D0080916E0038
:100ED00090916F000E94DC082B013C0160936C0034
:100EE00070936D0080936E0090936F002091A80026
:100EF0003091A9004091AA005091AB006091AC00E4
:100F00007091AD008091AE009091AF000E94DC081E
:100F10004B015C016093AC007093AD008093AE0018
:100F20009093AF002091840030918500409186001D
:100F30005091870060918C0070918D0080918E009F
:100F400090918F000E94DC086F8F78A389A39AA3E9
:100F500060938C0070938D0080938E0090938F002F
:100F6000C090B800D090B900E090BA00F090BB00FB
:100F7000A7019601C301B2010E94A70A20917C003B
:100F800030917D0040917E0050917F000E94DD08ED
:100F90002B013C01A7019601C501B4010E94A70ADB
:100FA0002091C0003091C1004091C2005091C30017
:100FB0000E94DD084B015C01A70196016F8D78A1AD
:100FC00089A19AA10E94A70A9B01AC016091980097
:100FD0007091990080919A0090919B000E94DD0889
:100FE000609398007093990080939A0090939B006F
:100FF0002FE832EC45E75FE3C301B2010E94A70A84
:101000006B017C012AE037ED43E25DE36FA178A537
:1010100089A59AA50E94A70A9B01AC01C701B60148
:101020000E94DD086B017C0160937C0070937D0061
:1010300080937E0090937F002FE832EC45E75FE3DA
:10104000C501B4010E94A70A4B015C012AE037EDFB
:1010500043E25DE36BA17CA18DA19EA10E94A70A42
:101060009B01AC01C501B4010E94DD086093C00082
:101070007093C1008093C2009093C300C092B400EB
:10108000D092B500E092B600F092B7006093B00045
:101090007093B1008093B2009093B300810122E07D
:1010A00043E0C701B6010E94950B3F922F9280E664
:1010B00090E09F938F9381E090E08C0F9D1F9F9312
:1010C0008F930E94B50BCE0101960E94D0086091CB
:1010D000B0007091B1008091B2009091B30022E015
:1010E00043E00E94950B3F922F92A0E6B0E0BF93A1
:1010F000AF9381E090E08C0F9D1F9F938F930E9490
:10110000B50BCE0101960E94D0086091B800709195
:10111000B9008091BA009091BB0022E043E00E94A8
:10112000950B3F922F92A4E6B0E0BF93AF9381E07E
:1011300090E08C0F9D1F9F938F930E94B50BCE0163
:1011400001960E94D0080FB6F894DEBF0FBECDBF47
:10115000FECD2AB128612AB920B5266820BD9B01A1
:10116000AC0184E0220F331F441F551F8A95D1F72D
:1011700060E074E284EF90E00E94730B8FEF820FC7
:1011800089B9DA01C9010197A109B109892F9A2FFB
:10119000AB2FBB2780BD08958CB95D9BFECF089512
:1011A000CF93DF93EC018991882319F00E94CC083A
:1011B000FACFDF91CF9108955058BB27AA270E94FC
:1011C000F4080C94650A0E94570A38F00E945E0ADF
:1011D00020F039F49F3F19F426F40C942D0A0EF4F4
:1011E000E095E7FB0C94270AE92F0E94760A58F352
:1011F000BA17620773078407950720F079F4A6F5FC
:101200000C94980A0EF4E0950B2EBA2FA02D0B012A
:10121000B90190010C01CA01A0011124FF27591B3B
:1012200099F0593F50F4503E68F11A16F040A22F41
:10123000232F342F4427585FF3CF469537952795B2
:10124000A795F0405395C9F77EF41F16BA0B620BB1
:10125000730B840BBAF09150A1F0FF0FBB1F661FF8
:10126000771F881FC2F70EC0BA0F621F731F841F3B
:1012700048F4879577956795B795F7959E3F08F061
:10128000B0CF9395880F08F09927EE0F9795879523
:101290000895DF93DD27B92FBF7740E85FE3161687
:1012A000170648075B0718F4D92F0E949F0A9F93DF
:1012B0008F937F936F930E945A0BE4E5F0E00E94B6
:1012C000300A0E94650A2F913F914F915F910E94D1
:1012D000BA0ADD2351F09058A2EA2AED3FE049EC2A
:1012E0005FE3D0785D270E94F408DF910C94650AD3
:1012F0000E948C090C94650A0E945E0A58F00E94B4
:10130000570A40F029F45F3F29F00C94270A511145
:101310000C94990A0C942D0A0E94760A68F399237A
:10132000B1F3552391F3951B550BBB27AA276217E1
:101330007307840738F09F5F5F4F220F331F441FEE
:10134000AA1FA9F335D00E2E3AF0E0E832D0915022
:101350005040E695001CCAF72BD0FE2F29D0660F0F
:10136000771F881FBB1F261737074807AB07B0E852
:1013700009F0BB0B802DBF01FF2793585F4F3AF058
:101380009E3F510578F00C94270A0C94990A5F3F10
:10139000E4F3983ED4F3869577956795B795F795DE
:1013A0009F5FC9F7880F911D9695879597F90895C6
:1013B000E1E0660F771F881FBB1F62177307840762
:1013C000BA0720F0621B730B840BBA0BEE1F88F771
:1013D000E0950895E89409C097FB3EF490958095B8
:1013E000709561957F4F8F4F9F4F9923A9F0F92FEB
:1013F00096E9BB279395F695879577956795B79569
:10140000F111F8CFFAF4BB0F11F460FF1BC06F5F4E
:101410007F4F8F4F9F4F16C0882311F096E911C060
:10142000772321F09EE8872F762F05C0662371F081
:1014300096E8862F70E060E02AF09A95660F771F95
:10144000881FDAF7880F9695879597F9089597F989
:101450009F6780E870E060E008959FEF80EC08955A
:10146000DF93CF931F930F93FF92EF92DF927B0155
:101470008C01689406C0DA2EEF010E94BA0AFE01C0
:10148000E894A5912591359145915591A6F3EF01E9
:101490000E94F408FE019701A801DA9469F7DF9031
:1014A000EF90FF900F911F91CF91DF91089500244D
:1014B0000A941616170618060906089500240A94B9
:1014C00012161306140605060895092E0394000C3F
:1014D00011F4882352F0BB0F40F4BF2B11F460FFCE
:1014E00004C06F5F7F4F8F4F9F4F089557FD9058F7
:1014F000440F551F59F05F3F71F04795880F97FBD8
:10150000991F61F09F3F79F0879508951216130691
:101510001406551FF2CF4695F1DF08C016161706C0
:101520001806991FF1CF86957105610508940895F5
:10153000E894BB2766277727CB0197F908959B018D
:10154000AC0160E070E080E89FE30C9478090E94B1
:10155000BA0A0C94650A0E94570A38F00E945E0A83
:1015600020F0952311F00C94270A0C942D0A1124D5
:101570000C94990A0E94760A70F3959FC1F3950F17
:1015800050E0551F629FF001729FBB27F00DB11D07
:10159000639FAA27F00DB11DAA1F649F6627B00D97
:1015A000A11D661F829F2227B00DA11D621F739F80
:1015B000B00DA11D621F839FA00D611D221F749F8E
:1015C0003327A00D611D231F849F600D211D822FD5
:1015D000762F6A2F11249F5750409AF0F1F08823FC
:1015E0004AF0EE0FFF1FBB1F661F771F881F915029
:1015F0005040A9F79E3F510580F00C94270A0C94A7
:10160000990A5F3FE4F3983ED4F386957795679502
:10161000B795F795E7959F5FC1F7FE2B880F911D52
:101620009695879597F9089519F416F40C942D0A58
:101630000C945E0B0E947E0AB8F39923C9F3B6F3AB
:101640009F57550B87FF0E946C0B0024A0E640EAD1
:10165000900180585695979528F4805C660F771F07
:10166000881F20F026173707480730F4621B730BDA
:10167000840B202931294A2BA695179407942025FD
:1016800031254A2758F7660F771F881F20F0261745
:101690003707480730F4620B730B840B200D311DA4
:1016A000411DA09581F7B901842F9158880F969517
:1016B000879508959B01AC010C94A70A9F3F31F0D8
:1016C000915020F4879577956795B795880F911D70
:1016D0009695879597F9089591505040660F771F1A
:1016E000881FD2F70895A1E21A2EAA1BBB1BFD0189
:1016F0000DC0AA1FBB1FEE1FFF1FA217B307E407F1
:10170000F50720F0A21BB30BE40BF50B661F771F48
:10171000881F991F1A9469F7609570958095909528
:101720009B01AC01BD01CF010895EF920F931F9370
:10173000CF93DF93E80147FD02C034E001C034E1FC
:10174000042E000C550B57FF03C0519541955109CC
:10175000E32E022F242FAE010E94B80DCE01DF919F
:10176000CF911F910F91EF900895AEE0B0E0EBEBB9
:10177000FBE00C94A8100D891E8986E08C831A83E7
:1017800009838FEF9FE79E838D83AE01475E5F4F96
:101790006F89788DCE0101960E94D70BEF81F88575
:1017A000E00FF11F10822E96E4E00C94C410ABE021
:1017B000B0E0EDEDFBE00C949A106C017B018A0126
:1017C000FC0117821682838181FFCCC1CE01019674
:1017D0003C01F6019381F70193FD859193FF81917F
:1017E0007F01882309F4BAC1853239F493FD8591CC
:1017F00093FF81917F01853229F4B60190E00E9428
:101800000010E7CF912C212C312CFFE1F315D8F0FB
:101810008B3279F038F4803279F08332A1F4232DC1
:1018200020611DC08D3261F0803369F4232D216069
:1018300016C0832D8260382EE32DE4603E2E2AC030
:10184000F32DF8601DC037FC2DC020ED280F2A3085
:1018500040F08E32B9F436FC81C1232D2064322E43
:1018600019C036FE06C08AE0989E200D1124922EE3
:1018700011C0EAE02E9E200D1124222EF32DF062DD
:101880003F2E08C08C3621F4832D8068382E02C08C
:10189000883641F4F70193FD859193FF81917F0193
:1018A0008111B3CF982F9F7D9554933028F40C5F0E
:1018B0001F4F9FE399830DC0833631F0833771F05A
:1018C000833509F059C021C0F801808189830E5FFA
:1018D0001F4F88248394912C530113C02801F2E0F8
:1018E0004F0E511CF801A080B18036FE03C0692D57
:1018F00070E002C06FEF7FEFC5010E94F50F4C0151
:101900008201F32DFF773F2E16C0280122E0420E00
:10191000511CF801A080B18036FE03C0692D70E033
:1019200002C06FEF7FEFC5010E94EA0F4C01F32D5B
:10193000F0683F2E820133FC1BC0822D90E0881698
:101940009906B0F4B60180E290E00E9400102A945B
:10195000F4CFF50137FC859137FE81915F01B60127
:1019600090E00E94001021102A9421E0821A910830
:101970008114910471F7E8C0843611F0893641F57D
:10198000F80137FE07C060817181828193810C5F0D
:101990001F4F08C060817181072E000C880B990BC6
:1019A0000E5F1F4FF32DFF763F2E97FF09C09095D6
:1019B0008095709561957F4F8F4F9F4FF0683F2EB8
:1019C0002AE030E0A3010E943C10882E861845C012
:1019D000853731F4232D2F7EB22E2AE030E025C04A
:1019E000932D997FB92E8F36C1F018F4883579F090
:1019F000B5C0803719F0883721F0B0C0E92FE06119
:101A0000BE2EB4FE0DC0FB2DF460BF2E09C034FE07
:101A10000AC0292F2660B22E06C028E030E005C09B
:101A200020E130E002C020E132E0F801B7FE07C05B
:101A300060817181828193810C5F1F4F06C060813C
:101A4000718180E090E00E5F1F4FA3010E943C1067
:101A5000882E8618FB2DFF773F2E36FE0DC0232DD6
:101A60002E7FA22E891458F434FE0BC032FC09C01C
:101A7000832D8E7EA82E05C0B82CA32C03C0B82CB5
:101A800001C0B92CA4FE0FC0FE01E80DF11D80813C
:101A9000803321F49A2D997EA92E09C0A2FE06C09A
:101AA000B394B39404C08A2D867809F0B394A3FC50
:101AB00011C0A0FE06C0B21488F4280C922C9B180A
:101AC0000EC0B21460F4B60180E290E00E940010F3
:101AD000B394F7CFB21418F42B1802C0982C212C11
:101AE000A4FE10C0B60180E390E00E940010A2FEA8
:101AF00017C0A1FC03C088E790E002C088E590E031
:101B0000B6010CC08A2D867859F0A1FE02C08BE286
:101B100001C080E2A7FC8DE2B60190E00E940010B7
:101B2000891438F4B60180E390E00E9400109A9482
:101B3000F7CF8A94F301E80DF11D8081B60190E0A2
:101B40000E9400108110F5CF222009F442CEB60188
:101B500080E290E00E9400102A94F6CFF601868180
:101B6000978102C08FEF9FEF2B96E2E10C94B610A5
:101B7000A9E0B0E0EEEBFDE00C94A0106A01122F9A
:101B8000B02E2BE3201720F0FF24F394F00E02C0B8
:101B90002CE3F22E0F2D27E0AE014F5F5F4F0E9426
:101BA000120FBC014981842F8970813031F0E1FC32
:101BB00006C0E0FE06C090E205C09DE203C09BE2C5
:101BC00001C090E05E2D507143FF3CC0911102C0F6
:101BD00083E001C084E0811718F4212F281B01C085
:101BE00020E051110BC0F601822F30E2882319F05A
:101BF00031938150FBCFC20ED11C20E0992329F0F4
:101C0000D6019C93F60131966F01C6010396E2FE60
:101C10000AC03EE4D6013C9341E411964C931197DF
:101C200012963C9306C03EE6F601308341E64183BE
:101C30003283FC01322F40E2332309F442C0419346
:101C40003150FACF42FF44C0911102C083E001C07D
:101C500084E0811718F4212F281B01C020E05111C6
:101C60000BC0F601822F30E2882319F031938150A6
:101C7000FBCFC20ED11C20E0992329F0D6019C9302
:101C8000F60131966F01C6010396E2FE0BC039E4FE
:101C9000D6013C933EE411963C93119736E412969C
:101CA0003C9307C039E6F60130833EE6318336E6E1
:101CB0003283FC01322F40E2332319F0419331503B
:101CC000FBCFFC01E20FF11D10828EEF9FEFA6C04B
:101CD00021E030E0911102C020E030E01616170636
:101CE0001CF4FB01319602C0E1E0F0E02E0F3F1F33
:101CF000BB2021F0EB2DF0E0319602C0E0E0F0E0F7
:101D00002E0F3F1FE12FF0E02E173F071CF4121B90
:101D1000212F01C020E08E2D887159F4F601822F09
:101D200030E2882319F031938150FBCFC20ED11CD1
:101D300020E0992329F0D6019C93F60131966F019A
:101D400051110BC0F601822F90E3882319F0919373
:101D50008150FBCFC20ED11C20E00F2D060F9A81BF
:101D6000342F307144FF03C0913309F40150101631
:101D700024F4093018F008E001C001E0AB0177FF5E
:101D800002C040E050E0FB01E41BF50BA1E0B0E035
:101D9000AC0FBD1FEA0FFB1F8EE2A82E4B01801A6D
:101DA00091080B2D10E01195019511094F3FBFEFE0
:101DB0005B0721F4D601AC9211966D01641775078B
:101DC0002CF08416950614F4818101C080E3415003
:101DD00051093196D60111967D014017510724F023
:101DE000D6018C936701E2CF6417750739F49633F7
:101DF00020F4953319F4311101C081E3F601808399
:101E0000F701822F90E2882319F091938150FBCF44
:101E1000F701E20FF11D108280E090E02996ECE0DE
:101E20000C94BC10283008F027E03327DA01990F12
:101E3000311D87FD916000966105710539F43260AE
:101E40002E5F3D9330E32A95E1F708959F3F30F0F0
:101E500080387105610509F03C5F3C5F3D9391302E
:101E600008F08068911DDF93CF931F930F93FF922B
:101E7000EF92192F987F9695E92F96959695E90FF1
:101E8000FF27E452FF4F99273327EE24FF24A701B1
:101E9000E70105900894079428F4360FE71EF81E12
:101EA000491F511D660F771F881F991F0694A1F7C0
:101EB0000590079428F4E70EF81E491F561FC11D10
:101EC000770F881F991F661F0694A1F70590079446
:101ED00028F4F80E491F561FC71FD11D880F991FE0
:101EE000661F771F0694A1F70590079420F4490F09
:101EF000561FC71FD81F990F661F771F881F06948C
:101F0000A9F784911095177041F0D695C79557950C
:101F10004795F794E7941A95C1F7E2E8F0E06894E2
:101F20001590159135916591959105907FE2739586
:101F3000E118F10A430B560BC90BD009C0F7E10CAD
:101F4000F11E431F561FC91FD01D7EF4703311F4BC
:101F50008A95E6CFE894015030F0080F0AF4002784
:101F6000021708F4202F2395022F7A3328F079E303
:101F70007D932A95E9F710C07D932A9589F60694FA
:101F800097956795379517951794E118F10A430BC4
:101F9000560BC90BD00998F023957E9173957A332F
:101FA00008F070E37C932013B8F77E9170617D9305
:101FB00030F0839571E37D9370E32A95E1F7112466
:101FC000EF90FF900F911F91CF91DF91992787FD9F
:101FD00090950895FC010590615070400110D8F76C
:101FE000809590958E0F9F1F0895FC016150704061
:101FF00001900110D8F7809590958E0F9F1F08953E
:102000000F931F93CF93DF93FB01238121FD03C027
:102010008FEF9FEF2CC022FF16C04681578124818D
:1020200035814217530744F4A081B1819D012F5F90
:102030003F4F318320838C93268137812F5F3F4F21
:102040003783268314C08B01EC01FB010084F185EA
:10205000E02D0995892BE1F6D80116968D919C917A
:102060001797019617969C938E931697CE01DF9142
:10207000CF911F910F910895FA01AA27283051F1AD
:10208000203181F1E8946F936E7F6E5F7F4F8F4FA9
:102090009F4FAF4FB1E03ED0B4E03CD0670F781F08
:1020A000891F9A1FA11D680F791F8A1F911DA11DED
:1020B0006A0F711D811D911DA11D20D009F4689426
:1020C0003F912AE0269F11243019305D3193DEF6CE
:1020D000CF010895462F4770405D4193B3E00FD084
:1020E000C9F7F6CF462F4F70405D4A3318F0495D6F
:1020F00031FD4052419302D0A9F7EACFB4E0A69552
:102100009795879577956795BA95C9F70097610573
:10211000710508959B01AC010A2E069457954795C9
:1021200037952795BA95C9F7620F731F841F951FBE
:10213000A01D08952F923F924F925F926F927F92CF
:102140008F929F92AF92BF92CF92DF92EF92FF92C7
:102150000F931F93CF93DF93CDB7DEB7CA1BDB0B73
:102160000FB6F894DEBF0FBECDBF09942A88398818
:1021700048885F846E847D848C849B84AA84B9841F
:10218000C884DF80EE80FD800C811B81AA81B9812B
:10219000CE0FD11D0FB6F894DEBF0FBECDBFED013F
:0621A0000895F894FFCF42
:0821A60025732F0025730A00C8
:00000001FF
