:100000000C94BE000C94DB000C94DB000C94DB0021
:100010000C94DB000C94DB000C94DB000C94DB00F4
:100020000C94DB000C9450060C94DB000C94DB0069
:100030000C94DB000C94DB000C94DB000C94DB00D4
:100040000C94DB000C94DB000C94DB000C94DB00C4
:100050000C94DB00084AD73B3BCE016E84BCBFFD4D
:10006000C12F3D6C74319ABD56833DDA3D00C77F88
:1000700011BED9E4BB4C3E916BAAAABE0000008021
:100080003F0000407A10F35A00A0724E1809001089
:10009000A5D4E80000E87648170000E40B540200FD
:1000A00000CA9A3B000000E1F50500008096980028
:1000B000000040420F000000A08601000000102751
:1000C00000000000E80300000000640000000000E1
:1000D0000A00000000000100000000002C76D88813
:1000E000DC674F0823DFC1DFAE59E1B1B796E5E326
:1000F000E453C63AE651997696E8E6C28426EB893F
:100100008C9B62ED407C6FFCEFBC9C9F40F2BAA5DB
:100110006FA5F490055A2AF75C936B6CF9676DC173
:100120001BFCE0E40D47FEF520E6B500D0ED902E77
:100130000300943577050080841E080000204E0AD5
:10014000000000C80C333333330F986E1283114113
:10015000EF8D2114893BE65516CFFEE6DB18D184DE
:100160004B381BF77C1D901DA4BBE4242032847205
:100170005E228100C9F124ECA1E53D2711241FBEB8
:10018000CFE5D8E0DEBFCDBF10E0A0E6B0E0E8E606
:10019000F6E202C005900D92A636B107D9F720E02D
:1001A000A6E6B0E001C01D92A73EB207E1F70E94AB
:1001B00097060C9432130C94000011B888E480B9AF
:1001C000089594EA96BF06B607FEFDCF91B1987FD9
:1001D000903171F483B984E886BF06B607FEFDCF7F
:1001E00081B1887F803431F0803231F083E008952E
:1001F00080E0089581E0089582E0089584E986BF53
:1002000006B604FCFDCF08951F93CF93DF93C82F4C
:10021000D4EA14E8D6BF06B607FEFDCF81B1887FC9
:100220008830C1F7C3B916BF06B607FEFDCF81B14E
:10023000887F883119F00E94FE00ECCFDF91CF91CA
:100240001F91089583B984E886BF06B607FEFDCFE7
:1002500081B1887F883221F0803321F082E00895D7
:1002600080E0089581E0089584EC86BF06B607FE1D
:10027000FDCF83B1089584E886BF06B607FEFDCFA3
:1002800083B1089512BE14BCBB9A8F9A08958F92C1
:100290009F92AF92BF92CF92DF92EF92FF9223E3B1
:1002A00033E343E250E40E94080D6B017C0121E737
:1002B0003DE34AE85FE30E94080D4B015C0120E04A
:1002C00030E04FE753E40E94FB0C181634F4812C05
:1002D000912C9FE7A92E93E4B92E20E030E04FE760
:1002E00053E4C701B6010E94FB0C181634F4C12C6C
:1002F000D12C8FE7E82E83E4F82EC501B4010E94CB
:10030000F30B6CBFC701B6010E94F30B63BDFF90F6
:10031000EF90DF90CF90BF90AF909F908F90089517
:1003200083E683BF84E685BD08952FEF82E597E0DD
:10033000215080409040E1F700C0000080ED0E9415
:10034000040189E10E94220187E00E9422010E94AB
:10035000FE0080ED0E9404018BE60E94220181E0F4
:100360000E9422010E94FE0080ED0E9404018AE1A9
:100370000E94220180E00E9422010E94FE0080ED86
:100380000E9404018BE10E94220188E10E94220167
:100390000E94FE0080ED0E9404018CE10E94220177
:1003A00080E00E9422010E94FE0080ED0E94040174
:1003B0008FE10E94220180E00E9422010E94FE0043
:1003C00080ED0E94040183E20E94220180E00E94ED
:1003D00022010E94FE0080ED0E9404018DE10E9436
:1003E000220180E00E9422010E94FE0080ED0E9416
:1003F00004018EE10E94220180E00E9422010E94FD
:10040000FE0080ED0E94040180E20E94220180E053
:100410000E9422010E94FE0080ED0E94040182E2FF
:100420000E94220180E00E9422010E94FE0080EDD5
:100430000E94040181E20E94220180E00E942201C8
:100440000E94FE0080ED0E94040184E20E942201CD
:1004500080E00E9422010E94FE0080ED0E940401C3
:1004600086E20E94220180E00E9422010E94FE009A
:1004700080ED0E94040185E20E94220180E00E943A
:1004800022010E94FE0080ED0E94040187E20E948A
:10049000220180E00E9422010E94FE0080ED0E9465
:1004A000040189E20E94220180E00E9422010E9450
:1004B000FE0080ED0E94040188E20E94220180E09B
:1004C0000E9422010E94FE0080ED0E9404018AE247
:1004D0000E94220180E00E9422010E94FE0080ED25
:1004E0000E9404018CE20E94220180E00E9422010D
:1004F0000E94FE0080ED0E9404018CE20E94220115
:1005000080E00E9422010E94FE0080ED0E94040112
:100510008DE20E94220180E00E9422010E94FE00E2
:1005200080ED0E9404018FE20E94220180E00E947F
:1005300022010E94FE0080ED0E9404018EE20E94D2
:10054000220180E00E9422010E94FE0080ED0E94B4
:10055000040180E30E94220180E00E9422010E94A7
:10056000FE0080ED0E94040182E30E94220180E0EF
:100570000E9422010E94FE0080ED0E94040181E39E
:100580000E94220180E00E9422010E94FE0080ED74
:100590000E94040184E30E94220180E00E94220163
:1005A0000E94FE0080ED0E94040183E30E9422016C
:1005B00080E00E9422010E94FE0080ED0E94040162
:1005C00085E30E94220180E00E9422010E94FE0039
:1005D00080ED0E94040187E30E94220180E00E94D6
:1005E00022010E94FE0080ED0E94040188E30E9427
:1005F000220181E00E9422010E94FE0080ED0E9403
:10060000040183E60E94220180E00E9422010E94F0
:10061000FE0080ED0E94040184E60E94220180E039
:100620000E9422010E94FE0080ED0E94040185E6E6
:100630000E94220180E00E9422010E94FE0080EDC3
:100640000E94040186E60E94220180E00E942201AD
:100650000E94FE0080ED0E94040187E60E942201B4
:1006600080E00E9422010E94FE0080ED0E940401B1
:1006700088E60E94220180E00E9422010E94FE0082
:1006800080ED0E94040189E60E94220180E00E9420
:1006900022010E94FE0080ED0E9404018AE60E9471
:1006A000220180E00E9422010E94FE0080ED0E9453
:1006B00004018CE60E94220180E00E9422010E9437
:1006C000FE0080ED0E94040184E70E94220180E088
:1006D0000E9422010C94FE0080ED0E9404018BE335
:1006E0000E94220181ED0C94E100CF930E946C03E3
:1006F0000E943401C82F0E9434016C2F70E0762FC5
:100700006627682B072E000C880B990B0E94240C7F
:100710006093A3007093A4008093A5009093A6001B
:100720000E943401C82F0E9434016C2F70E0762F94
:100730006627682B072E000C880B990B0E94240C4F
:1007400060937E0070937F0080938000909381007F
:100750000E943401C82F0E9434016C2F70E0762F64
:100760006627682B072E000C880B990B0E94240C1F
:1007700060936A0070936B0080936C0090936D009F
:100780000E943401C82F0E9434016C2F70E0762F34
:100790006627682B072E000C880B990B0E94240CEF
:1007A000609376007093770080937800909379003F
:1007B0000E943401C82F0E9434016C2F70E0762F04
:1007C0006627682B072E000C880B990B0E94240CBF
:1007D000609372007093730080937400909375001F
:1007E0000E943401C82F0E9434016C2F70E0762FD4
:1007F0006627682B072E000C880B990B0E94240C8F
:100800006093CB007093CC008093CD009093CE008A
:100810000E943401C82F0E943B016C2F70E0762F9C
:100820006627682B072E000C880B990B0E94240C5E
:1008300060939A0070939B0080939C0090939D001E
:100840000E94FE0020E030E040E858E36091A30001
:100850007091A4008091A5009091A6000E94080DBF
:100860006093A3007093A4008093A5009093A600CA
:1008700020E030E040E858E360917E0070917F0016
:1008800080918000909181000E94080D60937E000D
:1008900070937F00809380009093810020E030E08F
:1008A00040E858E360916A0070916B0080916C00A1
:1008B00090916D000E94080D60936A0070936B0028
:1008C00080936C0090936D0023E333E343E851E49D
:1008D0006091720070917300809174009091750026
:1008E0000E94810B60937200709373008093740078
:1008F0009093750023E333E343E851E46091CB0028
:100900007091CC008091CD009091CE000E94810B1F
:100910006093CB007093CC008093CD009093CE0079
:1009200023E333E343E851E460919A0070919B0024
:1009300080919C0090919D000E94810B60939A0091
:1009400070939B0080939C0090939D00CF9108959D
:100950004F925F926F927F928F929F92AF92BF92CF
:10096000CF92DF92EF92FF92CF93DF93CDB7DEB7B6
:1009700062970FB6F894DEBF0FBECDBF88EC90E053
:100980009A8B898B0E94750380907E0090907F00E7
:10099000A0908000B09081004090A3005090A400EF
:1009A0006090A5007090A600C0906A00D0906B0087
:1009B000E0906C00F0906D00A7019601C701B601B0
:1009C0000E94080D6D837E838F839887A301920117
:1009D000C301B2010E94080D2D813E814F815885CF
:1009E0000E94E10A0E947B0D69837A838B839C833A
:1009F0009B01AC01C501B4010E94810B0E944D0B0B
:100A000021EE3EE245E652E40E94080D2091B70037
:100A10003091B8004091B9005091BA000E94E10AAB
:100A200069877A878B879C876093B7007093B8003B
:100A30008093B9009093BA00A5019401C501B40157
:100A40000E94080D2D813E814F8158850E94E10A48
:100A50000E947B0D9B01AC01C301B20190580E9422
:100A6000810B0E944D0B21EE3EE245E652E40E94CE
:100A7000080D2091AF003091B0004091B10050912D
:100A8000B2000E94E10A4B015C016093AF007093D9
:100A9000B0008093B1009093B20029813A814B81DC
:100AA0005C81C701B6010E94810B0E944D0B21EEB3
:100AB0003EE245E652E40E94080D209192003091FA
:100AC000930040919400509195000E94E10A6B01BF
:100AD0007C016093920070939300809394009093B4
:100AE00095002091720030917300409174005091F4
:100AF00075006091DB007091DC008091DD009091C9
:100B0000DE000E94E10A69837A838B839C83609371
:100B1000DB007093DC008093DD009093DE00209179
:100B2000CB003091CC004091CD005091CE0060912F
:100B3000C3007091C4008091C5009091C6000E94CE
:100B4000E10A6D837E838F8398876093C3007093DF
:100B5000C4008093C5009093C60020919A00309104
:100B60009B0040919C0050919D0060918E0070917F
:100B70008F0080919000909191000E94E10A6D8712
:100B80007E878F87988B60938E0070938F00809301
:100B9000900090939100A989BA891197BA8BA98B7B
:100BA000AB2B09F0EFCE20E030E048E453E4698558
:100BB0007A858B859C850E94810B6093B70070932A
:100BC000B8008093B9009093BA0020E030E048E488
:100BD00053E4C501B4010E94810B6093AF00709390
:100BE000B0008093B1009093B20020E030E048E480
:100BF00053E4C701B6010E94810B60939200709389
:100C00009300809394009093950020E030E048E4B6
:100C100053E469817A818B819C810E94810B60936E
:100C2000DB007093DC008093DD009093DE0020E019
:100C300030E048E453E46D817E818F8198850E9485
:100C4000810B6093C3007093C4008093C5009093A0
:100C5000C60020E030E048E453E46D857E858F8552
:100C600098890E94810B60938E0070938F0080930F
:100C700090009093910062960FB6F894DEBF0FBE7D
:100C8000CDBFDF91CF91FF90EF90DF90CF90BF90DD
:100C9000AF909F908F907F906F905F904F9008954E
:100CA0001F920F920FB60F9211242F933F934F93E1
:100CB0005F936F937F938F939F93AF93BF93EF93C4
:100CC000FF9320E030E040E85FE36091BB0070916B
:100CD000BC008091BD009091BE000E94E10A60932B
:100CE000BB007093BC008093BD009093BE00FF9149
:100CF000EF91BF91AF919F918F917F916F915F9194
:100D00004F913F912F910F900FBE0F901F9018950C
:100D100087E886B917B8089587B985E38A95F1F70A
:100D20000000369A349BFECF84B195B10895CF93DD
:100D3000DF93CDB7DEB7CC56D1090FB6F894DEBF3E
:100D40000FBECDBF8FEF87BB0E9488060E94DD00DB
:100D500060E07BE480E090E00E94AD0A0E944201E6
:100D60001CBE13BC0E9490010E9495010E94A80421
:100D70001E0129E3220E311CCE01835B9F4FA196F9
:100D80009FAF8EAFA1970E94750389EC96E7AEE303
:100D9000BDE38093D7009093D800A093D900B0937F
:100DA000DA00C0907E00D0907F00E0908000F0904C
:100DB00081008090A3009090A400A090A500B09026
:100DC000A60060916A0070916B0080916C00909118
:100DD0006D009B01AC010E94080D2B013C01A50197
:100DE0009401C501B4010E94080DA30192010E9463
:100DF000E10A0E947B0D9B01AC01C701B6010E9474
:100E0000810B0E944D0B21EE3EE245E652E40E942A
:100E1000080D2091B7003091B8004091B900509171
:100E2000BA000E94E00AA5966CAF7DAF8EAF9FAF6F
:100E3000A5976093820070938300809384009093C1
:100E40008500A7019601C701B6010E94080DA30104
:100E500092010E94E10A0E947B0D9B01AC01C50139
:100E6000B40190580E94810B0E944D0B21EE3EE28E
:100E700045E652E40E94080D2091AF003091B00089
:100E80004091B1005091B2000E94E00A6B017C01D8
:100E900060939F007093A0008093A1009093A200A4
:100EA0002091DB003091DC004091DD005091DE00AC
:100EB0006091720070917300809174009091750040
:100EC0000E94E00A2B013C01609372007093730052
:100ED00080937400909375002091C3003091C400FA
:100EE0004091C5005091C6006091CB007091CC003C
:100EF0008091CD009091CE000E94E00A6093CB00DB
:100F00007093CC008093CD009093CE0029EC36E70F
:100F10004EE35DE30E94080D2091E3003091E40070
:100F20004091E5005091E6000E94E10AA9966CAF5D
:100F30007DAF8EAF9FAFA99729EC36E74EE35DE317
:100F4000C301B2010E94080D2091860030918700F4
:100F500040918800509189000E94E10A2FE832EC0C
:100F600045E75FE30E94080D2B013C012AE037EDC5
:100F700043E25DE3A5966CAD7DAD8EAD9FADA597CB
:100F80000E94080D9B01AC01C301B2010E94E10A5D
:100F90004B015C016093860070938700809388000A
:100FA000909389002FE832EC45E75FE3A9966CAD9A
:100FB0007DAD8EAD9FADA9970E94080D2B013C0120
:100FC0002AE037ED43E25DE3C701B6010E94080D58
:100FD0009B01AC01C301B2010E94E10A6093E300EE
:100FE0007093E4008093E5009093E6008092D30034
:100FF0009092D400A092D500B092D6006093CF001A
:101000007093D0008093D1009093D2006E0197E549
:10101000C90ED11C10E07601812F0E948C06D601EA
:101020008D939D936D011F5F1430B1F7F7016081BF
:10103000718180E090E00E94220C20E030E040E2EC
:101040005CE30E94080DA5966CAF7DAF8EAF9FAF9D
:10105000A5976093C7007093C8008093C9009093D0
:10106000CA00D70112966D917C91139780E090E0B1
:101070000E94220C20E030E040E05BE30E94080D7B
:10108000A9966CAF7DAF8EAF9FAFA99760937A00A2
:1010900070937B0080937C0090937D00F7016481C6
:1010A000758180E090E00E94220C2AE939E949E943
:1010B00059E30E94080DAD966CAF7DAF8EAF9FAF28
:1010C000AD976093B3007093B4008093B500909394
:1010D000B600D70116966D917C91179780E090E04D
:1010E0000E94220C20E030E040E75CE30E94080D03
:1010F00020E030E04CE852E40E94E10A2091CF0069
:101100003091D0004091D1005091D2000E94E10A6C
:101110004B015C016093CF007093D0008093D100AD
:101120009093D20020916600309167004091680052
:10113000509169000E94E00A6B017C016093BF003E
:101140007093C0008093C1009093C20020E030E013
:1011500040E251EC0E94FB0C181654F411E020E020
:1011600030E040E251E4C701B6010E947C0B87FFEA
:1011700010E080919E00182B10939E00112381F1A6
:1011800020E030E048E452E4C501B4010E94FB0CC9
:10119000181634F120E030E048E452ECC501B40107
:1011A0000E947C0B87FD1CC08090D3009090D400DF
:1011B000A090D500B090D60020E030E048E452E4A2
:1011C000C501B4010E94FB0C181654F020E030E079
:1011D00048E452ECC501B4010E947C0B87FF03C0B8
:1011E0001CBE13BCE2C08090D7009090D800A090A5
:1011F000D900B090DA00A5019401C701B6010E94A0
:10120000080D2091960030919700409198005091E0
:1012100099000E94E10A2B013C0120E030E046E900
:1012200053E40E94FB0C18164CF04092960050922A
:10123000970060929800709299000CC080E090E056
:10124000A6E9B3E48093960090939700A09398004A
:10125000B093990020E030E046E953EC60919600AD
:101260007091970080919800909199000E947C0B5A
:1012700087FF0CC080E090E0A6E9B3EC8093960075
:1012800090939700A0939800B093990020919600B6
:10129000309197004091980050919900A9966CADBB
:1012A0007DAD8EAD9FADA9970E94080D2B013C012D
:1012B000A7019601A5966CAD7DAD8EAD9FADA597AE
:1012C0000E94080D9B01AC01C301B2010E94E10A1A
:1012D0002B013C012091A7003091A8004091A9006A
:1012E0005091AA00C701B6010E94E00AAD962CAD4C
:1012F0003DAD4EAD5FADAD970E94080DA5019401C7
:101300000E94810B9B01AC01C301B2010E94E10A62
:1013100060936E0070936F008093700090937100E3
:10132000C092A700D092A800E092A900F092AA0073
:1013300020E030E0A9010E94FB0C18165CF4C19A71
:10134000C29880916E0090916F00A0917000B09152
:1013500071000BC0C198C29A80916E0090916F008D
:10136000A0917000B0917100B0588093DF0090930D
:10137000E000A093E100B093E20020E030E040E222
:1013800051E46091DF007091E0008091E100909164
:10139000E2000E94E10A6093DF007093E000809316
:1013A000E1009093E2000E9447018091D300909168
:1013B000D400A091D500B091D60089839A83AB83E5
:1013C000BC838091CF009091D000A091D100B091CA
:1013D000D2008D839E83AF83B8878091C7009091A0
:1013E000C800A091C900B091CA0089879A87AB87CD
:1013F000BC8780917A0090917B00A0917C00B09195
:101400007D008D879E87AF87B88B8091B3009091C8
:10141000B400A091B500B091B600898B9A8BAB8BCC
:10142000BC8B8091960090919700A0919800B0910C
:1014300099008D8B9E8BAF8BB88F80916E009091B1
:101440006F00A0917000B0917100898F9A8FAB8F5F
:10145000BC8F8091DF009091E000A091E100B091FD
:10146000E2008D8F9E8FAF8FB8A380918600909100
:101470008700A0918800B091890089A39AA3ABA3AB
:10148000BCA38091E3009091E400A091E500B091AD
:10149000E6008DA39EA3AFA3B8A780918200909190
:1014A0008300A0918400B091850089A79AA7ABA77B
:1014B000BCA780919F009091A000A091A100B09145
:1014C000A2008DA79EA7AFA7B8AB60919E0070E069
:1014D00080E090E00E94220C69AB7AAB8BAB9CABB6
:1014E0008091D7009091D800A091D900B091DA00F6
:1014F0008DAB9EABAFABB8AFFE0131967F01D7018C
:101500006D917D918D919D917D018E01035B1F4FAA
:1015100022E043E00E94F60DA196BFADA197BF93D4
:10152000A096EFADA097EF9380E690E09F938F9306
:101530003F922F920E94160EC1010E94D40A0F9072
:101540000F900F900F900F900F90E214F304B9F6E4
:1015500084E690E00E94D40A16CC2AB128612AB908
:1015600020B5266820BD9B01AC0184E0220F331F0B
:10157000441F551F8A95D1F760E074E284EF90E034
:101580000E94D40D8FEF820F89B9DA01C90101974A
:10159000A109B109892F9A2FAB2FBB2780BD0895D0
:1015A0008CB95D9BFECF0895CF93DF93EC018991B9
:1015B000882319F00E94D00AFACFDF91CF910895C5
:1015C0005058BB27AA270E94F80A0C94C10C0E940D
:1015D000B30C38F00E94BA0C20F039F49F3F19F494
:1015E00026F40C94890C0EF4E095E7FB0C94830C24
:1015F000E92F0E94D20C58F3BA17620773078407C9
:10160000950720F079F4A6F50C94F40C0EF4E0950F
:101610000B2EBA2FA02D0B01B90190010C01CA01AC
:10162000A0011124FF27591B99F0593F50F4503E57
:1016300068F11A16F040A22F232F342F4427585F49
:10164000F3CF469537952795A795F0405395C9F761
:101650007EF41F16BA0B620B730B840BBAF0915019
:10166000A1F0FF0FBB1F661F771F881FC2F70EC0B8
:10167000BA0F621F731F841F48F48795779567958B
:10168000B795F7959E3F08F0B0CF9395880F08F077
:101690009927EE0F979587950895DF93DD27B92F4A
:1016A000BF7740E85FE31616170648075B0718F494
:1016B000D92F0E94000D9F938F937F936F930E9469
:1016C000BB0DE4E5F0E00E948C0C0E94C10C2F9150
:1016D0003F914F915F910E941B0DDD2351F0905877
:1016E000A2EA2AED3FE049EC5FE3D0785D270E9453
:1016F000F80ADF910C94C10C0E945F0C08F481E0A1
:1017000008950E94950B0C94C10C0E94BA0C58F0DD
:101710000E94B30C40F029F45F3F29F00C94830C35
:1017200051110C94F50C0C94890C0E94D20C68F3A6
:101730009923B1F3552391F3951B550BBB27AA278A
:1017400062177307840738F09F5F5F4F220F331FC4
:10175000441FAA1FA9F335D00E2E3AF0E0E832D08C
:1017600091505040E695001CCAF72BD0FE2F29D08F
:10177000660F771F881FBB1F261737074807AB0761
:10178000B0E809F0BB0B802DBF01FF2793585F4FD6
:101790003AF09E3F510578F00C94830C0C94F50CB4
:1017A0005F3FE4F3983ED4F3869577956795B795B8
:1017B000F7959F5FC9F7880F911D9695879597F9C3
:1017C0000895E1E0660F771F881FBB1F621773073C
:1017D0008407BA0720F0621B730B840BBA0BEE1F51
:1017E00088F7E09508950E94DA0C88F09F5798F0EA
:1017F000B92F9927B751B0F0E1F0660F771F881F16
:10180000991F1AF0BA95C9F714C0B13091F00E942F
:10181000F40CB1E008950C94F40C672F782F88270E
:10182000B85F39F0B93FCCF3869577956795B39556
:10183000D9F73EF490958095709561957F4F8F4FC5
:101840009F4F0895E89409C097FB3EF490958095CA
:10185000709561957F4F8F4F9F4F9923A9F0F92F76
:1018600096E9BB279395F695879577956795B795F4
:10187000F111F8CFFAF4BB0F11F460FF1BC06F5FDA
:101880007F4F8F4F9F4F16C0882311F096E911C0EC
:10189000772321F09EE8872F762F05C0662371F00D
:1018A00096E8862F70E060E02AF09A95660F771F21
:1018B000881FDAF7880F9695879597F90895990FFD
:1018C0000008550FAA0BE0E8FEEF16161706E8070A
:1018D000F907C0F012161306E407F50798F0621B2B
:1018E000730B840B950B39F40A2661F0232B242B00
:1018F000252B21F408950A2609F4A140A6958FEF1F
:10190000811D811D089597F99F6780E870E060E070
:1019100008959FEF80EC0895DF93CF931F930F936B
:10192000FF92EF92DF927B018C01689406C0DA2E61
:10193000EF010E941B0DFE01E894A59125913591C0
:1019400045915591A6F3EF010E94F80AFE01970117
:10195000A801DA9469F7DF90EF90FF900F911F9143
:10196000CF91DF91089500240A94161617061806E1
:101970000906089500240A94121613061406050693
:101980000895092E0394000C11F4882352F0BB0F24
:1019900040F4BF2B11F460FF04C06F5F7F4F8F4F87
:1019A0009F4F089557FD9058440F551F59F05F3FC2
:1019B00071F04795880F97FB991F61F09F3F79F071
:1019C00087950895121613061406551FF2CF4695F3
:1019D000F1DF08C0161617061806991FF1CF869575
:1019E0007105610508940895E894BB276627772759
:1019F000CB0197F908950E945F0C08F48FEF0895CA
:101A00009B01AC0160E070E080E89FE30C94810BE7
:101A10000E941B0D0C94C10C0E94B30C38F00E9464
:101A2000BA0C20F0952311F00C94830C0C94890CC3
:101A300011240C94F50C0E94D20C70F3959FC1F305
:101A4000950F50E0551F629FF001729FBB27F00D6C
:101A5000B11D639FAA27F00DB11DAA1F649F6627C1
:101A6000B00DA11D661F829F2227B00DA11D621F10
:101A7000739FB00DA11D621F839FA00D611D221FCA
:101A8000749F3327A00D611D231F849F600D211DAE
:101A9000822F762F6A2F11249F5750409AF0F1F031
:101AA00088234AF0EE0FFF1FBB1F661F771F881F9A
:101AB00091505040A9F79E3F510580F00C94830C43
:101AC0000C94F50C5F3FE4F3983ED4F3869577953C
:101AD0006795B795F795E7959F5FC1F7FE2B880F40
:101AE000911D9695879597F9089519F416F40C941D
:101AF000890C0C94BF0D0E94DA0CB8F39923C9F33A
:101B0000B6F39F57550B87FF0E94CD0D0024A0E62A
:101B100040EA900180585695979528F4805C660FAE
:101B2000771F881F20F026173707480730F4621BFD
:101B3000730B840B202931294A2BA69517940794FF
:101B4000202531254A2758F7660F771F881F20F078
:101B500026173707480730F4620B730B840B200DF0
:101B6000311D411DA09581F7B901842F9158880F2F
:101B70009695879508959B01AC010C94080D9F3FA5
:101B800031F0915020F4879577956795B795880F38
:101B9000911D9695879597F9089591505040660F3D
:101BA000771F881FD2F70895A1E21A2EAA1BBB1B2C
:101BB000FD010DC0AA1FBB1FEE1FFF1FA217B30719
:101BC000E407F50720F0A21BB30BE40BF50B661F2F
:101BD000771F881F991F1A9469F7609570958095F3
:101BE00090959B01AC01BD01CF010895EF920F9339
:101BF0001F93CF93DF93E80147FD02C034E001C09B
:101C000034E1042E000C550B57FF03C0519541954C
:101C10005109E32E022F242FAE010E941910CE018C
:101C2000DF91CF911F910F91EF900895AEE0B0E05A
:101C3000ECE1FEE00C9409130D891E8986E08C838B
:101C40001A8309838FEF9FE79E838D83AE01475EE2
:101C50005F4F6F89788DCE0101960E94380EEF811B
:101C6000F885E00FF11F10822E96E4E00C94251306
:101C7000ABE0B0E0EEE3FEE00C94FB126C017B0104
:101C80008A01FC0117821682838181FFCCC1CE01BB
:101C900001963C01F6019381F70193FD859193FF35
:101CA00081917F01882309F4BAC1853239F493FD0B
:101CB000859193FF81917F01853229F4B60190E0EF
:101CC0000E946112E7CF912C212C312CFFE1F315FA
:101CD000D8F08B3279F038F4803279F08332A1F485
:101CE000232D20611DC08D3261F0803369F4232DD6
:101CF000216016C0832D8260382EE32DE4603E2ED5
:101D00002AC0F32DF8601DC037FC2DC020ED280F30
:101D10002A3040F08E32B9F436FC81C1232D206484
:101D2000322E19C036FE06C08AE0989E200D11247E
:101D3000922E11C0EAE02E9E200D1124222EF32DAA
:101D4000F0623F2E08C08C3621F4832D8068382E37
:101D500002C0883641F4F70193FD859193FF81918C
:101D60007F018111B3CF982F9F7D9554933028F434
:101D70000C5F1F4F9FE399830DC0833631F083378B
:101D800071F0833509F059C021C0F8018081898341
:101D90000E5F1F4F88248394912C530113C0280198
:101DA000F2E04F0E511CF801A080B18036FE03C056
:101DB000692D70E002C06FEF7FEFC5010E945612DF
:101DC0004C018201F32DFF773F2E16C0280122E03F
:101DD000420E511CF801A080B18036FE03C0692D6F
:101DE00070E002C06FEF7FEFC5010E944B124C0103
:101DF000F32DF0683F2E820133FC1BC0822D90E052
:101E000088169906B0F4B60180E290E00E94611253
:101E10002A94F4CFF50137FC859137FE81915F015B
:101E2000B60190E00E94611221102A9421E0821AEA
:101E300091088114910471F7E8C0843611F0893655
:101E400041F5F80137FE07C060817181828193817D
:101E50000C5F1F4F08C060817181072E000C880B3A
:101E6000990B0E5F1F4FF32DFF763F2E97FF09C092
:101E700090958095709561957F4F8F4F9F4FF0683B
:101E80003F2E2AE030E0A3010E949D12882E861882
:101E900045C0853731F4232D2F7EB22E2AE030E065
:101EA00025C0932D997FB92E8F36C1F018F488354F
:101EB00079F0B5C0803719F0883721F0B0C0E92F2C
:101EC000E061BE2EB4FE0DC0FB2DF460BF2E09C034
:101ED00034FE0AC0292F2660B22E06C028E030E06A
:101EE00005C020E130E002C020E132E0F801B7FE99
:101EF00007C060817181828193810C5F1F4F06C092
:101F00006081718180E090E00E5F1F4FA3010E940D
:101F10009D12882E8618FB2DFF773F2E36FE0DC0B2
:101F2000232D2E7FA22E891458F434FE0BC032FCD0
:101F300009C0832D8E7EA82E05C0B82CA32C03C00B
:101F4000B82C01C0B92CA4FE0FC0FE01E80DF11D94
:101F50008081803321F49A2D997EA92E09C0A2FE9A
:101F600006C0B394B39404C08A2D867809F0B39464
:101F7000A3FC11C0A0FE06C0B21488F4280C922C59
:101F80009B180EC0B21460F4B60180E290E00E948B
:101F90006112B394F7CFB21418F42B1802C0982C26
:101FA000212CA4FE10C0B60180E390E00E946112D3
:101FB000A2FE17C0A1FC03C088E790E002C088E53C
:101FC00090E0B6010CC08A2D867859F0A1FE02C0BF
:101FD0008BE201C080E2A7FC8DE2B60190E00E9496
:101FE0006112891438F4B60180E390E00E94611216
:101FF0009A94F7CF8A94F301E80DF11D8081B60120
:1020000090E00E9461128110F5CF222009F442CEA7
:10201000B60180E290E00E9461122A94F6CFF601A8
:102020008681978102C08FEF9FEF2B96E2E10C949F
:102030001713A9E0B0E0EFE1F0E10C9401136A019D
:10204000122FB02E2BE3201720F0FF24F394F00E74
:1020500002C02CE3F22E0F2D27E0AE014F5F5F4F41
:102060000E947311BC014981842F8970813031F045
:10207000E1FC06C0E0FE06C090E205C09DE203C0A0
:102080009BE201C090E05E2D507143FF3CC0911176
:1020900002C083E001C084E0811718F4212F281BBF
:1020A00001C020E051110BC0F601822F30E28823DD
:1020B00019F031938150FBCFC20ED11C20E099233F
:1020C00029F0D6019C93F60131966F01C601039663
:1020D000E2FE0AC03EE4D6013C9341E411964C93E3
:1020E000119712963C9306C03EE6F601308341E616
:1020F00041833283FC01322F40E2332309F442C092
:1021000041933150FACF42FF44C0911102C083E0A5
:1021100001C084E0811718F4212F281B01C020E0A2
:1021200051110BC0F601822F30E2882319F0319350
:102130008150FBCFC20ED11C20E0992329F0D6019B
:102140009C93F60131966F01C6010396E2FE0BC027
:1021500039E4D6013C933EE411963C93119736E462
:1021600012963C9307C039E6F60130833EE6318390
:1021700036E63283FC01322F40E2332319F04193DB
:102180003150FBCFFC01E20FF11D10828EEF9FEF6B
:10219000A6C021E030E0911102C020E030E0161628
:1021A00017061CF4FB01319602C0E1E0F0E02E0FAF
:1021B0003F1FBB2021F0EB2DF0E0319602C0E0E0A4
:1021C000F0E02E0F3F1FE12FF0E02E173F071CF429
:1021D000121B212F01C020E08E2D887159F4F601C9
:1021E000822F30E2882319F031938150FBCFC20E49
:1021F000D11C20E0992329F0D6019C93F601319659
:102200006F0151110BC0F601822F90E3882319F062
:1022100091938150FBCFC20ED11C20E00F2D060FF1
:102220009A81342F307144FF03C0913309F4015077
:10223000101624F4093018F008E001C001E0AB01E9
:1022400077FF02C040E050E0FB01E41BF50BA1E08A
:10225000B0E0AC0FBD1FEA0FFB1F8EE2A82E4B01B2
:10226000801A91080B2D10E01195019511094F3F2F
:10227000BFEF5B0721F4D601AC9211966D01641794
:1022800075072CF08416950614F4818101C080E353
:10229000415051093196D60111967D0140175107E1
:1022A00024F0D6018C936701E2CF6417750739F4E7
:1022B000963320F4953319F4311101C081E3F6010E
:1022C0008083F701822F90E2882319F09193815047
:1022D000FBCFF701E20FF11D108280E090E029961C
:1022E000ECE00C941D13283008F027E03327DA01C6
:1022F000990F311D87FD916000966105710539F4D4
:1023000032602E5F3D9330E32A95E1F708959F3FB9
:1023100030F080387105610509F03C5F3C5F3D930A
:10232000913008F08068911DDF93CF931F930F9336
:10233000FF92EF92192F987F9695E92F9695969593
:10234000E90FFF27E452FF4F99273327EE24FF249C
:10235000A701E70105900894079428F4360FE71EBB
:10236000F81E491F511D660F771F881F991F06947D
:10237000A1F70590079428F4E70EF81E491F561F91
:10238000C11D770F881F991F661F0694A1F705903E
:10239000079428F4F80E491F561FC71FD11D880F38
:1023A000991F661F771F0694A1F70590079420F4E4
:1023B000490F561FC71FD81F990F661F771F881F09
:1023C0000694A9F784911095177041F0D695C7959A
:1023D00057954795F794E7941A95C1F7E2E8F0E02E
:1023E00068941590159135916591959105907FE2CE
:1023F0007395E118F10A430B560BC90BD009C0F7CE
:10240000E10CF11E431F561FC91FD01D7EF470330F
:1024100011F48A95E6CFE894015030F0080F0AF4E1
:102420000027021708F4202F2395022F7A3328F073
:1024300079E37D932A95E9F710C07D932A9589F673
:10244000069497956795379517951794E118F10AB3
:10245000430B560BC90BD00998F023957E917395C9
:102460007A3308F070E37C932013B8F77E917061A3
:102470007D9330F0839571E37D9370E32A95E1F7C6
:102480001124EF90FF900F911F91CF91DF91992729
:1024900087FD90950895FC010590615070400110F2
:1024A000D8F7809590958E0F9F1F0895FC0161507D
:1024B000704001900110D8F7809590958E0F9F1F66
:1024C00008950F931F93CF93DF93FB01238121FD89
:1024D00003C08FEF9FEF2CC022FF16C046815781AB
:1024E000248135814217530744F4A081B1819D01B5
:1024F0002F5F3F4F318320838C93268137812F5F5D
:102500003F4F3783268314C08B01EC01FB0100840D
:10251000F185E02D0995892BE1F6D80116968D916C
:102520009C911797019617969C938E931697CE01C0
:10253000DF91CF911F910F910895FA01AA272830BA
:1025400051F1203181F1E8946F936E7F6E5F7F4F80
:102550008F4F9F4FAF4FB1E03ED0B4E03CD0670FFC
:10256000781F891F9A1FA11D680F791F8A1F911D4F
:10257000A11D6A0F711D811D911DA11D20D009F49F
:1025800068943F912AE0269F11243019305D3193E1
:10259000DEF6CF010895462F4770405D4193B3E0CA
:1025A0000FD0C9F7F6CF462F4F70405D4A3318F071
:1025B000495D31FD4052419302D0A9F7EACFB4E022
:1025C000A6959795879577956795BA95C9F70097DA
:1025D0006105710508959B01AC010A2E069457957B
:1025E000479537952795BA95C9F7620F731F841FD2
:1025F000951FA01D08952F923F924F925F926F9268
:102600007F928F929F92AF92BF92CF92DF92EF9282
:10261000FF920F931F93CF93DF93CDB7DEB7CA1B03
:10262000DB0B0FB6F894DEBF0FBECDBF09942A882E
:10263000398848885F846E847D848C849B84AA84D6
:10264000B984C884DF80EE80FD800C811B81AA8163
:10265000B981CE0FD11D0FB6F894DEBF0FBECDBF2E
:08266000ED010895F894FFCF8D
:0626680025732F000A009B
:00000001FF
