S019000073656C6642616C616E636564526F626F742E7372656351
S11300000C94BE000C94DB000C94DB000C94DB001D
S11300100C94DB000C94DB000C94DB000C94DB00F0
S11300200C94DB000C9440060C94DB000C94DB0075
S11300300C94DB000C94DB000C94DB000C94DB00D0
S11300400C94DB000C94DB000C94DB000C94DB00C0
S11300500C94DB00084AD73B3BCE016E84BCBFFD49
S1130060C12F3D6C74319ABD56833DDA3D00C77F84
S113007011BED9E4BB4C3E916BAAAABE000000801D
S11300803F0000407A10F35A00A0724E1809001085
S1130090A5D4E80000E87648170000E40B540200F9
S11300A000CA9A3B000000E1F50500008096980024
S11300B0000040420F000000A0860100000010274D
S11300C000000000E80300000000640000000000DD
S11300D00A00000000000100000000002C76D8880F
S11300E0DC674F0823DFC1DFAE59E1B1B796E5E322
S11300F0E453C63AE651997696E8E6C28426EB893B
S11301008C9B62ED407C6FFCEFBC9C9F40F2BAA5D7
S11301106FA5F490055A2AF75C936B6CF9676DC16F
S11301201BFCE0E40D47FEF520E6B500D0ED902E73
S11301300300943577050080841E080000204E0AD1
S1130140000000C80C333333330F986E128311410F
S1130150EF8D2114893BE65516CFFEE6DB18D184DA
S11301604B381BF77C1D901DA4BBE4242032847201
S11301705E228100C9F124ECA1E53D2711241FBEB4
S1130180CFE5D8E0DEBFCDBF10E0A0E6B0E0EEE6FC
S1130190F6E202C005900D92AE37B107D9F721E01F
S11301A0AEE7B0E001C01D92AC30B207E1F70E94A7
S11301B078060C9435130C94000011B880E280B9D1
S11301C0089594EA96BF06B607FEFDCF91B1987FD5
S11301D0903111F080E0089583B984E886BF06B6B3
S11301E007FEFDCF81B1887F803431F0803211F079
S11301F083E0089582E0089581E0089584E986BF4C
S113020006B604FCFDCF089524EA34E844E926BF89
S113021006B607FEFDCF91B1987F9830C1F783B938
S113022036BF06B607FEFDCF91B1987F983129F00D
S113023046BF06B604FCFDCFEACF089583B984E82F
S113024086BF06B607FEFDCF81B1887F883221F0D4
S1130250803321F082E0089580E0089581E00895DC
S113026084EC86BF06B607FEFDCF83B1089584E80B
S113027086BF06B607FEFDCF83B108952FEF82E552
S113028097E0215080409040E1F700C0000080EDED
S11302900E94040189E10E941E0187E00E941E0160
S11302A00E94FE0080ED0E9404018BE60E941E0164
S11302B081E00E941E010E94FE0080ED0E94040164
S11302C08AE10E941E0181E00E941E010E94FE003C
S11302D080ED0E9404018BE10E941E0180E00E94D7
S11302E01E010E94FE0080ED0E9404018CE10E9428
S11302F01E0180E00E941E010E94FE0080ED0E940B
S113030004018FE10E941E0180E00E941E010E94F0
S1130310FE0080ED0E94040183E20E941E0180E041
S11303200E941E010E94FE0080ED0E9404018DE1E6
S11303300E941E0180E00E941E010E94FE0080EDCA
S11303400E9404018EE10E941E0180E00E941E01B1
S11303500E94FE0080ED0E94040180E20E941E01C2
S113036080E00E941E010E94FE0080ED0E940401B4
S113037082E20E941E0180E00E941E010E94FE0093
S113038080ED0E94040181E20E941E0180E00E942F
S11303901E010E94FE0080ED0E94040184E20E947E
S11303A01E0180E00E941E010E94FE0080ED0E945A
S11303B0040186E20E941E0180E00E941E010E9448
S11303C0FE0080ED0E94040185E20E941E0180E08F
S11303D00E941E010E94FE0080ED0E94040187E23B
S11303E00E941E0180E00E941E010E94FE0080ED1A
S11303F00E94040189E20E941E0180E00E941E0105
S11304000E94FE0080ED0E94040188E20E941E0109
S113041080E00E941E010E94FE0080ED0E94040103
S11304208AE20E941E0180E00E941E010E94FE00DA
S113043080ED0E9404018CE20E941E0180E00E9473
S11304401E010E94FE0080ED0E9404018CE20E94C5
S11304501E0180E00E941E010E94FE0080ED0E94A9
S113046004018DE20E941E0180E00E941E010E9490
S1130470FE0080ED0E9404018FE20E941E0180E0D4
S11304800E941E010E94FE0080ED0E9404018EE283
S11304900E941E0180E00E941E010E94FE0080ED69
S11304A00E94040180E30E941E0180E00E941E015C
S11304B00E94FE0080ED0E94040182E30E941E015E
S11304C080E00E941E010E94FE0080ED0E94040153
S11304D081E30E941E0180E00E941E010E94FE0032
S11304E080ED0E94040184E30E941E0180E00E94CA
S11304F01E010E94FE0080ED0E94040183E30E941D
S11305001E0180E00E941E010E94FE0080ED0E94F8
S1130510040185E30E941E0180E00E941E010E94E6
S1130520FE0080ED0E94040187E30E941E0180E02A
S11305300E941E010E94FE0080ED0E94040188E3D7
S11305400E941E0181E00E941E010E94FE0080EDB7
S11305500E94040183E60E941E0180E00E941E01A5
S11305600E94FE0080ED0E94040184E60E941E01A8
S113057080E00E941E010E94FE0080ED0E940401A2
S113058085E60E941E0180E00E941E010E94FE007A
S113059080ED0E94040186E60E941E0180E00E9414
S11305A01E010E94FE0080ED0E94040187E60E9465
S11305B01E0180E00E941E010E94FE0080ED0E9448
S11305C0040188E60E941E0180E00E941E010E9430
S11305D0FE0080ED0E94040189E60E941E0180E075
S11305E00E941E010E94FE0080ED0E9404018AE622
S11305F00E941E0180E00E941E010E94FE0080ED08
S11306000E9404018CE60E941E0180E00E941E01EB
S11306100E94FE0080ED0E94040184E70E941E01F6
S113062080E00E941E010C94FE0080ED0E940401F3
S11306308BE30E941E0181ED0C94E100CF930E9494
S113064015030E943001C82F0E9430016C2F70E006
S1130650762F6627682B072E000C880B990B0E94B7
S1130660270C6093C7007093C8008093C9009093CF
S1130670CA000E943001C82F0E9430016C2F70E024
S1130680762F6627682B072E000C880B990B0E9487
S1130690270C60939E0070939F008093A00090931A
S11306A0A1000E943001C82F0E9430016C2F70E01D
S11306B0762F6627682B072E000C880B990B0E9457
S11306C0270C60938200709383008093840090933E
S11306D085000E943001C82F0E9430016C2F70E009
S11306E0762F6627682B072E000C880B990B0E9427
S11306F0270C6093960070939700809398009093D2
S113070099000E943001C82F0E9430016C2F70E0C4
S1130710762F6627682B072E000C880B990B0E94F6
S1130720270C6093920070939300809394009093AD
S113073095000E943001C82F0E9430016C2F70E098
S1130740762F6627682B072E000C880B990B0E94C6
S1130750270C6093F4007093F5008093F600909357
S1130760F7000E943001C82F0E9437016C2F70E0FF
S1130770762F6627682B072E000C880B990B0E9496
S1130780270C6093BE007093BF008093C0009093C9
S1130790C1000E94FE0020E030E040E858E3609190
S11307A0C7007091C8008091C9009091CA000E944E
S11307B00B0D6093C7007093C8008093C900909399
S11307C0CA0020E030E040E858E360919E00709158
S11307D09F008091A0009091A1000E940B0D609356
S11307E09E0070939F008093A0009093A10020E04E
S11307F030E040E858E3609182007091830080917A
S11308008400909185000E940B0D60938200709388
S11308108300809384009093850020E030E043E0DF
S113082053E46091920070919300809194009091B0
S113083095000E94840B60939200709393008093C0
S113084094009093950020E030E043E053E46091FD
S1130850F4007091F5008091F6009091F7000E94E9
S1130860840B6093F4007093F5008093F6009093EA
S1130870F70020E030E043E053E46091BE00709163
S1130880BF008091C0009091C1000E94840B6093CE
S1130890BE007093BF008093C0009093C100CF91BD
S11308A008954F925F926F927F928F929F92AF9230
S11308B0BF92CF92DF92EF92FF92CF93DF93CDB7A7
S11308C0DEB762970FB6F894DEBF0FBECDBF88ECDB
S11308D090E09A8B898B0E941E03ECB4FDB42DEB3F
S11308E037E346E05DE36091E3007091E4008091BA
S11308F0E5009091E6000E940B0D4B015C01B701ED
S113090080E090E00E94250C2DEB37E346E055E3B0
S11309100E940B0D9B01AC01C501B4010E94E40AC5
S11309206B017C01609300017093010180930201CB
S1130930909303011DBC1CBC1092E3001092E400D0
S11309401092E5001092E60040909E0050909F00A7
S11309506090A0007090A1008091C7009091C800A1
S1130960A091C900B091CA0089839A83AB83BC83E8
S11309708090820090908300A0908400B0908500C5
S1130980A5019401C501B4010E940B0D69877A8702
S11309908B879C8729813A814B815C81CA01B9018B
S11309A00E940B0D29853A854B855C850E94E40ADB
S11309B00E947E0D6D837E838F8398879B01AC019B
S11309C0C301B2010E94840B0E94500B21EE3EE24F
S11309D045E652E40E940B0D2091DF003091E000C7
S11309E04091E1005091E2000E94E40A6D877E8705
S11309F08F87988B6093DF007093E0008093E10011
S1130A009093E200A3019201C301B2010E940B0D75
S1130A1029853A854B855C850E94E40A0E947E0DF7
S1130A209B01AC0169817A818B819C8190580E94E1
S1130A30840B0E94500B21EE3EE245E652E40E94F4
S1130A400B0D2091D7003091D8004091D9005091DE
S1130A50DA000E94E40A2B013C016093D7007093F2
S1130A60D8008093D9009093DA002D813E814F8184
S1130A705885C501B4010E94840B0E94500B21EEDD
S1130A803EE245E652E40E940B0D2091B6003091FF
S1130A90B7004091B8005091B9000E94E40A4B019C
S1130AA05C016093B6007093B7008093B800909394
S1130AB0B90020919200309193004091940050919C
S1130AC09500C701B6010E940B0D209104013091DD
S1130AD0050140910601509107010E94E40A6983CF
S1130AE07A838B839C8360930401709305018093C4
S1130AF00601909307012091F4003091F500409194
S1130B00F6005091F700C701B6010E940B0D209129
S1130B10EC003091ED004091EE005091EF000E9406
S1130B20E40A6D837E838F8398876093EC007093CF
S1130B30ED008093EE009093EF002091BE00309181
S1130B40BF004091C0005091C100C701B6010E948E
S1130B500B0D2091B2003091B3004091B40050913C
S1130B60B5000E94E40A6B017C016093B2007093AB
S1130B70B3008093B4009093B500A989BA89119702
S1130B80BA8BA98BAB2B09F0A6CE20E030E048E469
S1130B9053E46D857E858F8598890E94840B6093CC
S1130BA0DF007093E0008093E1009093E20020E086
S1130BB030E048E453E4C301B2010E94840B609323
S1130BC0D7007093D8008093D9009093DA0020E086
S1130BD030E048E453E4C501B4010E94840B6093FF
S1130BE0B6007093B7008093B8009093B90020E0EA
S1130BF030E048E453E469817A818B819C810E94CE
S1130C00840B609304017093050180930601909313
S1130C10070120E030E048E453E46D817E818F8158
S1130C2098850E94840B6093EC007093ED00809390
S1130C30EE009093EF0020E030E048E453E4C70175
S1130C40B6010E94840B6093B2007093B30080934A
S1130C50B4009093B50062960FB6F894DEBF0FBE51
S1130C60CDBFDF91CF91FF90EF90DF90CF90BF90F9
S1130C70AF909F908F907F906F905F904F9008956A
S1130C801F920F920FB60F9211242F933F934F93FD
S1130C905F936F937F938F939F93AF93BF93EF93E0
S1130CA0FF9320E030E040E85FE36091E30070915F
S1130CB0E4008091E5009091E6000E94E40A6093CC
S1130CC0E3007093E4008093E5009093E600FF91C5
S1130CD0EF91BF91AF919F918F917F916F915F91B0
S1130CE04F913F912F910F900FBE0F901F90189529
S1130CF0CF93DF93CDB7DEB7CA54D1090FB6F894BA
S1130D00DEBF0FBECDBF87B3836087BB81B3806670
S1130D1081BB0E94DD0060E071EE80E090E00E9403
S1130D20A90A1FBC89B7846089BF8EB582608EBD55
S1130D308EB58A7F8EBD78940E943E010E94510434
S1130D4080E487B986E886B912BE14BCBB9A8F9A30
S1130D501CBE13BC89E683BF85BD88E1E0E6F0E0F4
S1130D60DE01119601900D928A95E1F7CE01499624
S1130D707C01DE019D966D0198E7292E90E0392EC5
S1130D800E941E03ACB4BDB42DEB37E346E05DE333
S1130D906091E3007091E4008091E5009091E60099
S1130DA00E940B0D2B013C01B50180E090E00E94F4
S1130DB0250C2DEB37E346E055E30E940B0D9B0118
S1130DC0AC01C301B2010E94E40A4B015C016093CF
S1130DD000017093010180930201909303011DBCF3
S1130DE01CBC1092E3001092E4001092E5001092F3
S1130DF0E60040909E0050909F006090A00070908C
S1130E00A1008091C7009091C800A091C900B09141
S1130E10CA0023968CAF9DAFAEAFBFAF239760914E
S1130E2082007091830080918400909185009B01E1
S1130E30AC010E940B0D27966CAF7DAF8EAF9FAFB8
S1130E40279723962CAD3DAD4EAD5FAD2397CA01D8
S1130E50B9010E940B0D27962CAD3DAD4EAD5FAD93
S1130E6027970E94E40A0E947E0D9B01AC01C301F6
S1130E70B2010E94840B0E94500B21EE3EE245E633
S1130E8052E40E940B0D2091DF003091E00040916C
S1130E90E1005091E2000E94E30A2B966CAF7DAF13
S1130EA08EAF9FAF2B976093A2007093A3008093A3
S1130EB0A4009093A500A3019201C301B2010E9472
S1130EC00B0D27962CAD3DAD4EAD5FAD27970E941F
S1130ED0E40A0E947E0D9B01AC0123966CAD7DADAE
S1130EE08EAD9FAD239790580E94840B0E94500BA7
S1130EF021EE3EE245E652E40E940B0D2091D7001C
S1130F003091D8004091D9005091DA000E94E30A50
S1130F102B013C016093C3007093C4008093C5000F
S1130F209093C6002091F4003091F5004091F600B2
S1130F305091F700C501B4010E940B0D20910801E6
S1130F403091090140910A0150910B010E94E40A79
S1130F502091EC003091ED004091EE005091EF00B3
S1130F600E94E30A23966CAF7DAF8EAF9FAF2397A9
S1130F7020919200309193004091940050919500FB
S1130F80C501B4010E940B0D2091A6003091A70069
S1130F904091A8005091A9000E94E40A2091040104
S1130FA03091050140910601509107010E94E30A26
S1130FB02CEE31E548E75FE30E940B0D4B015C0129
S1130FC02FE832EC45EF5CE32B966CAD7DAD8EAD36
S1130FD09FAD2B970E940B0D9B01AC01C501B40181
S1130FE00E94E40A4B015C016093A6007093A70081
S1130FF08093A8009093A9002CEE31E548E75FE3C5
S113100023966CAD7DAD8EAD9FAD23970E940B0DE5
S113101023966CAF7DAF8EAF9FAF23972FE832EC52
S113102045EF5CE3C301B2010E940B0D9B01AC01CF
S113103023966CAD7DAD8EAD9FAD23970E94E40ADF
S1131040609308017093090180930A0190930B0146
S11310508092FC009092FD00A092FE00B092FF00EE
S11310606093F8007093F9008093FA009093FB006A
S1131070FE01F79680E0982F906497B995E39A95CE
S1131080F1F70000369A349BFECF24B135B1219399
S113109031938F5F843079F769AD7AAD80E090E069
S11310A00E94250C20E030E040EC5BE30E940B0D35
S11310B06093F0007093F1008093F2009093F3003A
S11310C06BAD7CAD80E090E00E94250C20E030E028
S11310D040E25DE30E940B0D60939A0070939B00C5
S11310E080939C0090939D006DAD7EAD80E090E078
S11310F00E94250C2DEC3CEC4CE459E30E940B0DB2
S11311006093DB007093DC008093DD009093DE003D
S11311106FA978AD80E090E00E94250C20E030E0DB
S113112040E75CE30E940B0D20E030E046E952E426
S11311300E94E40A2091F8003091F9004091FA00ED
S11311405091FB000E94E40A4B015C016093F8009B
S11311507093F9008093FA009093FB0020917E0035
S113116030917F0040918000509181000E94E30AF9
S11311702B013C016093E7007093E8008093E90041
S11311809093EA0020E030E040E251EC0E94FE0C33
S113119018160CF07EC120E030E040E251E4C301B7
S11311A0B2010E947F0B881F8827881F9091C2007C
S11311B0892B8093C200882309F466C120E030E0C3
S11311C048E452E4C501B4010E94FE0C18160CF464
S11311D05BC120E030E048E452ECC501B4010E9458
S11311E07F0B87FD51C18090FC009090FD00A09082
S11311F0FE00B090FF0020E030E048E452E4C50176
S1131200B4010E94FE0C18160CF43EC120E030E03C
S113121048E452ECC501B4010E947F0B87FD34C140
S1131220C09AC1984090E7005090E8006090E900AF
S11312307090EA008091000190910101A091020157
S1131240B091030123968CAF9DAFAEAFBFAF239790
S11312509C01AD01C301B2010E940B0D2091BA00A3
S11312603091BB004091BC005091BD000E94E40A43
S11312704B015C0120E030E040EA51E40E94FE0CA6
S113128018160CF034C180E090E0A0EAB1E4809339
S1131290BA009093BB00A093BC00B093BD004C0176
S11312A05D012091F0003091F1004091F2005091E5
S11312B0F300C301B2010E940B0D27966CAF7DAF02
S11312C08EAF9FAF27976093AE007093AF0080936B
S11312D0B0009093B10020919A0030919B0040910E
S11312E09C0050919D00C501B4010E940B0D4B015F
S11312F05C0160938A0070938B0080938C009093C0
S11313008D002091CF003091D0004091D1005091B8
S1131310D200C301B2010E94E30A2091DB003091A4
S1131320DC004091DD005091DE000E940B0D2396FD
S11313302CAD3DAD4EAD5FAD23970E94840B23963B
S11313406CAF7DAF8EAF9FAF23976093CB0070934C
S1131350CC008093CD009093CE00A50194012796F4
S11313606CAD7DAD8EAD9FAD27970E94E40A2396A8
S11313702CAD3DAD4EAD5FAD23970E94E40A609362
S11313808E0070938F008093900090939100409210
S1131390CF005092D0006092D1007092D20060933E
S11313A0860070938700809388009093890020E0E2
S11313B030E0A9010E94FE0C18160CF0B1C0959AF9
S11313C09698609186007091870080918800909132
S11313D0890020E030E040EF51E40E94E40A4B0130
S11313E05C016093860070938700809388009093DB
S11313F0890020E030E048EC52E40E94FE0C18160C
S11314000CF049C080E090E0A8ECB2E48093860040
S113141090938700A0938800B09389001FEF812CDC
S1131420912C8FE7A82E83E4B82EC501B4010E9445
S1131430F60B1CBF63BDDE0111965D01D501ED9174
S1131440FD915D016081718182819381860123E038
S113145043E00E94F90DDF92CF923F922F92FF92C8
S1131460EF920E94190EC7010E94D70A0F900F90A5
S11314700F900F900F900F90EA14FB04F9F68CE78D
S113148090E00E94D70A7CCC1CBE13BCC19AC098C1
S1131490D2CF80E08BCE23E333E343E250E4C501B3
S11314A0B4010E940B0D4B015C0121E73DE34AE8C6
S11314B05FE30E940B0D2B013C0120E030E04FE77D
S11314C053E40E94FE0C1816CCF1C301B2010E9431
S11314D0F60B162F20E030E04FE753E4C501B401CA
S11314E00E94FE0C18160CF0A0CF6FEFA2CF20E0E4
S11314F030E040EA51ECC501B4010E947F0B87FF44
S11315001FC080E090E0A0EAB1EC8093BA00909311
S1131510BB00A093BC00B093BD004C015D01C1CEE3
S11315209598969A8091860090918700A091880062
S1131530B0918900BC01CD0190584BCF1FEFCACFA9
S11315408092BA009092BB00A092BC00B092BD0001
S1131550A8CE2AB128612AB920B5266820BDDC01AD
S1131560CB01880F991FAA1FBB1F880F991FAA1FA1
S1131570BB1F9C01AD01220F331F441F551F220FB7
S1131580331F441F551F60E074E284EF90E00E9413
S1131590D70D8FEF820F89B9DA01C9010197A1092B
S11315A0B109892F9A2FAB2FBB2780BD0895FC0169
S11315B09081992339F031969CB95D9BFECF91912E
S11315C09111FACF08955058BB27AA270E94FB0A0D
S11315D00C94C40C0E94B60C38F00E94BD0C20F090
S11315E039F49F3F19F426F40C948C0C0EF4E09516
S11315F0E7FB0C94860CE92F0E94D50C58F3BA171C
S1131600620773078407950720F079F4A6F50C9414
S1131610F70C0EF4E0950B2EBA2FA02D0B01B90197
S113162090010C01CA01A0011124FF27591B99F054
S1131630593F50F4503E68F11A16F040A22F232F60
S1131640342F4427585FF3CF469537952795A795B0
S1131650F0405395C9F77EF41F16BA0B620B730B57
S1131660840BBAF09150A1F0FF0FBB1F661F771FC8
S1131670881FC2F70EC0BA0F621F731F841F48F47D
S1131680879577956795B795F7959E3F08F0B0CF06
S11316909395880F08F09927EE0F979587950895ED
S11316A0DF93DD27B92FBF7740E85FE316161706EF
S11316B048075B0718F4D92F0E94030D9F938F935B
S11316C07F936F930E94BE0DE4E5F0E00E948F0CBF
S11316D00E94C40C2F913F914F915F910E941E0D67
S11316E0DD2351F09058A2EA2AED3FE049EC5FE394
S11316F0D0785D270E94FB0ADF910C94C40C0E94F1
S1131700620C08F481E008950E94980B0C94C40CB8
S11317100E94BD0C58F00E94B60C40F029F45F3FC3
S113172029F00C94860C51110C94F80C0C948C0C2C
S11317300E94D50C68F39923B1F3552391F3951BBB
S1131740550BBB27AA2762177307840738F09F5FDE
S11317505F4F220F331F441FAA1FA9F335D00E2E4B
S11317603AF0E0E832D091505040E695001CCAF7B8
S11317702BD0FE2F29D0660F771F881FBB1F26177B
S113178037074807AB07B0E809F0BB0B802DBF0152
S1131790FF2793585F4F3AF09E3F510578F00C9421
S11317A0860C0C94F80C5F3FE4F3983ED4F38695D2
S11317B077956795B795F7959F5FC9F7880F911D42
S11317C09695879597F90895E1E0660F771F881F2E
S11317D0BB1F621773078407BA0720F0621B730BE1
S11317E0840BBA0BEE1F88F7E09508950E94DD0C78
S11317F088F09F5798F0B92F9927B751B0F0E1F0CE
S1131800660F771F881F991F1AF0BA95C9F714C07D
S1131810B13091F00E94F70CB1E008950C94F70CEC
S1131820672F782F8827B85F39F0B93FCCF38695B6
S113183077956795B395D9F73EF490958095709513
S113184061957F4F8F4F9F4F0895E89409C097FB90
S11318503EF490958095709561957F4F8F4F9F4F83
S11318609923A9F0F92F96E9BB279395F6958795C7
S113187077956795B795F111F8CFFAF4BB0F11F48A
S113188060FF1BC06F5F7F4F8F4F9F4F16C0882331
S113189011F096E911C0772321F09EE8872F762F67
S11318A005C0662371F096E8862F70E060E02AF0A8
S11318B09A95660F771F881FDAF7880F9695879594
S11318C097F90895990F0008550FAA0BE0E8FEEF69
S11318D016161706E807F907C0F012161306E407F0
S11318E0F50798F0621B730B840B950B39F40A26E9
S11318F061F0232B242B252B21F408950A2609F4C7
S1131900A140A6958FEF811D811D089597F99F67CA
S113191080E870E060E008959FEF80EC0895DF9325
S1131920CF931F930F93FF92EF92DF927B018C0171
S1131930689406C0DA2EEF010E941E0DFE01E894A1
S1131940A5912591359145915591A6F3EF010E94FA
S1131950FB0AFE019701A801DA9469F7DF90EF9082
S1131960FF900F911F91CF91DF91089500240A9465
S11319701616170618060906089500240A94121666
S11319801306140605060895092E0394000C11F499
S1131990882352F0BB0F40F4BF2B11F460FF04C046
S11319A06F5F7F4F8F4F9F4F089557FD9058440F9F
S11319B0551F59F05F3F71F04795880F97FB991FAA
S11319C061F09F3F79F08795089512161306140667
S11319D0551FF2CF4695F1DF08C0161617061806F4
S11319E0991FF1CF86957105610508940895E894CF
S11319F0BB2766277727CB0197F908950E94620CCD
S1131A0008F48FEF08959B01AC0160E070E080E87A
S1131A109FE30C94840B0E941E0D0C94C40C0E9432
S1131A20B60C38F00E94BD0C20F0952311F00C94F4
S1131A30860C0C948C0C11240C94F80C0E94D50C7C
S1131A4070F3959FC1F3950F50E0551F629FF0010D
S1131A50729FBB27F00DB11D639FAA27F00DB11D26
S1131A60AA1F649F6627B00DA11D661F829F2227AF
S1131A70B00DA11D621F739FB00DA11D621F839F36
S1131A80A00D611D221F749F3327A00D611D231F0C
S1131A90849F600D211D822F762F6A2F11249F575A
S1131AA050409AF0F1F088234AF0EE0FFF1FBB1F5D
S1131AB0661F771F881F91505040A9F79E3F51051C
S1131AC080F00C94860C0C94F80C5F3FE4F3983E81
S1131AD0D4F3869577956795B795F795E7959F5FC6
S1131AE0C1F7FE2B880F911D9695879597F9089558
S1131AF019F416F40C948C0C0C94C20D0E94DD0C99
S1131B00B8F39923C9F3B6F39F57550B87FF0E9487
S1131B10D00D0024A0E640EA900180585695979590
S1131B2028F4805C660F771F881F20F0261737077C
S1131B30480730F4621B730B840B202931294A2B8C
S1131B40A69517940794202531254A2758F7660F40
S1131B50771F881F20F026173707480730F4620BD9
S1131B60730B840B200D311D411DA09581F7B90124
S1131B70842F9158880F9695879508959B01AC0101
S1131B800C940B0D9F3F31F0915020F4879577957D
S1131B906795B795880F911D9695879597F9089540
S1131BA091505040660F771F881FD2F70895A1E225
S1131BB01A2EAA1BBB1BFD010DC0AA1FBB1FEE1FC3
S1131BC0FF1FA217B307E407F50720F0A21BB30B0E
S1131BD0E40BF50B661F771F881F991F1A9469F78A
S1131BE060957095809590959B01AC01BD01CF01E6
S1131BF00895EF920F931F93CF93DF93E80147FD6E
S1131C0002C034E001C034E1042E000C550B57FF30
S1131C1003C0519541955109E32E022F242FAE01A3
S1131C200E941C10CE01DF91CF911F910F91EF9074
S1131C300895AEE0B0E0EFE1FEE00C940C130D89E2
S1131C401E8986E08C831A8309838FEF9FE79E8326
S1131C508D83AE01475E5F4F6F89788DCE0101960B
S1131C600E943B0EEF81F885E00FF11F10822E9643
S1131C70E4E00C942813ABE0B0E0E1E4FEE00C9463
S1131C80FE126C017B018A01FC011782168283819A
S1131C9081FFCCC1CE0101963C01F6019381F7018D
S1131CA093FD859193FF81917F01882309F4BAC143
S1131CB0853239F493FD859193FF81917F018532BB
S1131CC029F4B60190E00E946412E7CF912C212CF4
S1131CD0312CFFE1F315D8F08B3279F038F48032EF
S1131CE079F08332A1F4232D20611DC08D3261F07F
S1131CF0803369F4232D216016C0832D8260382E31
S1131D00E32DE4603E2E2AC0F32DF8601DC037FC9D
S1131D102DC020ED280F2A3040F08E32B9F436FC65
S1131D2081C1232D2064322E19C036FE06C08AE0FC
S1131D30989E200D1124922E11C0EAE02E9E200DB3
S1131D401124222EF32DF0623F2E08C08C3621F48C
S1131D50832D8068382E02C0883641F4F70193FD44
S1131D60859193FF81917F018111B3CF982F9F7D3E
S1131D709554933028F40C5F1F4F9FE399830DC053
S1131D80833631F0833771F0833509F059C021C0AF
S1131D90F801808189830E5F1F4F88248394912CDE
S1131DA0530113C02801F2E04F0E511CF801A0802A
S1131DB0B18036FE03C0692D70E002C06FEF7FEF83
S1131DC0C5010E9459124C018201F32DFF773F2E69
S1131DD016C0280122E0420E511CF801A080B180F7
S1131DE036FE03C0692D70E002C06FEF7FEFC501BE
S1131DF00E944E124C01F32DF0683F2E820133FCF9
S1131E001BC0822D90E088169906B0F4B60180E2DA
S1131E1090E00E9464122A94F4CFF50137FC859176
S1131E2037FE81915F01B60190E00E946412211097
S1131E302A9421E0821A91088114910471F7E8C070
S1131E40843611F0893641F5F80137FE07C0608108
S1131E507181828193810C5F1F4F08C06081718101
S1131E60072E000C880B990B0E5F1F4FF32DFF7686
S1131E703F2E97FF09C090958095709561957F4F8F
S1131E808F4F9F4FF0683F2E2AE030E0A3010E945D
S1131E90A012882E861845C0853731F4232D2F7E55
S1131EA0B22E2AE030E025C0932D997FB92E8F36CB
S1131EB0C1F018F4883579F0B5C0803719F0883747
S1131EC021F0B0C0E92FE061BE2EB4FE0DC0FB2DA1
S1131ED0F460BF2E09C034FE0AC0292F2660B22E3A
S1131EE006C028E030E005C020E130E002C020E177
S1131EF032E0F801B7FE07C060817181828193816D
S1131F000C5F1F4F06C06081718180E090E00E5F1E
S1131F101F4FA3010E94A012882E8618FB2DFF7765
S1131F203F2E36FE0DC0232D2E7FA22E891458F489
S1131F3034FE0BC032FC09C0832D8E7EA82E05C052
S1131F40B82CA32C03C0B82C01C0B92CA4FE0FC01C
S1131F50FE01E80DF11D8081803321F49A2D997ED4
S1131F60A92E09C0A2FE06C0B394B39404C08A2D5E
S1131F70867809F0B394A3FC11C0A0FE06C0B21485
S1131F8088F4280C922C9B180EC0B21460F4B6018D
S1131F9080E290E00E946412B394F7CFB21418F474
S1131FA02B1802C0982C212CA4FE10C0B60180E38B
S1131FB090E00E946412A2FE17C0A1FC03C088E74F
S1131FC090E002C088E590E0B6010CC08A2D8678C6
S1131FD059F0A1FE02C08BE201C080E2A7FC8DE2B1
S1131FE0B60190E00E946412891438F4B60180E3CB
S1131FF090E00E9464129A94F7CF8A94F301E80D5A
S1132000F11D8081B60190E00E9464128110F5CF29
S1132010222009F442CEB60180E290E00E946412CC
S11320202A94F6CFF6018681978102C08FEF9FEF45
S11320302B96E2E10C941A13A9E0B0E0E2E2F0E19D
S11320400C9404136A01122FB02E2BE3201720F0F6
S1132050FF24F394F00E02C02CE3F22E0F2D27E0A0
S1132060AE014F5F5F4F0E947611BC014981842FFE
S11320708970813031F0E1FC06C0E0FE06C090E2D8
S113208005C09DE203C09BE201C090E05E2D50714B
S113209043FF3CC0911102C083E001C084E081177A
S11320A018F4212F281B01C020E051110BC0F601A8
S11320B0822F30E2882319F031938150FBCFC20E76
S11320C0D11C20E0992329F0D6019C93F601319686
S11320D06F01C6010396E2FE0AC03EE4D6013C93BA
S11320E041E411964C93119712963C9306C03EE638
S11320F0F601308341E641833283FC01322F40E212
S1132100332309F442C041933150FACF42FF44C013
S1132110911102C083E001C084E0811718F4212FDB
S1132120281B01C020E051110BC0F601822F30E2C0
S1132130882319F031938150FBCFC20ED11C20E0CB
S1132140992329F0D6019C93F60131966F01C601BB
S11321500396E2FE0BC039E4D6013C933EE41196AB
S11321603C93119736E412963C9307C039E6F60186
S113217030833EE6318336E63283FC01322F40E27F
S1132180332319F041933150FBCFFC01E20FF11DD1
S113219010828EEF9FEFA6C021E030E0911102C0C3
S11321A020E030E0161617061CF4FB01319602C03D
S11321B0E1E0F0E02E0F3F1FBB2021F0EB2DF0E01B
S11321C0319602C0E0E0F0E02E0F3F1FE12FF0E077
S11321D02E173F071CF4121B212F01C020E08E2D67
S11321E0887159F4F601822F30E2882319F0319373
S11321F08150FBCFC20ED11C20E0992329F0D601D7
S11322009C93F60131966F0151110BC0F601822F98
S113221090E3882319F091938150FBCFC20ED11C17
S113222020E00F2D060F9A81342F307144FF03C034
S1132230913309F40150101624F4093018F008E021
S113224001C001E0AB0177FF02C040E050E0FB01B8
S1132250E41BF50BA1E0B0E0AC0FBD1FEA0FFB1FC0
S11322608EE2A82E4B01801A91080B2D10E01195D7
S1132270019511094F3FBFEF5B0721F4D601AC92E2
S113228011966D01641775072CF08416950614F4E5
S1132290818101C080E3415051093196D6011196E4
S11322A07D014017510724F0D6018C936701E2CFDA
S11322B06417750739F4963320F4953319F4311102
S11322C001C081E3F6018083F701822F90E2882325
S11322D019F091938150FBCFF701E20FF11D1082A9
S11322E080E090E02996ECE00C942013283008F06C
S11322F027E03327DA01990F311D87FD916000969D
S11323006105710539F432602E5F3D9330E32A95FF
S1132310E1F708959F3F30F080387105610509F0B9
S11323203C5F3C5F3D93913008F08068911DDF93E2
S1132330CF931F930F93FF92EF92192F987F969547
S1132340E92F96959695E90FFF27E452FF4F9927B9
S11323503327EE24FF24A701E7010590089407948E
S113236028F4360FE71EF81E491F511D660F771F0C
S1132370881F991F0694A1F70590079428F4E70E87
S1132380F81E491F561FC11D770F881F991F661F0E
S11323900694A1F70590079428F4F80E491F561FD8
S11323A0C71FD11D880F991F661F771F0694A1F7B9
S11323B00590079420F4490F561FC71FD81F990F83
S11323C0661F771F881F0694A9F7849110951770CC
S11323D041F0D695C79557954795F794E7941A9584
S11323E0C1F7E2E8F0E06894159015913591659194
S11323F0959105907FE27395E118F10A430B560B12
S1132400C90BD009C0F7E10CF11E431F561FC91FA9
S1132410D01D7EF4703311F48A95E6CFE894015010
S113242030F0080F0AF40027021708F4202F239530
S1132430022F7A3328F079E37D932A95E9F710C0C7
S11324407D932A9589F60694979567953795179500
S11324501794E118F10A430B560BC90BD00998F0F5
S113246023957E9173957A3308F070E37C9320135F
S1132470B8F77E9170617D9330F0839571E37D931D
S113248070E32A95E1F71124EF90FF900F911F91CB
S1132490CF91DF91992787FD90950895FC010590D0
S11324A0615070400110D8F7809590958E0F9F1F52
S11324B00895FC016150704001900110D8F7809597
S11324C090958E0F9F1F08950F931F93CF93DF93C3
S11324D0FB01238121FD03C08FEF9FEF2CC022FF5E
S11324E016C046815781248135814217530744F42D
S11324F0A081B1819D012F5F3F4F318320838C9355
S1132500268137812F5F3F4F3783268314C08B0189
S1132510EC01FB010084F185E02D0995892BE1F69E
S1132520D80116968D919C911797019617969C93B6
S11325308E931697CE01DF91CF911F910F9108953D
S1132540FA01AA27283051F1203181F1E8946F93E0
S11325506E7F6E5F7F4F8F4F9F4FAF4FB1E03ED086
S1132560B4E03CD0670F781F891F9A1FA11D680F24
S1132570791F8A1F911DA11D6A0F711D811D911D57
S1132580A11D20D009F468943F912AE0269F1124CC
S11325903019305D3193DEF6CF010895462F477030
S11325A0405D4193B3E00FD0C9F7F6CF462F4F708B
S11325B0405D4A3318F0495D31FD4052419302D0E9
S11325C0A9F7EACFB4E0A69597958795779567958F
S11325D0BA95C9F700976105710508959B01AC018F
S11325E00A2E06945795479537952795BA95C9F7B6
S11325F0620F731F841F951FA01D08952F923F9291
S11326004F925F926F927F928F929F92AF92BF92FE
S1132610CF92DF92EF92FF920F931F93CF93DF93AA
S1132620CDB7DEB7CA1BDB0B0FB6F894DEBF0FBE07
S1132630CDBF09942A88398848885F846E847D8454
S11326408C849B84AA84B984C884DF80EE80FD8056
S11326500C811B81AA81B981CE0FD11D0FB6F894CC
S1112660DEBF0FBECDBFED010895F894FFCF8D
S113266EF800F0009A00DB00BA00AE008A00CB003E
S111267E8E000801C300000125732F000A001E
S9030000FC
