:100000000C94BE000C94DB000C94DB000C94DB0021
:100010000C94DB000C94DB000C94DB000C94DB00F4
:100020000C94DB000C944C060C94DB000C94DB006D
:100030000C94DB000C94DB000C94DB000C94DB00D4
:100040000C94DB000C94DB000C94DB000C94DB00C4
:100050000C94DB00084AD73B3BCE016E84BCBFFD4D
:10006000C12F3D6C74319ABD56833DDA3D00C77F88
:1000700011BED9E4BB4C3E916BAAAABE0000008021
:100080003F0000407A10F35A00A0724E1809001089
:10009000A5D4E80000E87648170000E40B540200FD
:1000A00000CA9A3B000000E1F50500008096980028
:1000B000000040420F000000A08601000000102751
:1000C00000000000E80300000000640000000000E1
:1000D0000A00000000000100000000002C76D88813
:1000E000DC674F0823DFC1DFAE59E1B1B796E5E326
:1000F000E453C63AE651997696E8E6C28426EB893F
:100100008C9B62ED407C6FFCEFBC9C9F40F2BAA5DB
:100110006FA5F490055A2AF75C936B6CF9676DC173
:100120001BFCE0E40D47FEF520E6B500D0ED902E77
:100130000300943577050080841E080000204E0AD5
:10014000000000C80C333333330F986E1283114113
:10015000EF8D2114893BE65516CFFEE6DB18D184DE
:100160004B381BF77C1D901DA4BBE4242032847205
:100170005E228100C9F124ECA1E53D2711241FBEB8
:10018000CFE5D8E0DEBFCDBF10E0A0E6B0E0ECEDFB
:10019000F6E202C005900D92A636B107D9F720E02D
:1001A000A6E6B0E001C01D92A83EB207E1F70E94AA
:1001B000E7060C946C130C94000011B880E280B92F
:1001C000089594EA96BF06B607FEFDCF91B1987FD9
:1001D000903171F483B984E886BF06B607FEFDCF7F
:1001E00081B1887F803431F0803231F083E008952E
:1001F00080E0089581E0089582E0089584E986BF53
:1002000006B604FCFDCF08951F93CF93DF93C82F4C
:10021000D4EA14E8D6BF06B607FEFDCF81B1887FC9
:100220008830C1F7C3B916BF06B607FEFDCF81B14E
:10023000887F883119F00E94FE00ECCFDF91CF91CA
:100240001F91089583B984E886BF06B607FEFDCFE7
:1002500081B1887F883221F0803321F082E00895D7
:1002600080E0089581E0089584EC86BF06B607FE1D
:10027000FDCF83B1089584E886BF06B607FEFDCFA3
:1002800083B108952FEF82E597E0215080409040A0
:10029000E1F700C0000080ED0E94040189E10E94A6
:1002A000220187E00E9422010E94FE0080ED0E9450
:1002B00004018BE60E94220181E00E9422010E943B
:1002C000FE0080ED0E9404018AE10E94220183E089
:1002D0000E9422010E94FE0080ED0E9404018BE139
:1002E0000E94220188E10E9422010E94FE0080ED0E
:1002F0000E9404018CE10E94220180E00E94220100
:100300000E94FE0080ED0E9404018FE10E94220104
:1003100080E00E9422010E94FE0080ED0E94040104
:1003200083E20E94220180E00E9422010E94FE00DE
:1003300080ED0E9404018DE10E94220180E00E9474
:1003400022010E94FE0080ED0E9404018EE10E94C5
:10035000220180E00E9422010E94FE0080ED0E94A6
:10036000040180E20E94220180E00E9422010E949A
:10037000FE0080ED0E94040182E20E94220180E0E2
:100380000E9422010E94FE0080ED0E94040181E291
:100390000E94220180E00E9422010E94FE0080ED66
:1003A0000E94040184E20E94220180E00E94220156
:1003B0000E94FE0080ED0E94040186E20E9422015C
:1003C00080E00E9422010E94FE0080ED0E94040154
:1003D00085E20E94220180E00E9422010E94FE002C
:1003E00080ED0E94040187E20E94220180E00E94C9
:1003F00022010E94FE0080ED0E94040189E20E9419
:10040000220180E00E9422010E94FE0080ED0E94F5
:10041000040188E20E94220180E00E9422010E94E1
:10042000FE0080ED0E9404018AE20E94220180E029
:100430000E9422010E94FE0080ED0E9404018CE2D5
:100440000E94220180E00E9422010E94FE0080EDB5
:100450000E9404018CE20E94220180E00E9422019D
:100460000E94FE0080ED0E9404018DE20E942201A4
:1004700080E00E9422010E94FE0080ED0E940401A3
:100480008FE20E94220180E00E9422010E94FE0071
:1004900080ED0E9404018EE20E94220180E00E9411
:1004A00022010E94FE0080ED0E94040180E30E9470
:1004B000220180E00E9422010E94FE0080ED0E9445
:1004C000040182E30E94220180E00E9422010E9436
:1004D000FE0080ED0E94040181E30E94220180E081
:1004E0000E9422010E94FE0080ED0E94040184E32C
:1004F0000E94220180E00E9422010E94FE0080ED05
:100500000E94040183E30E94220180E00E942201F4
:100510000E94FE0080ED0E94040185E30E942201FA
:1005200080E00E9422010E94FE0080ED0E940401F2
:1005300087E30E94220180E00E9422010E94FE00C7
:1005400080ED0E94040188E30E94220181E00E9464
:1005500022010E94FE0080ED0E94040183E60E94B9
:10056000220180E00E9422010E94FE0080ED0E9494
:10057000040184E60E94220180E00E9422010E9480
:10058000FE0080ED0E94040185E60E94220180E0C9
:100590000E9422010E94FE0080ED0E94040186E676
:1005A0000E94220180E00E9422010E94FE0080ED54
:1005B0000E94040187E60E94220180E00E9422013D
:1005C0000E94FE0080ED0E94040188E60E94220144
:1005D00080E00E9422010E94FE0080ED0E94040142
:1005E00089E60E94220180E00E9422010E94FE0012
:1005F00080ED0E9404018AE60E94220180E00E94B0
:1006000022010E94FE0080ED0E9404018CE60E94FF
:10061000220180E00E9422010E94FE0080ED0E94E3
:10062000040184E70E94220180E00E9422010C94D0
:10063000FE0080ED0E9404018BE30E94220181ED07
:100640000C94E100CF930E9419030E943401C82F3B
:100650000E9434016C2F70E0762F6627682B072EDE
:10066000000C880B990B0E945E0C6093A3007093A2
:10067000A4008093A5009093A6000E943401C82F87
:100680000E9434016C2F70E0762F6627682B072EAE
:10069000000C880B990B0E945E0C60937E00709397
:1006A0007F0080938000909381000E943401C82FC6
:1006B0000E9434016C2F70E0762F6627682B072E7E
:1006C000000C880B990B0E945E0C60936A0070937B
:1006D0006B0080936C0090936D000E943401C82FD2
:1006E0000E9434016C2F70E0762F6627682B072E4E
:1006F000000C880B990B0E945E0C6093760070933F
:10070000770080937800909379000E943401C82F7D
:100710000E9434016C2F70E0762F6627682B072E1D
:10072000000C880B990B0E945E0C60937200709312
:10073000730080937400909375000E943401C82F59
:100740000E9434016C2F70E0762F6627682B072EED
:10075000000C880B990B0E945E0C6093CC00709388
:10076000CD008093CE009093CF000E943401C82F1B
:100770000E943B016C2F70E0762F6627682B072EB6
:10078000000C880B990B0E945E0C60939A0070938A
:100790009B0080939C0090939D000E94FE0020E0AF
:1007A00030E040E858E36091A3007091A40080918C
:1007B000A5009091A6000E94420D6093A300709343
:1007C000A4008093A5009093A60020E030E040E8CC
:1007D00058E360917E0070917F008091800090913D
:1007E00081000E94420D60937E0070937F00809391
:1007F00080009093810020E030E040E858E3609171
:100800006A0070916B0080916C0090916D000E9465
:10081000420D60936A0070936B0080936C0090931C
:100820006D0023E333E343E851E46091720070917B
:10083000730080917400909175000E94BB0B6093CF
:10084000720070937300809374009093750023E39B
:1008500033E343E851E46091CC007091CD00809186
:10086000CE009091CF000E94BB0B6093CC007093A0
:10087000CD008093CE009093CF0023E333E343E891
:1008800051E460919A0070919B0080919C0090913E
:100890009D000E94BB0B60939A0070939B00809315
:1008A0009C0090939D00CF9108954F925F926F921C
:1008B0007F928F929F92AF92BF92CF92DF92EF92F0
:1008C000FF92CF93DF93CDB7DEB762970FB6F89460
:1008D000DEBF0FBECDBF88EC90E09A8B898B0E9463
:1008E000220380907E0090907F00A0908000B090C6
:1008F00081004090A3005090A4006090A5007090EB
:10090000A600C0906A00D0906B00E0906C00F09060
:100910006D00A7019601C701B6010E94420D6D83CB
:100920007E838F839887A3019201C301B2010E9445
:10093000420D2D813E814F8158850E941B0B0E94E4
:10094000B50D69837A838B839C839B01AC01C501C0
:10095000B4010E94BB0B0E94870B21EE3EE245E6EC
:1009600052E40E94420D2091B7003091B8004091AE
:10097000B9005091BA000E941B0B69877A878B8758
:100980009C876093B7007093B8008093B9009093F0
:10099000BA00A5019401C501B4010E94420D2D8148
:1009A0003E814F8158850E941B0B0E94B50D9B0113
:1009B000AC01C301B20190580E94BB0B0E94870B8F
:1009C00021EE3EE245E652E40E94420D2091AF0046
:1009D0003091B0004091B1005091B2000E941B0BC9
:1009E0004B015C016093AF007093B0008093B10045
:1009F0009093B20029813A814B815C81C701B60195
:100A00000E94BB0B0E94870B21EE3EE245E652E4BA
:100A10000E94420D209192003091930040919400E9
:100A2000509195000E941B0B6B017C01609392001A
:100A3000709393008093940090939500209172009E
:100A40003091730040917400509175006091DC000A
:100A50007091DD008091DE009091DF000E941B0B01
:100A600069837A838B839C836093DC007093DD00C1
:100A70008093DE009093DF002091CC003091CD0078
:100A80004091CE005091CF006091C4007091C5009C
:100A90008091C6009091C7000E941B0B6D837E83DE
:100AA0008F8398876093C4007093C5008093C600BD
:100AB0009093C70020919A0030919B0040919C0038
:100AC00050919D0060918E0070918F0080919000F8
:100AD000909191000E941B0B6D877E878F87988B6A
:100AE00060938E0070938F0080939000909391009C
:100AF000A989BA891197BA8BA98BAB2B09F0EFCED4
:100B000020E030E048E453E469857A858B859C8554
:100B10000E94BB0B6093B7007093B8008093B9003C
:100B20009093BA0020E030E048E453E4C501B401FA
:100B30000E94BB0B6093AF007093B0008093B10034
:100B40009093B20020E030E048E453E4C701B601DE
:100B50000E94BB0B6093920070939300809394006B
:100B60009093950020E030E048E453E469817A8175
:100B70008B819C810E94BB0B6093DC007093DD0035
:100B80008093DE009093DF0020E030E048E453E4FF
:100B90006D817E818F8198850E94BB0B6093C4001C
:100BA0007093C5008093C6009093C70020E030E0AA
:100BB00048E453E46D857E858F8598890E94BB0B40
:100BC00060938E0070938F008093900090939100BB
:100BD00062960FB6F894DEBF0FBECDBFDF91CF9106
:100BE000FF90EF90DF90CF90BF90AF909F908F904D
:100BF0007F906F905F904F9008951FBC89B784607D
:100C000089BF8EB582608EBD8EB58A7F8EBD0895F8
:100C1000CF92DF92EF92FF920F931F93CF93DF93C8
:100C20008C01CCB5DDB52DEB37E346E05DE360919B
:100C3000BB007091BC008091BD009091BE000E94ED
:100C4000420D6B017C01BE0180E090E00E945C0CD3
:100C50002DEB37E346E055E30E94420D9B01AC01CA
:100C6000C701B6010E941B0BF80160837183828368
:100C700093831DBC1CBC1092BB001092BC00109250
:100C8000BD001092BE00DF91CF911F910F91FF9098
:100C9000EF90DF90CF9008951F920F920FB60F92B2
:100CA00011242F933F934F935F936F937F938F9371
:100CB0009F93AF93BF93EF93FF9320E030E040E822
:100CC0005FE36091BB007091BC008091BD0090918A
:100CD000BE000E941B0B6093BB007093BC0080930E
:100CE000BD009093BE00FF91EF91BF91AF919F9196
:100CF0008F917F916F915F914F913F912F910F90C5
:100D00000FBE0F901F90189512BE14BCBB9A8F9AFD
:100D1000089589E683BF85BD08958F929F92AF9213
:100D2000BF92CF92DF92EF92FF9223E333E343E24D
:100D300050E40E94420D6B017C0121E73DE34AE84B
:100D40005FE30E94420D4B015C0120E030E04FE781
:100D500053E40E94350D181634F4812C912C9FE732
:100D6000A92E93E4B92E20E030E04FE753E4C70109
:100D7000B6010E94350D181634F4C12CD12C8FE722
:100D8000E82E83E4F82EC501B4010E942D0C6CBF3F
:100D9000C701B6010E942D0C63BDFF90EF90DF905C
:100DA000CF90BF90AF909F908F90089586E886B9BE
:100DB00080E487B90895806487B985E38A95F1F75F
:100DC0000000369A349BFECF84B195B10895CF933D
:100DD000DF93CDB7DEB7C456D1090FB6F894DEBFA6
:100DE0000FBECDBF87B3836087BB81B3806681BBF5
:100DF0000E94D6060E94DD0060E071EE80E090E087
:100E00000E94E70A0E9484061CBE13BC0E94890649
:100E10000E9442010E94FD050E94550478941E0123
:100E200021E3220E311CAE014B5B5F4F69965FAF31
:100E30004EAF69970E94220388ED90E00E94080659
:100E4000C0907E00D0907F00E0908000F090810004
:100E50008090A3009090A400A090A500B090A60060
:100E600060916A0070916B0080916C0090916D00B0
:100E70009B01AC010E94420D2B013C01A501940194
:100E8000C501B4010E94420DA30192010E941B0BF7
:100E90000E94B50D9B01AC01C701B6010E94BB0BBE
:100EA0000E94870B21EE3EE245E652E40E94420D8D
:100EB0002091B7003091B8004091B9005091BA002C
:100EC0000E941A0BA1966CAF7DAF8EAF9FAFA1971A
:100ED00060938200709383008093840090938500D8
:100EE000A7019601C701B6010E94420DA30192011C
:100EF0000E941B0B0E94B50D9B01AC01C501B40102
:100F000090580E94BB0B0E94870B21EE3EE245E603
:100F100052E40E94420D2091AF003091B000409108
:100F2000B1005091B2000E941A0B6B017C016093DA
:100F30009F007093A0008093A1009093A200209145
:100F4000DC003091DD004091DE005091DF006091C7
:100F500072007091730080917400909175000E94EE
:100F60001A0B2B013C016093720070937300809305
:100F70007400909375002091C4003091C500409199
:100F8000C6005091C7006091CC007091CD00809157
:100F9000CE009091CF000E941A0B6093CC0070930A
:100FA000CD008093CE009093CF002091D800309157
:100FB000D9004091DA005091DB006D962CAF3DAF27
:100FC0004EAF5FAF6D970E94420D2091E4003091CB
:100FD000E5004091E6005091E7000E941B0BA596AA
:100FE0006CAF7DAF8EAF9FAFA5976D962CAD3DAD2D
:100FF0004EAD5FAD6D97C301B2010E94420D2091CD
:1010000086003091870040918800509189000E94AD
:101010001B0B2FE832EC45E75FE30E94420D2B01EA
:101020003C012AE037ED43E25DE3A1966CAD7DAD76
:101030008EAD9FADA1970E94420D9B01AC01C301F3
:10104000B2010E941B0B4B015C0160938600709300
:10105000870080938800909389002FE832EC45E761
:101060005FE3A5966CAD7DAD8EAD9FADA5970E945B
:10107000420D2B013C012AE037ED43E25DE3C7015D
:10108000B6010E94420D9B01AC01C301B2010E9456
:101090001B0B6093E4007093E5008093E60090934F
:1010A000E7008092D4009092D500A092D600B09232
:1010B000D7006093D0007093D1008093D2009093BA
:1010C000D3006E013FE4C30ED11C10E07601812FE6
:1010D0000E94DB06D6018D939D936D011F5F143036
:1010E000B1F7F7016281738180E090E00E945C0CAF
:1010F00020E030E040E25CE30E94420D6093C800D3
:101100007093C9008093CA009093CB00D7011496C6
:101110006D917C91159780E090E00E945C0C20E03E
:1011200030E040E05BE30E94420D60937A007093F0
:101130007B0080937C0090937D00F701668177812E
:1011400080E090E00E945C0C2AE939E949E959E322
:101150000E94420D6093B3007093B4008093B50079
:101160009093B600D7016D917C9180E090E00E9451
:101170005C0C20E030E040E75CE30E94420D20E0A0
:1011800030E042E852E40E941B0B2091D0003091E5
:10119000D1004091D2005091D3000E941B0B6B01F3
:1011A0007C016093D0007093D1008093D200909323
:1011B000D300209166003091670040916800509103
:1011C00069000E941A0B4B015C016093BF00709391
:1011D000C0008093C1009093C20020E030E040E264
:1011E00051EC0E94350D181654F411E020E030E067
:1011F00040E251E4C501B4010E94B60B87FF10E044
:1012000080919E00182B10939E00112381F120E005
:1012100030E048E452E4C701B6010E94350D1816CB
:1012200034F120E030E048E452ECC701B6010E94FE
:10123000B60B87FD1CC0C090D400D090D500E090C4
:10124000D600F090D70020E030E048E452E4C70137
:10125000B6010E94350D181654F020E030E048E445
:1012600052ECC701B6010E94B60B87FF05C01CBE39
:1012700013BCC19AC098EAC0C09AC198C090BF0080
:10128000D090C000E090C100F090C2008090D800E3
:101290009090D900A090DA00B090DB00A5019401F5
:1012A000C701B6010E94420D20919600309197002F
:1012B00040919800509199000E941B0B2B013C011A
:1012C00020E030E046E953E40E94350D18164CF05A
:1012D0004092960050929700609298007092990008
:1012E0000CC080E090E0A6E9B3E480939600909370
:1012F0009700A0939800B093990020E030E046E971
:1013000053EC6091960070919700809198009091B5
:1013100099000E94B60B87FF0CC080E090E0A6E920
:10132000B3EC8093960090939700A0939800B093AD
:10133000990020919600309197004091980050912B
:10134000990060917A0070917B0080917C0090916F
:101350007D000E94420D2B013C012091C80030917C
:10136000C9004091CA005091CB00C701B6010E944C
:10137000420D9B01AC01C301B2010E941B0B2B016A
:101380003C012091A7003091A8004091A900509104
:10139000AA00C701B6010E941A0B2091B300309138
:1013A000B4004091B5005091B6000E94420DA501D5
:1013B00094010E94BB0B9B01AC01C301B2010E94CE
:1013C0001B0B60936E0070936F008093700090937E
:1013D0007100C092A700D092A800E092A900F092FC
:1013E000AA0020E030E0A9010E94350D18165CF437
:1013F000959A969880916E0090916F00A0917000E0
:10140000B09171000BC09598969A80916E00909162
:101410006F00A0917000B0917100B0588093E0000F
:101420009093E100A093E200B093E30020E030E06D
:1014300040E251E46091E0007091E1008091E200AF
:101440009091E3000E941B0B0E948D068091D000BA
:101450009091D100A091D200B091D30089839A835A
:10146000AB83BC838091C8009091C900A091CA0051
:10147000B091CB008D839E83AF83B88780917A0033
:1014800090917B00A0917C00B0917D0089879A8724
:10149000AB87BC878091B3009091B400A091B50058
:1014A000B091B6008D879E87AF87B88B80919600EC
:1014B00090919700A0919800B0919900898B9A8B98
:1014C000AB8BBC8B80916E0090916F00A0917000EF
:1014D000B09171008D8B9E8BAF8BB88F8091E000A7
:1014E0009091E100A091E200B091E300898F9A8F82
:1014F000AB8FBC8F8091860090918700A09188006F
:10150000B09189008D8F9E8FAF8FB8A38091E4003A
:101510009091E500A091E600B091E70089A39AA31D
:10152000ABA3BCA38091820090918300A091840022
:10153000B09185008DA39EA3AFA3B8A780919F0013
:101540009091A000A091A100B091A20089A79AA7B4
:10155000ABA7BCA78091D8009091D900A091DA00E8
:10156000B091DB008DA79EA7AFA7B8ABFE01319667
:101570007F01D7016D917D918D919D917D018E01AE
:101580000B5B1F4F23E043E00E94300E6996BFAD16
:101590006997BF936896EFAD6897EF9320E630E0C8
:1015A0003F932F933F922F920E94500EC1010E94B1
:1015B0000E0B0F900F900F900F900F900F90E21462
:1015C000F304B9F684E690E00E940E0B33CC2AB106
:1015D00028612AB920B5266820BD9B01AC0184E0B2
:1015E000220F331F441F551F8A95D1F760E074E224
:1015F00084EF90E00E940E0E8FEF820F89B9DA011E
:10160000C9010197A109B109892F9A2FAB2FBB27D7
:1016100080BD08958CB95D9BFECF0895CF93DF9375
:10162000EC018991882319F00E940A0BFACFDF910F
:10163000CF9108955058BB27AA270E94320B0C94D3
:10164000FB0C0E94ED0C38F00E94F40C20F039F4F1
:101650009F3F19F426F40C94C30C0EF4E095E7FBBD
:101660000C94BD0CE92F0E940C0D58F3BA176207B9
:1016700073078407950720F079F4A6F50C942E0DD6
:101680000EF4E0950B2EBA2FA02D0B01B90190019D
:101690000C01CA01A0011124FF27591B99F0593FE1
:1016A00050F4503E68F11A16F040A22F232F342F29
:1016B0004427585FF3CF469537952795A795F04077
:1016C0005395C9F77EF41F16BA0B620B730B840B8C
:1016D000BAF09150A1F0FF0FBB1F661F771F881F44
:1016E000C2F70EC0BA0F621F731F841F48F487959C
:1016F00077956795B795F7959E3F08F0B0CF93958E
:10170000880F08F09927EE0F979587950895DF9336
:10171000DD27B92FBF7740E85FE3161617064807A5
:101720005B0718F4D92F0E943A0D9F938F937F93F4
:101730006F930E94F50DE4E5F0E00E94C60C0E9454
:10174000FB0C2F913F914F915F910E94550DDD232E
:1017500051F09058A2EA2AED3FE049EC5FE3D078DF
:101760005D270E94320BDF910C94FB0C0E94990CB8
:1017700008F481E008950E94CF0B0C94FB0C0E94AA
:10178000F40C58F00E94ED0C40F029F45F3F29F072
:101790000C94BD0C51110C942F0D0C94C30C0E9491
:1017A0000C0D68F39923B1F3552391F3951B550B59
:1017B000BB27AA2762177307840738F09F5F5F4F24
:1017C000220F331F441FAA1FA9F335D00E2E3AF063
:1017D000E0E832D091505040E695001CCAF72BD07B
:1017E000FE2F29D0660F771F881FBB1F26173707CC
:1017F0004807AB07B0E809F0BB0B802DBF01FF27FE
:1018000093585F4F3AF09E3F510578F00C94BD0C11
:101810000C942F0D5F3FE4F3983ED4F386957795B3
:101820006795B795F7959F5FC9F7880F911D9695B6
:10183000879597F90895E1E0660F771F881FBB1F12
:10184000621773078407BA0720F0621B730B840BBF
:10185000BA0BEE1F88F7E09508950E94140D88F0EA
:101860009F5798F0B92F9927B751B0F0E1F0660F64
:10187000771F881F991F1AF0BA95C9F714C0B130A5
:1018800091F00E942E0DB1E008950C942E0D672F5B
:10189000782F8827B85F39F0B93FCCF386957795D4
:1018A0006795B395D9F73EF49095809570956195BD
:1018B0007F4F8F4F9F4F0895E89409C097FB3EF4E8
:1018C00090958095709561957F4F8F4F9F4F99238D
:1018D000A9F0F92F96E9BB279395F695879577950B
:1018E0006795B795F111F8CFFAF4BB0F11F460FFCB
:1018F0001BC06F5F7F4F8F4F9F4F16C0882311F023
:1019000096E911C0772321F09EE8872F762F05C036
:10191000662371F096E8862F70E060E02AF09A95D1
:10192000660F771F881FDAF7880F9695879597F9C6
:101930000895990F0008550FAA0BE0E8FEEF161660
:101940001706E807F907C0F012161306E407F507B3
:1019500098F0621B730B840B950B39F40A2661F027
:10196000232B242B252B21F408950A2609F4A140CA
:10197000A6958FEF811D811D089597F99F6780E8D7
:1019800070E060E008959FEF80EC0895DF93CF93BF
:101990001F930F93FF92EF92DF927B018C0168946B
:1019A00006C0DA2EEF010E94550DFE01E894A591C4
:1019B0002591359145915591A6F3EF010E94320B87
:1019C000FE019701A801DA9469F7DF90EF90FF908C
:1019D0000F911F91CF91DF91089500240A9416165C
:1019E000170618060906089500240A94121613060D
:1019F000140605060895092E0394000C11F488239B
:101A000052F0BB0F40F4BF2B11F460FF04C06F5FB6
:101A10007F4F8F4F9F4F089557FD9058440F551F8C
:101A200059F05F3F71F04795880F97FB991F61F060
:101A30009F3F79F087950895121613061406551FD7
:101A4000F2CF4695F1DF08C0161617061806991F43
:101A5000F1CF86957105610508940895E894BB2738
:101A600066277727CB0197F908950E94990C08F40F
:101A70008FEF08959B01AC0160E070E080E89FE388
:101A80000C94BB0B0E94550D0C94FB0C0E94ED0CAA
:101A900038F00E94F40C20F0952311F00C94BD0C4A
:101AA0000C94C30C11240C942F0D0E940C0D70F398
:101AB000959FC1F3950F50E0551F629FF001729FF3
:101AC000BB27F00DB11D639FAA27F00DB11DAA1F02
:101AD000649F6627B00DA11D661F829F2227B00D4F
:101AE000A11D621F739FB00DA11D621F839FA00DDA
:101AF000611D221F749F3327A00D611D231F849F2A
:101B0000600D211D822F762F6A2F11249F57504080
:101B10009AF0F1F088234AF0EE0FFF1FBB1F661FFB
:101B2000771F881F91505040A9F79E3F510580F0C4
:101B30000C94BD0C0C942F0D5F3FE4F3983ED4F34E
:101B4000869577956795B795F795E7959F5FC1F768
:101B5000FE2B880F911D9695879597F9089519F496
:101B600016F40C94C30C0C94F90D0E94140DB8F3E8
:101B70009923C9F3B6F39F57550B87FF0E94070EB1
:101B80000024A0E640EA900180585695979528F4E5
:101B9000805C660F771F881F20F0261737074807DD
:101BA00030F4621B730B840B202931294A2BA69534
:101BB00017940794202531254A2758F7660F771F79
:101BC000881F20F026173707480730F4620B730B85
:101BD000840B200D311D411DA09581F7B901842F83
:101BE0009158880F9695879508959B01AC010C94A8
:101BF000420D9F3F31F0915020F48795779567957E
:101C0000B795880F911D9695879597F908959150EE
:101C10005040660F771F881FD2F70895A1E21A2E51
:101C2000AA1BBB1BFD010DC0AA1FBB1FEE1FFF1F80
:101C3000A217B307E407F50720F0A21BB30BE40BD0
:101C4000F50B661F771F881F991F1A9469F7609517
:101C50007095809590959B01AC01BD01CF010895D1
:101C6000EF920F931F93CF93DF93E80147FD02C0DC
:101C700034E001C034E1042E000C550B57FF03C0C3
:101C8000519541955109E32E022F242FAE010E9458
:101C90005310CE01DF91CF911F910F91EF900895D6
:101CA000AEE0B0E0E6E5FEE00C9443130D891E893A
:101CB00086E08C831A8309838FEF9FE79E838D8351
:101CC000AE01475E5F4F6F89788DCE0101960E940D
:101CD000720EEF81F885E00FF11F10822E96E4E07E
:101CE0000C945F13ABE0B0E0E8E7FEE00C94351332
:101CF0006C017B018A01FC0117821682838181FFBE
:101D0000CCC1CE0101963C01F6019381F70193FD10
:101D1000859193FF81917F01882309F4BAC18532AF
:101D200039F493FD859193FF81917F01853229F4E8
:101D3000B60190E00E949B12E7CF912C212C312C10
:101D4000FFE1F315D8F08B3279F038F4803279F076
:101D50008332A1F4232D20611DC08D3261F08033C8
:101D600069F4232D216016C0832D8260382EE32D67
:101D7000E4603E2E2AC0F32DF8601DC037FC2DC054
:101D800020ED280F2A3040F08E32B9F436FC81C1A4
:101D9000232D2064322E19C036FE06C08AE0989E9C
:101DA000200D1124922E11C0EAE02E9E200D112448
:101DB000222EF32DF0623F2E08C08C3621F4832DA5
:101DC0008068382E02C0883641F4F70193FD859172
:101DD00093FF81917F018111B3CF982F9F7D9554FF
:101DE000933028F40C5F1F4F9FE399830DC0833617
:101DF00031F0833771F0833509F059C021C0F80103
:101E0000808189830E5F1F4F88248394912C530116
:101E100013C02801F2E04F0E511CF801A080B180E0
:101E200036FE03C0692D70E002C06FEF7FEFC50181
:101E30000E9490124C018201F32DFF773F2E16C0B5
:101E4000280122E0420E511CF801A080B18036FE2C
:101E500003C0692D70E002C06FEF7FEFC5010E94E3
:101E600085124C01F32DF0683F2E820133FC1BC01C
:101E7000822D90E088169906B0F4B60180E290E0D9
:101E80000E949B122A94F4CFF50137FC859137FE0E
:101E900081915F01B60190E00E949B1221102A946B
:101EA00021E0821A91088114910471F7E8C0843608
:101EB00011F0893641F5F80137FE07C06081718164
:101EC000828193810C5F1F4F08C060817181072E52
:101ED000000C880B990B0E5F1F4FF32DFF763F2EE2
:101EE00097FF09C090958095709561957F4F8F4FB2
:101EF0009F4FF0683F2E2AE030E0A3010E94D712E6
:101F0000882E861845C0853731F4232D2F7EB22EBA
:101F10002AE030E025C0932D997FB92E8F36C1F08D
:101F200018F4883579F0B5C0803719F0883721F07A
:101F3000B0C0E92FE061BE2EB4FE0DC0FB2DF460F1
:101F4000BF2E09C034FE0AC0292F2660B22E06C05B
:101F500028E030E005C020E130E002C020E132E0BE
:101F6000F801B7FE07C060817181828193810C5FA7
:101F70001F4F06C06081718180E090E00E5F1F4FAF
:101F8000A3010E94D712882E8618FB2DFF773F2EC3
:101F900036FE0DC0232D2E7FA22E891458F434FE58
:101FA0000BC032FC09C0832D8E7EA82E05C0B82C34
:101FB000A32C03C0B82C01C0B92CA4FE0FC0FE0195
:101FC000E80DF11D8081803321F49A2D997EA92E90
:101FD00009C0A2FE06C0B394B39404C08A2D8678CB
:101FE00009F0B394A3FC11C0A0FE06C0B21488F49B
:101FF000280C922C9B180EC0B21460F4B60180E23B
:1020000090E00E949B12B394F7CFB21418F42B18EF
:1020100002C0982C212CA4FE10C0B60180E390E0F1
:102020000E949B12A2FE17C0A1FC03C088E790E0AB
:1020300002C088E590E0B6010CC08A2D867859F080
:10204000A1FE02C08BE201C080E2A7FC8DE2B601D6
:1020500090E00E949B12891438F4B60180E390E06E
:102060000E949B129A94F7CF8A94F301E80DF11D18
:102070008081B60190E00E949B128110F5CF222052
:1020800009F442CEB60180E290E00E949B122A94AD
:10209000F6CFF6018681978102C08FEF9FEF2B96D6
:1020A000E2E10C945113A9E0B0E0E9E5F0E10C9411
:1020B0003B136A01122FB02E2BE3201720F0FF24D0
:1020C000F394F00E02C02CE3F22E0F2D27E0AE01A8
:1020D0004F5F5F4F0E94AD11BC014981842F897011
:1020E000813031F0E1FC06C0E0FE06C090E205C0A0
:1020F0009DE203C09BE201C090E05E2D507143FF62
:102100003CC0911102C083E001C084E0811718F443
:10211000212F281B01C020E051110BC0F601822F96
:1021200030E2882319F031938150FBCFC20ED11CCD
:1021300020E0992329F0D6019C93F60131966F0196
:10214000C6010396E2FE0AC03EE4D6013C9341E498
:1021500011964C93119712963C9306C03EE6F601F9
:10216000308341E641833283FC01322F40E2332346
:1021700009F442C041933150FACF42FF44C091115B
:1021800002C083E001C084E0811718F4212F281BCE
:1021900001C020E051110BC0F601822F30E28823EC
:1021A00019F031938150FBCFC20ED11C20E099234E
:1021B00029F0D6019C93F60131966F01C601039672
:1021C000E2FE0BC039E4D6013C933EE411963C9309
:1021D000119736E412963C9307C039E6F601308336
:1021E0003EE6318336E63283FC01322F40E2332370
:1021F00019F041933150FBCFFC01E20FF11D108229
:102200008EEF9FEFA6C021E030E0911102C020E0E8
:1022100030E0161617061CF4FB01319602C0E1E00F
:10222000F0E02E0F3F1FBB2021F0EB2DF0E03196A8
:1022300002C0E0E0F0E02E0F3F1FE12FF0E02E178C
:102240003F071CF4121B212F01C020E08E2D887146
:1022500059F4F601822F30E2882319F0319381502E
:10226000FBCFC20ED11C20E0992329F0D6019C930C
:10227000F60131966F0151110BC0F601822F90E3E8
:10228000882319F091938150FBCFC20ED11C20E01E
:102290000F2D060F9A81342F307144FF03C0913304
:1022A00009F40150101624F4093018F008E001C0B8
:1022B00001E0AB0177FF02C040E050E0FB01E41B0E
:1022C000F50BA1E0B0E0AC0FBD1FEA0FFB1F8EE2E3
:1022D000A82E4B01801A91080B2D10E01195019545
:1022E00011094F3FBFEF5B0721F4D601AC92119665
:1022F0006D01641775072CF08416950614F481811E
:1023000001C080E3415051093196D60111967D01FB
:102310004017510724F0D6018C936701E2CF641770
:10232000750739F4963320F4953319F4311101C04F
:1023300081E3F6018083F701822F90E2882319F070
:1023400091938150FBCFF701E20FF11D108280E0E5
:1023500090E02996ECE00C945713283008F027E021
:102360003327DA01990F311D87FD916000966105D1
:10237000710539F432602E5F3D9330E32A95E1F721
:1023800008959F3F30F080387105610509F03C5F8A
:102390003C5F3D93913008F08068911DDF93CF93AF
:1023A0001F930F93FF92EF92192F987F9695E92F25
:1023B00096959695E90FFF27E452FF4F992733270B
:1023C000EE24FF24A701E70105900894079428F460
:1023D000360FE71EF81E491F511D660F771F881F15
:1023E000991F0694A1F70590079428F4E70EF81EAC
:1023F000491F561FC11D770F881F991F661F06941E
:10240000A1F70590079428F4F80E491F561FC71F1F
:10241000D11D880F991F661F771F0694A1F705909D
:10242000079420F4490F561FC71FD81F990F661F26
:10243000771F881F0694A9F784911095177041F0B3
:10244000D695C79557954795F794E7941A95C1F790
:10245000E2E8F0E0689415901591359165919591B9
:1024600005907FE27395E118F10A430B560BC90BF7
:10247000D009C0F7E10CF11E431F561FC91FD01D24
:102480007EF4703311F48A95E6CFE894015030F071
:10249000080F0AF40027021708F4202F2395022FB3
:1024A0007A3328F079E37D932A95E9F710C07D937C
:1024B0002A9589F6069497956795379517951794F9
:1024C000E118F10A430B560BC90BD00998F023957C
:1024D0007E9173957A3308F070E37C932013B8F7FC
:1024E0007E9170617D9330F0839571E37D9370E30D
:1024F0002A95E1F71124EF90FF900F911F91CF9152
:10250000DF91992787FD90950895FC010590615012
:1025100070400110D8F7809590958E0F9F1F0895F9
:10252000FC016150704001900110D8F780959095A2
:102530008E0F9F1F08950F931F93CF93DF93FB017F
:10254000238121FD03C08FEF9FEF2CC022FF16C017
:1025500046815781248135814217530744F4A08175
:10256000B1819D012F5F3F4F318320838C93268162
:1025700037812F5F3F4F3783268314C08B01EC01D7
:10258000FB010084F185E02D0995892BE1F6D80146
:1025900016968D919C911797019617969C938E9302
:1025A0001697CE01DF91CF911F910F910895FA01F7
:1025B000AA27283051F1203181F1E8946F936E7F82
:1025C0006E5F7F4F8F4F9F4FAF4FB1E03ED0B4E073
:1025D0003CD0670F781F891F9A1FA11D680F791FB4
:1025E0008A1F911DA11D6A0F711D811D911DA11DC5
:1025F00020D009F468943F912AE0269F11243019D5
:10260000305D3193DEF6CF010895462F4770405D6F
:102610004193B3E00FD0C9F7F6CF462F4F70405D1E
:102620004A3318F0495D31FD4052419302D0A9F779
:10263000EACFB4E0A6959795879577956795BA9573
:10264000C9F700976105710508959B01AC010A2E39
:1026500006945795479537952795BA95C9F7620F10
:10266000731F841F951FA01D08952F923F924F92B4
:102670005F926F927F928F929F92AF92BF92CF9212
:10268000DF92EF92FF920F931F93CF93DF93CDB71B
:10269000DEB7CA1BDB0B0FB6F894DEBF0FBECDBF93
:1026A00009942A88398848885F846E847D848C8464
:1026B0009B84AA84B984C884DF80EE80FD800C816D
:1026C0001B81AA81B981CE0FD11D0FB6F894DEBF50
:0C26D0000FBECDBFED010895F894FFCFC0
:0626DC0025732F000A0027
:00000001FF
