S019000073656C6642616C616E636564526F626F742E7372656351
S11300000C94BE000C94DB000C94DB000C94DB001D
S11300100C94DB000C94DB000C94DB000C94DB00F0
S11300200C94DB000C94FD050C94DB000C94DB00B9
S11300300C94DB000C94DB000C94DB000C94DB00D0
S11300400C94DB000C94DB000C94DB000C94DB00C0
S11300500C94DB00084AD73B3BCE016E84BCBFFD49
S1130060C12F3D6C74319ABD56833DDA3D00C77F84
S113007011BED9E4BB4C3E916BAAAABE000000801D
S11300803F0000407A10F35A00A0724E1809001085
S1130090A5D4E80000E87648170000E40B540200F9
S11300A000CA9A3B000000E1F50500008096980024
S11300B0000040420F000000A0860100000010274D
S11300C000000000E80300000000640000000000DD
S11300D00A00000000000100000000002C76D8880F
S11300E0DC674F0823DFC1DFAE59E1B1B796E5E322
S11300F0E453C63AE651997696E8E6C28426EB893B
S11301008C9B62ED407C6FFCEFBC9C9F40F2BAA5D7
S11301106FA5F490055A2AF75C936B6CF9676DC16F
S11301201BFCE0E40D47FEF520E6B500D0ED902E73
S11301300300943577050080841E080000204E0AD1
S1130140000000C80C333333330F986E128311410F
S1130150EF8D2114893BE65516CFFEE6DB18D184DA
S11301604B381BF77C1D901DA4BBE4242032847201
S11301705E228100C9F124ECA1E53D2711241FBEB4
S1130180CFE5D8E0DEBFCDBF10E0A0E6B0E0ECE8FC
S1130190F7E202C005900D92A836B107D9F720E026
S11301A0A8E6B0E001C01D92A83EB207E1F70E94A4
S11301B044060C94C4130C94000011B888E480B96C
S11301C0089594EA96BF06B607FEFDCF91B1987FD5
S11301D0903171F483B984E886BF06B607FEFDCF7B
S11301E081B1887F803431F0803231F083E008952A
S11301F080E0089581E0089582E0089584E986BF4F
S113020006B604FCFDCF08951F93CF93DF93C82F48
S1130210D4EA14E8D6BF06B607FEFDCF81B1887FC5
S11302208830C1F7C3B916BF06B607FEFDCF81B14A
S1130230887F883119F00E94FE00ECCFDF91CF91C6
S11302401F91089583B984E886BF06B607FEFDCFE3
S113025081B1887F883221F0803321F082E00895D3
S113026080E0089581E0089584EC86BF06B607FE19
S1130270FDCF83B1089584E886BF06B607FEFDCF9F
S113028083B108952FEF82E597E02150804090409C
S1130290E1F700C0000080ED0E94040189E10E94A2
S11302A0220187E00E9422010E94FE0080ED0E944C
S11302B004018BE60E94220181E00E9422010E9437
S11302C0FE0080ED0E9404018AE10E94220180E088
S11302D00E9422010E94FE0080ED0E9404018BE135
S11302E00E94220188E10E9422010E94FE0080ED0A
S11302F00E9404018CE10E94220180E00E942201FC
S11303000E94FE0080ED0E9404018FE10E94220100
S113031080E00E9422010E94FE0080ED0E94040100
S113032083E20E94220180E00E9422010E94FE00DA
S113033080ED0E9404018DE10E94220180E00E9470
S113034022010E94FE0080ED0E9404018EE10E94C1
S1130350220180E00E9422010E94FE0080ED0E94A2
S1130360040180E20E94220180E00E9422010E9496
S1130370FE0080ED0E94040182E20E94220180E0DE
S11303800E9422010E94FE0080ED0E94040181E28D
S11303900E94220180E00E9422010E94FE0080ED62
S11303A00E94040184E20E94220180E00E94220152
S11303B00E94FE0080ED0E94040186E20E94220158
S11303C080E00E9422010E94FE0080ED0E94040150
S11303D085E20E94220180E00E9422010E94FE0028
S11303E080ED0E94040187E20E94220180E00E94C5
S11303F022010E94FE0080ED0E94040189E20E9415
S1130400220180E00E9422010E94FE0080ED0E94F1
S1130410040188E20E94220180E00E9422010E94DD
S1130420FE0080ED0E9404018AE20E94220180E025
S11304300E9422010E94FE0080ED0E9404018CE2D1
S11304400E94220180E00E9422010E94FE0080EDB1
S11304500E9404018CE20E94220180E00E94220199
S11304600E94FE0080ED0E9404018DE20E942201A0
S113047080E00E9422010E94FE0080ED0E9404019F
S11304808FE20E94220180E00E9422010E94FE006D
S113049080ED0E9404018EE20E94220180E00E940D
S11304A022010E94FE0080ED0E94040180E30E946C
S11304B0220180E00E9422010E94FE0080ED0E9441
S11304C0040182E30E94220180E00E9422010E9432
S11304D0FE0080ED0E94040181E30E94220180E07D
S11304E00E9422010E94FE0080ED0E94040184E328
S11304F00E94220180E00E9422010E94FE0080ED01
S11305000E94040183E30E94220180E00E942201F0
S11305100E94FE0080ED0E94040185E30E942201F6
S113052080E00E9422010E94FE0080ED0E940401EE
S113053087E30E94220180E00E9422010E94FE00C3
S113054080ED0E94040188E30E94220181E00E9460
S113055022010E94FE0080ED0E94040183E60E94B5
S1130560220180E00E9422010E94FE0080ED0E9490
S1130570040184E60E94220180E00E9422010E947C
S1130580FE0080ED0E94040185E60E94220180E0C5
S11305900E9422010E94FE0080ED0E94040186E672
S11305A00E94220180E00E9422010E94FE0080ED50
S11305B00E94040187E60E94220180E00E94220139
S11305C00E94FE0080ED0E94040188E60E94220140
S11305D080E00E9422010E94FE0080ED0E9404013E
S11305E089E60E94220180E00E9422010E94FE000E
S11305F080ED0E9404018AE60E94220180E00E94AC
S113060022010E94FE0080ED0E9404018CE60E94FB
S1130610220180E00E9422010E94FE0080ED0E94DF
S1130620040184E70E94220180E00E9422010C94CC
S1130630FE0080ED0E9404018BE30E94220181ED03
S11306400C94E100CF930E9419030E943401C82F37
S11306500E9434016C2F70E0762F6627682B072EDA
S1130660000C880B990B0E94B60C6093A400709345
S1130670A5008093A6009093A7000E943401C82F80
S11306800E9434016C2F70E0762F6627682B072EAA
S1130690000C880B990B0E94B60C60938000709339
S11306A0810080938200909383000E943401C82FBC
S11306B00E9434016C2F70E0762F6627682B072E7A
S11306C0000C880B990B0E94B60C60936C0070931D
S11306D06D0080936E0090936F000E943401C82FC8
S11306E00E9434016C2F70E0762F6627682B072E4A
S11306F0000C880B990B0E94B60C609378007093E1
S1130700790080937A0090937B000E943401C82F73
S11307100E9434016C2F70E0762F6627682B072E19
S1130720000C880B990B0E94B60C609374007093B4
S1130730750080937600909377000E943401C82F4F
S11307400E9434016C2F70E0762F6627682B072EE9
S1130750000C880B990B0E94B60C6093CC0070932C
S1130760CD008093CE009093CF000E943401C82F17
S11307700E943B016C2F70E0762F6627682B072EB2
S1130780000C880B990B0E94B60C60939C0070932C
S11307909D0080939E0090939F000E94FE0020E0A5
S11307A030E040E858E36091A4007091A500809186
S11307B0A6009091A7000E949A0D6093A4007093E4
S11307C0A5008093A6009093A70020E030E040E8C5
S11307D058E3609180007091810080918200909133
S11307E083000E949A0D609380007093810080932F
S11307F082009093830020E030E040E858E3609169
S11308006C0070916D0080916E0090916F000E9459
S11308109A0D60936C0070936D0080936E009093BA
S11308206F0023E333E343E851E460917400709173
S1130830750080917600909177000E94130C60936C
S1130840740070937500809376009093770023E38F
S113085033E343E851E46091CC007091CD00809182
S1130860CE009091CF000E94130C6093CC00709343
S1130870CD008093CE009093CF0023E333E343E88D
S113088051E460919C0070919D0080919E00909134
S11308909F000E94130C60939C0070939D008093B2
S11308A09E0090939F00CF9108954F925F926F9214
S11308B07F928F929F92AF92BF92CF92DF92EF92EC
S11308C0FF92CF93DF93CDB7DEB762970FB6F8945C
S11308D0DEBF0FBECDBF88EC90E09A8B898B0E945F
S11308E022038090800090908100A0908200B090BC
S11308F083004090A4005090A5006090A6007090E2
S1130900A700C0906C00D0906D00E0906E00F09055
S11309106F00A7019601C701B6010E949A0D6D836D
S11309207E838F839887A3019201C301B2010E9441
S11309309A0D2D813E814F8158850E94730B0E9430
S11309400D0E69837A838B839C839B01AC01C50163
S1130950B4010E94130C0E94DF0B21EE3EE245E637
S113096052E40E949A0D2091B8003091B900409150
S1130970BA005091BB000E94730B69877A878B87FA
S11309809C876093B8007093B9008093BA009093E9
S1130990BB00A5019401C501B4010E949A0D2D81EB
S11309A03E814F8158850E94730B0E940D0E9B015E
S11309B0AC01C301B20190580E94130C0E94DF0BDA
S11309C021EE3EE245E652E40E949A0D2091B000E9
S11309D03091B1004091B2005091B3000E94730B6A
S11309E04B015C016093B0007093B1008093B2003E
S11309F09093B30029813A814B815C81C701B60190
S1130A000E94130C0E94DF0B21EE3EE245E652E405
S1130A100E949A0D20919400309195004091960087
S1130A20509197000E94730B6B017C0160939400BA
S1130A307093950080939600909397002091740092
S1130A403091750040917600509177006091DC0000
S1130A507091DD008091DE009091DF000E94730BA5
S1130A6069837A838B839C836093DC007093DD00BD
S1130A708093DE009093DF002091CC003091CD0074
S1130A804091CE005091CF006091C4007091C50098
S1130A908091C6009091C7000E94730B6D837E8382
S1130AA08F8398876093C4007093C5008093C600B9
S1130AB09093C70020919C0030919D0040919E002E
S1130AC050919F00609190007091910080919200EC
S1130AD0909193000E94730B6D877E878F87988B0C
S1130AE06093900070939100809392009093930090
S1130AF0A989BA891197BA8BA98BAB2B09F0EFCED0
S1130B0020E030E048E453E469857A858B859C8550
S1130B100E94130C6093B8007093B9008093BA00DC
S1130B209093BB0020E030E048E453E4C501B401F5
S1130B300E94130C6093B0007093B1008093B200D4
S1130B409093B30020E030E048E453E4C701B601D9
S1130B500E94130C60939400709395008093960008
S1130B609093970020E030E048E453E469817A816F
S1130B708B819C810E94130C6093DC007093DD00D8
S1130B808093DE009093DF0020E030E048E453E4FB
S1130B906D817E818F8198850E94130C6093C400BF
S1130BA07093C5008093C6009093C70020E030E0A6
S1130BB048E453E46D857E858F8598890E94130CE3
S1130BC060939000709391008093920090939300AF
S1130BD062960FB6F894DEBF0FBECDBFDF91CF9102
S1130BE0FF90EF90DF90CF90BF90AF909F908F9049
S1130BF07F906F905F904F9008951F920F920FB661
S1130C000F9211242F933F934F935F936F937F938E
S1130C108F939F93AF93BF93EF93FF9320E030E0C4
S1130C2040E85FE36091BC007091BD008091BE001C
S1130C309091BF000E94730B6093BC007093BD0041
S1130C408093BE009093BF00FF91EF91BF91AF914D
S1130C509F918F917F916F915F914F913F912F91D0
S1130C600F900FBE0F901F90189587E886B917B89C
S1130C70089587B985E38A95F1F70000369A349B85
S1130C80FECF84B195B10895CF93DF93CDB7DEB78E
S1130C90EC970FB6F894DEBF0FBECDBF8FEF87BBC6
S1130CA00E9435060E94DD0060E07BE480E090E075
S1130CB00E943F0B80E00E94EB0A60E080E00E940B
S1130CC0010B80E00E94240B0E9442010E94550403
S1130CD01E0121E2220E311C0E9422038FE892ECB5
S1130CE0A5EFBCE38093D8009093D900A093DA00D9
S1130CF0B093DB00C0908000D0908100E09082002F
S1130D00F09083004090A4005090A5006090A6004D
S1130D107090A70080906C0090906D00A0906E0081
S1130D20B0906F00A5019401C501B4010E949A0D11
S1130D3069AB7AAB8BAB9CABA3019201C301B2014B
S1130D400E949A0D29A93AA94BA95CA90E94730B88
S1130D500E940D0E6DAB7EAB8FAB98AF9B01AC01C7
S1130D60C701B6010E94130C0E94DF0B21EE3EE284
S1130D7045E652E40E949A0D2091B8003091B900E2
S1130D804091BA005091BB000E94720B69AF7AAFD8
S1130D908BAF9CAF60938400709385008093860032
S1130DA090938700A7019601C701B6010E949A0D8E
S1130DB029A93AA94BA95CA90E94730B0E940D0EA4
S1130DC09B01AC01C301B20190580E94130C0E9414
S1130DD0DF0B21EE3EE245E652E40E949A0D20919B
S1130DE0B0003091B1004091B2005091B3000E9424
S1130DF0720B69AB7AAB8BAB9CAB6093A000709326
S1130E00A1008093A2009093A3002DA93EA94FA90D
S1130E1058ADC501B4010E94130C0E94DF0B21EEF2
S1130E203EE245E652E40E949A0D209194003091EE
S1130E30950040919600509197000E94720B609328
S1130E408C0070938D0080938E0090938F0020917E
S1130E50DC003091DD004091DE005091DF006091B4
S1130E6074007091750080917600909177000E94D3
S1130E70720B2B013C016093740070937500809396
S1130E807600909377002091C4003091C500409182
S1130E90C6005091C7006091CC007091CD00809144
S1130EA0CE009091CF000E94720B4B015C016093C5
S1130EB0CC007093CD008093CE009093CF0020910E
S1130EC09000309191004091920050919300609174
S1130ED09C0070919D0080919E0090919F000E94C3
S1130EE0720B6B017C0160939C0070939D00809356
S1130EF09E0090939F002FE832EC45EF5CE3C30122
S1130F00B2010E949A0D209188003091890040918D
S1130F108A0050918B000E94730B2B013C012FE837
S1130F2032EC45EF5CE3C501B4010E949A0D2091B7
S1130F30E4003091E5004091E6005091E7000E9402
S1130F40730B4B015C012FE832EC45EF5CE3C70106
S1130F50B6010E949A0D9B01AC016091AC007091A6
S1130F60AD008091AE009091AF000E94730B60932E
S1130F70AC007093AD008093AE009093AF002FE867
S1130F8032EC45E75FE3C301B2010E949A0D6B01A5
S1130F907C012AE037ED43E25DE369AD7AAD8BADC8
S1130FA09CAD0E949A0D9B01AC01C701B6010E9441
S1130FB0730B6B017C0160938800709389008093AC
S1130FC08A0090938B002FE832EC45E75FE3C5017C
S1130FD0B4010E949A0D4B015C012AE037ED43E213
S1130FE05DE369A97AA98BA99CA90E949A0D9B012A
S1130FF0AC01C501B4010E94730B6093E4007093CB
S1131000E5008093E6009093E700C092D400D0926C
S1131010D500E092D600F092D7006093D000709390
S1131020D1008093D2009093D3007E019BE2E90E1D
S1131030F11C10E0812F0E943906D7018D939D93F6
S11310407D011F5F1330B1F76BA57CA580E090E0B4
S11310500E94B40C20E030E048E45EE30E949A0D64
S113106069AB7AAB8BAB9CAB6093C8007093C9003F
S11310708093CA009093CB006DA57EA580E090E09C
S11310800E94B40C20E030E048EC5DE30E949A0D2D
S11310904B015C0160937C0070937D0080937E0023
S11310A090937F006FA578A980E090E00E94B40C33
S11310B020E030E048EC5CE30E949A0D69AF7AAF1F
S11310C08BAF9CAF6093B4007093B5008093B6006F
S11310D09093B7008091D0009091D100A091D2005C
S11310E0B091D3008DAB9EABAFABB8AF209168008D
S11310F03091690040916A0050916B00BC01CD01B0
S11311000E94720B6B017C016093C0007093C1005C
S11311108093C2009093C30020919800309199006D
S113112040919A0050919B000E94730B2B013C014B
S113113020E030E046E953E40E948D0D18164CF08F
S1131140409298005092990060929A0070929B008D
S11311500CC080E090E0A6E9B3E4809398009093FB
S11311609900A0939A00B0939B0020E030E046E9F8
S113117053EC609198007091990080919A0090913D
S11311809B000E940E0C87FF0CC080E090E0A6E953
S1131190B3EC8093980090939900A0939A00B09335
S11311A09B002091A8003091A9004091AA00509181
S11311B0AB00C701B6010E94720B29AD3AAD4BAD2D
S11311C05CAD0E949A0D2091D8003091D9004091D5
S11311D0DA005091DB000E94130C2B013C0120919A
S11311E098003091990040919A0050919B00C5015C
S11311F0B4010E949A0D4B015C01A701960169A9F3
S11312007AA98BA99CA90E949A0D9B01AC01C501E6
S1131210B4010E94730B9B01AC01C301B2010E9493
S1131220730B2DEC3CEC4CE45DE30E949A0D60934F
S11312307000709371008093720090937300C09259
S1131240A800D092A900E092AA00F092AB0020E09E
S113125030E048E452E46DA97EA98FA998AD0E94BC
S11312608D0D181664F020E030E048E452EC6DA9CE
S11312707EA98FA998AD0E940E0C87FF08C010921A
S11312807000109271001092720010927300C0905E
S1131290D400D090D500E090D600F090D70020E0A4
S11312A030E048E452E4C701B6010E948D0D1816DF
S11312B054F020E030E048E452ECC701B6010E944B
S11312C00E0C87FF08C010927000109271001092EB
S11312D072001092730020E030E0A9016091700068
S11312E07091710080917200909173000E948D0D35
S11312F087FD0BC0C19AC298C0907000D090710055
S1131300E0907200F09073000EC0C198C29AC09031
S11313107000D0907100E0907200F0907300F7FAC2
S1131320F094F7F8F09420E030E048EC52E4C70180
S1131330B6010E948D0D18164CF0C092E000D092B8
S1131340E100E092E200F092E3000CC080E090E063
S1131350A8ECB2E48093E0009093E100A093E20053
S1131360B093E3006091E0007091E1008091E200AD
S11313709091E3000E94850C80E00E94010B609133
S1131380D4007091D5008091D6009091D70081014E
S113139022E043E00E94880E3F922F92A0E6B0E044
S11313A0BF93AF9381E090E08C0F9D1F9F938F9329
S11313B00E94A80ECE0101960E94660B6091D00097
S11313C07091D1008091D2009091D30022E043E04B
S11313D00E94880E3F922F92A0E6B0E0BF93AF9395
S11313E081E090E08C0F9D1F9F938F930E94A80E25
S11313F0CE0101960E94660B8091C8009091C900AD
S1131400A091CA00B091CB008D8B9E8BAF8BB88F0F
S113141080917C0090917D00A0917E00B0917F002E
S1131420898F9A8FAB8FBC8F8091B4009091B50057
S1131430A091B600B091B7008D8F9E8FAF8FB8A3E7
S11314407E0195E1E90EF11C0FB6F894DEBF0FBEE4
S1131450CDBFF70161917191819191917F018101DA
S113146022E043E00E94880E3F922F9280E690E0B3
S11314709F938F93E1E0F0E0EC0FFD1FFF93EF9358
S11314800E94A80ECE0101960E94660B0F900F9049
S11314900F900F900F900F90E214F304D1F6609127
S11314A0C0007091C1008091C2009091C30022E0FD
S11314B043E00E94880E3F922F9280E690E09F9333
S11314C08F93E1E0F0E0EC0FFD1FFF93EF930E9498
S11314D0A80ECE0101960E94660B6091980070914F
S11314E0990080919A0090919B0022E043E00E9431
S11314F0880E3F922F9280E690E09F938F93E1E0D5
S1131500F0E0EC0FFD1FFF93EF930E94A80ECE01B5
S113151001960E94660B6091700070917100809139
S113152072009091730022E043E00E94880E3F9283
S11315302F9280E690E09F938F93E1E0F0E0EC0F30
S1131540FD1FFF93EF930E94A80ECE0101960E9407
S1131550660B6091E0007091E1008091E20090914F
S1131560E30022E043E00E94880E3F922F9280E63F
S113157090E09F938F93E1E0F0E0EC0FFD1FFF9369
S1131580EF930E94A80ECE0101960E94660B609113
S1131590D8007091D9008091DA009091DB0022E0AC
S11315A043E00E94880E3F922F9284E690E09F933E
S11315B08F93E1E0F0E0EC0FFD1FFF93EF930E94A7
S11315C0A80ECE0101960E94660B0FB6F894DEBFFA
S11315D00FBECDBF81CB813049F028F0823051F06D
S11315E0833061F0089512BEBB9A08951DBC1CBCE3
S11315F08D9A08951DBC1CBC8C9A089514BC8F9AB6
S11316000895CF93C82F70E080E090E00E94B60C5C
S113161023E333E343E250E40E949A0D0E94850CD5
S1131620C13049F030F0C23051F0C33059F463BDD9
S113163009C06CBF07C070E07BBD6ABD03C070E029
S113164079BD68BDCF910895813049F028F082308A
S113165061F0833089F0089583E683BF08958FB5E0
S113166080688FBD8FB5816002C08FB580628FBDE9
S11316708EB581608EBD089581E685BD08952AB139
S113168028612AB920B5266820BD9B01AC0184E0FD
S1131690220F331F441F551F8A95D1F760E074E26F
S11316A084EF90E00E94660E8FEF820F89B9DA0111
S11316B0C9010197A109B109892F9A2FAB2FBB2723
S11316C080BD08958CB95D9BFECF0895CF93DF93C1
S11316D0EC018991882319F00E94620BFACFDF9103
S11316E0CF9108955058BB27AA270E948A0B0C94C7
S11316F0530D0E94450D38F00E944C0D20F039F432
S11317009F3F19F426F40C941B0D0EF4E095E7FBAF
S11317100C94150DE92F0E94640D58F3BA17620753
S113172073078407950720F079F4A6F50C94860DC9
S11317300EF4E0950B2EBA2FA02D0B01B9019001E8
S11317400C01CA01A0011124FF27591B99F0593F2C
S113175050F4503E68F11A16F040A22F232F342F74
S11317604427585FF3CF469537952795A795F040C2
S11317705395C9F77EF41F16BA0B620B730B840BD7
S1131780BAF09150A1F0FF0FBB1F661F771F881F8F
S1131790C2F70EC0BA0F621F731F841F48F48795E7
S11317A077956795B795F7959E3F08F0B0CF9395D9
S11317B0880F08F09927EE0F979587950895DF9382
S11317C0DD27B92FBF7740E85FE3161617064807F1
S11317D05B0718F4D92F0E94920D9F938F937F93E8
S11317E06F930E944D0EE4E5F0E00E941E0D0E94EE
S11317F0530D2F913F914F915F910E94AD0DDD23C9
S113180051F09058A2EA2AED3FE049EC5FE3D0782A
S11318105D270E948A0BDF910C94530D0E94F10CFA
S113182008F481E008950E94270C0C94530D0E9443
S11318304C0D58F00E94450D40F029F45F3F29F00B
S11318400C94150D51110C94870D0C941B0D0E94D2
S1131850640D68F39923B1F3552391F3951B550B4C
S1131860BB27AA2762177307840738F09F5F5F4F6F
S1131870220F331F441FAA1FA9F335D00E2E3AF0AE
S1131880E0E832D091505040E695001CCAF72BD0C6
S1131890FE2F29D0660F771F881FBB1F2617370717
S11318A04807AB07B0E809F0BB0B802DBF01FF2749
S11318B093585F4F3AF09E3F510578F00C94150D04
S11318C00C94870D5F3FE4F3983ED4F386957795A7
S11318D06795B795F7959F5FC9F7880F911D969502
S11318E0879597F90895E1E0660F771F881FBB1F5E
S11318F0621773078407BA0720F0621B730B840B0B
S1131900BA0BEE1F88F7E09508950E946C0D88F0DD
S11319109F5798F0B92F9927B751B0F0E1F0660FAF
S1131920771F881F991F1AF0BA95C9F714C0B130F0
S113193091F00E94860DB1E008950C94860D672FF6
S1131940782F8827B85F39F0B93FCCF3869577951F
S11319506795B395D9F73EF4909580957095619508
S11319607F4F8F4F9F4F0895E89409C097FB3EF433
S113197090958095709561957F4F8F4F9F4F9923D8
S1131980A9F0F92F96E9BB279395F6958795779556
S11319906795B795F111F8CFFAF4BB0F11F460FF16
S11319A01BC06F5F7F4F8F4F9F4F16C0882311F06E
S11319B096E911C0772321F09EE8872F762F05C082
S11319C0662371F096E8862F70E060E02AF09A951D
S11319D0660F771F881FDAF7880F9695879597F912
S11319E00895990F0008550FAA0BE0E8FEEF1616AC
S11319F01706E807F907C0F012161306E407F507FF
S1131A0098F0621B730B840B950B39F40A2661F072
S1131A10232B242B252B21F408950A2609F4A14015
S1131A20A6958FEF811D811D089597F99F6780E822
S1131A3070E060E008959FEF80EC0895DF93CF930A
S1131A401F930F93FF92EF92DF927B018C016894B6
S1131A5006C0DA2EEF010E94AD0DFE01E894A591B7
S1131A602591359145915591A6F3EF010E948A0B7A
S1131A70FE019701A801DA9469F7DF90EF90FF90D7
S1131A800F911F91CF91DF91089500240A941616A7
S1131A90170618060906089500240A941216130658
S1131AA0140605060895092E0394000C11F48823E6
S1131AB052F0BB0F40F4BF2B11F460FF04C06F5F02
S1131AC07F4F8F4F9F4F089557FD9058440F551FD8
S1131AD059F05F3F71F04795880F97FB991F61F0AC
S1131AE09F3F79F087950895121613061406551F23
S1131AF0F2CF4695F1DF08C0161617061806991F8F
S1131B00F1CF86957105610508940895E894BB2783
S1131B1066277727CB0197F908950E94F10C08F402
S1131B208FEF08959B01AC0160E070E080E89FE3D3
S1131B300C94130C0E94AD0D0C94530D0E94450D92
S1131B4038F00E944C0D20F0952311F00C94150DE3
S1131B500C941B0D11240C94870D0E94640D70F3DA
S1131B60959FC1F3950F50E0551F629FF001729F3E
S1131B70BB27F00DB11D639FAA27F00DB11DAA1F4D
S1131B80649F6627B00DA11D661F829F2227B00D9A
S1131B90A11D621F739FB00DA11D621F839FA00D25
S1131BA0611D221F749F3327A00D611D231F849F75
S1131BB0600D211D822F762F6A2F11249F575040CC
S1131BC09AF0F1F088234AF0EE0FFF1FBB1F661F47
S1131BD0771F881F91505040A9F79E3F510580F010
S1131BE00C94150D0C94870D5F3FE4F3983ED4F3E9
S1131BF0869577956795B795F795E7959F5FC1F7B4
S1131C00FE2B880F911D9695879597F9089519F4E1
S1131C1016F40C941B0D0C94510E0E946C0DB8F329
S1131C209923C9F3B6F39F57550B87FF0E945F0EA4
S1131C300024A0E640EA900180585695979528F430
S1131C40805C660F771F881F20F026173707480728
S1131C5030F4621B730B840B202931294A2BA6957F
S1131C6017940794202531254A2758F7660F771FC4
S1131C70881F20F026173707480730F4620B730BD0
S1131C80840B200D311D411DA09581F7B901842FCE
S1131C909158880F9695879508959B01AC010C94F3
S1131CA09A0D9F3F31F0915020F487957795679571
S1131CB0B795880F911D9695879597F9089591503A
S1131CC05040660F771F881FD2F70895A1E21A2E9D
S1131CD0AA1BBB1BFD010DC0AA1FBB1FEE1FFF1FCC
S1131CE0A217B307E407F50720F0A21BB30BE40B1C
S1131CF0F50B661F771F881F991F1A9469F7609563
S1131D007095809590959B01AC01BD01CF0108951C
S1131D10EF920F931F93CF93DF93E80147FD02C027
S1131D2034E001C034E1042E000C550B57FF03C00E
S1131D30519541955109E32E022F242FAE010E94A3
S1131D40AB10CE01DF91CF911F910F91EF900895C9
S1131D50AEE0B0E0EEEAFEE00C949B130D891E8920
S1131D6086E08C831A8309838FEF9FE79E838D839C
S1131D70AE01475E5F4F6F89788DCE0101960E9458
S1131D80CA0EEF81F885E00FF11F10822E96E4E071
S1131D900C94B713ABE0B0E0E0EDFEE00C948D13CF
S1131DA06C017B018A01FC0117821682838181FF09
S1131DB0CCC1CE0101963C01F6019381F70193FD5C
S1131DC0859193FF81917F01882309F4BAC18532FB
S1131DD039F493FD859193FF81917F01853229F434
S1131DE0B60190E00E94F312E7CF912C212C312C04
S1131DF0FFE1F315D8F08B3279F038F4803279F0C2
S1131E008332A1F4232D20611DC08D3261F0803313
S1131E1069F4232D216016C0832D8260382EE32DB2
S1131E20E4603E2E2AC0F32DF8601DC037FC2DC09F
S1131E3020ED280F2A3040F08E32B9F436FC81C1EF
S1131E40232D2064322E19C036FE06C08AE0989EE7
S1131E50200D1124922E11C0EAE02E9E200D112493
S1131E60222EF32DF0623F2E08C08C3621F4832DF0
S1131E708068382E02C0883641F4F70193FD8591BD
S1131E8093FF81917F018111B3CF982F9F7D95544A
S1131E90933028F40C5F1F4F9FE399830DC0833662
S1131EA031F0833771F0833509F059C021C0F8014E
S1131EB0808189830E5F1F4F88248394912C530162
S1131EC013C02801F2E04F0E511CF801A080B1802C
S1131ED036FE03C0692D70E002C06FEF7FEFC501CD
S1131EE00E94E8124C018201F32DFF773F2E16C0A9
S1131EF0280122E0420E511CF801A080B18036FE78
S1131F0003C0692D70E002C06FEF7FEFC5010E942E
S1131F10DD124C01F32DF0683F2E820133FC1BC00F
S1131F20822D90E088169906B0F4B60180E290E024
S1131F300E94F3122A94F4CFF50137FC859137FE01
S1131F4081915F01B60190E00E94F31221102A945E
S1131F5021E0821A91088114910471F7E8C0843653
S1131F6011F0893641F5F80137FE07C060817181AF
S1131F70828193810C5F1F4F08C060817181072E9D
S1131F80000C880B990B0E5F1F4FF32DFF763F2E2D
S1131F9097FF09C090958095709561957F4F8F4FFD
S1131FA09F4FF0683F2E2AE030E0A3010E942F13D8
S1131FB0882E861845C0853731F4232D2F7EB22E06
S1131FC02AE030E025C0932D997FB92E8F36C1F0D9
S1131FD018F4883579F0B5C0803719F0883721F0C6
S1131FE0B0C0E92FE061BE2EB4FE0DC0FB2DF4603D
S1131FF0BF2E09C034FE0AC0292F2660B22E06C0A7
S113200028E030E005C020E130E002C020E132E009
S1132010F801B7FE07C060817181828193810C5FF2
S11320201F4F06C06081718180E090E00E5F1F4FFA
S1132030A3010E942F13882E8618FB2DFF773F2EB5
S113204036FE0DC0232D2E7FA22E891458F434FEA3
S11320500BC032FC09C0832D8E7EA82E05C0B82C7F
S1132060A32C03C0B82C01C0B92CA4FE0FC0FE01E0
S1132070E80DF11D8081803321F49A2D997EA92EDB
S113208009C0A2FE06C0B394B39404C08A2D867816
S113209009F0B394A3FC11C0A0FE06C0B21488F4E6
S11320A0280C922C9B180EC0B21460F4B60180E286
S11320B090E00E94F312B394F7CFB21418F42B18E3
S11320C002C0982C212CA4FE10C0B60180E390E03D
S11320D00E94F312A2FE17C0A1FC03C088E790E09F
S11320E002C088E590E0B6010CC08A2D867859F0CC
S11320F0A1FE02C08BE201C080E2A7FC8DE2B60122
S113210090E00E94F312891438F4B60180E390E061
S11321100E94F3129A94F7CF8A94F301E80DF11D0B
S11321208081B60190E00E94F3128110F5CF222045
S113213009F442CEB60180E290E00E94F3122A94A0
S1132140F6CFF6018681978102C08FEF9FEF2B9621
S1132150E2E10C94A913A9E0B0E0E1EBF0E10C9406
S113216093136A01122FB02E2BE3201720F0FF24C3
S1132170F394F00E02C02CE3F22E0F2D27E0AE01F3
S11321804F5F5F4F0E940512BC014981842F897003
S1132190813031F0E1FC06C0E0FE06C090E205C0EB
S11321A09DE203C09BE201C090E05E2D507143FFAD
S11321B03CC0911102C083E001C084E0811718F48F
S11321C0212F281B01C020E051110BC0F601822FE2
S11321D030E2882319F031938150FBCFC20ED11C19
S11321E020E0992329F0D6019C93F60131966F01E2
S11321F0C6010396E2FE0AC03EE4D6013C9341E4E4
S113220011964C93119712963C9306C03EE6F60144
S1132210308341E641833283FC01322F40E2332391
S113222009F442C041933150FACF42FF44C09111A6
S113223002C083E001C084E0811718F4212F281B19
S113224001C020E051110BC0F601822F30E2882337
S113225019F031938150FBCFC20ED11C20E0992399
S113226029F0D6019C93F60131966F01C6010396BD
S1132270E2FE0BC039E4D6013C933EE411963C9354
S1132280119736E412963C9307C039E6F601308381
S11322903EE6318336E63283FC01322F40E23323BB
S11322A019F041933150FBCFFC01E20FF11D108274
S11322B08EEF9FEFA6C021E030E0911102C020E034
S11322C030E0161617061CF4FB01319602C0E1E05B
S11322D0F0E02E0F3F1FBB2021F0EB2DF0E03196F4
S11322E002C0E0E0F0E02E0F3F1FE12FF0E02E17D8
S11322F03F071CF4121B212F01C020E08E2D887192
S113230059F4F601822F30E2882319F03193815079
S1132310FBCFC20ED11C20E0992329F0D6019C9357
S1132320F60131966F0151110BC0F601822F90E333
S1132330882319F091938150FBCFC20ED11C20E069
S11323400F2D060F9A81342F307144FF03C091334F
S113235009F40150101624F4093018F008E001C003
S113236001E0AB0177FF02C040E050E0FB01E41B59
S1132370F50BA1E0B0E0AC0FBD1FEA0FFB1F8EE22E
S1132380A82E4B01801A91080B2D10E01195019590
S113239011094F3FBFEF5B0721F4D601AC921196B0
S11323A06D01641775072CF08416950614F4818169
S11323B001C080E3415051093196D60111967D0147
S11323C04017510724F0D6018C936701E2CF6417BC
S11323D0750739F4963320F4953319F4311101C09B
S11323E081E3F6018083F701822F90E2882319F0BC
S11323F091938150FBCFF701E20FF11D108280E031
S113240090E02996ECE00C94AF13283008F027E014
S11324103327DA01990F311D87FD9160009661051C
S1132420710539F432602E5F3D9330E32A95E1F76C
S113243008959F3F30F080387105610509F03C5FD5
S11324403C5F3D93913008F08068911DDF93CF93FA
S11324501F930F93FF92EF92192F987F9695E92F70
S113246096959695E90FFF27E452FF4F9927332756
S1132470EE24FF24A701E70105900894079428F4AB
S1132480360FE71EF81E491F511D660F771F881F60
S1132490991F0694A1F70590079428F4E70EF81EF7
S11324A0491F561FC11D770F881F991F661F069469
S11324B0A1F70590079428F4F80E491F561FC71F6B
S11324C0D11D880F991F661F771F0694A1F70590E9
S11324D0079420F4490F561FC71FD81F990F661F72
S11324E0771F881F0694A9F784911095177041F0FF
S11324F0D695C79557954795F794E7941A95C1F7DC
S1132500E2E8F0E068941590159135916591959104
S113251005907FE27395E118F10A430B560BC90B42
S1132520D009C0F7E10CF11E431F561FC91FD01D6F
S11325307EF4703311F48A95E6CFE894015030F0BC
S1132540080F0AF40027021708F4202F2395022FFE
S11325507A3328F079E37D932A95E9F710C07D93C7
S11325602A9589F606949795679537951795179444
S1132570E118F10A430B560BC90BD00998F02395C7
S11325807E9173957A3308F070E37C932013B8F747
S11325907E9170617D9330F0839571E37D9370E358
S11325A02A95E1F71124EF90FF900F911F91CF919D
S11325B0DF91992787FD90950895FC01059061505E
S11325C070400110D8F7809590958E0F9F1F089545
S11325D0FC016150704001900110D8F780959095EE
S11325E08E0F9F1F08950F931F93CF93DF93FB01CB
S11325F0238121FD03C08FEF9FEF2CC022FF16C063
S113260046815781248135814217530744F4A081C0
S1132610B1819D012F5F3F4F318320838C932681AD
S113262037812F5F3F4F3783268314C08B01EC0122
S1132630FB010084F185E02D0995892BE1F6D80191
S113264016968D919C911797019617969C938E934D
S11326501697CE01DF91CF911F910F910895FA0142
S1132660AA27283051F1203181F1E8946F936E7FCD
S11326706E5F7F4F8F4F9F4FAF4FB1E03ED0B4E0BE
S11326803CD0670F781F891F9A1FA11D680F791FFF
S11326908A1F911DA11D6A0F711D811D911DA11D10
S11326A020D009F468943F912AE0269F1124301920
S11326B0305D3193DEF6CF010895462F4770405DBB
S11326C04193B3E00FD0C9F7F6CF462F4F70405D6A
S11326D04A3318F0495D31FD4052419302D0A9F7C5
S11326E0EACFB4E0A6959795879577956795BA95BF
S11326F0C9F700976105710508959B01AC010A2E85
S113270006945795479537952795BA95C9F7620F5B
S1132710731F841F951FA01D08952F923F924F92FF
S11327205F926F927F928F929F92AF92BF92CF925D
S1132730DF92EF92FF920F931F93CF93DF93CDB766
S1132740DEB7CA1BDB0B0FB6F894DEBF0FBECDBFDE
S113275009942A88398848885F846E847D848C84AF
S11327609B84AA84B984C884DF80EE80FD800C81B8
S11327701B81AA81B981CE0FD11D0FB6F894DEBF9B
S10F27800FBECDBFED010895F894FFCF0B
S10B278C25732F0025730A00D8
S9030000FC
