S019000073656C6642616C616E636564526F626F742E7372656351
S11300000C94BE000C94DB000C94DB000C94DB001D
S11300100C94DB000C94DB000C94DB000C94DB00F0
S11300200C94DB000C9450060C94DB000C94DB0065
S11300300C94DB000C94DB000C94DB000C94DB00D0
S11300400C94DB000C94DB000C94DB000C94DB00C0
S11300500C94DB00084AD73B3BCE016E84BCBFFD49
S1130060C12F3D6C74319ABD56833DDA3D00C77F84
S113007011BED9E4BB4C3E916BAAAABE000000801D
S11300803F0000407A10F35A00A0724E1809001085
S1130090A5D4E80000E87648170000E40B540200F9
S11300A000CA9A3B000000E1F50500008096980024
S11300B0000040420F000000A0860100000010274D
S11300C000000000E80300000000640000000000DD
S11300D00A00000000000100000000002C76D8880F
S11300E0DC674F0823DFC1DFAE59E1B1B796E5E322
S11300F0E453C63AE651997696E8E6C28426EB893B
S11301008C9B62ED407C6FFCEFBC9C9F40F2BAA5D7
S11301106FA5F490055A2AF75C936B6CF9676DC16F
S11301201BFCE0E40D47FEF520E6B500D0ED902E73
S11301300300943577050080841E080000204E0AD1
S1130140000000C80C333333330F986E128311410F
S1130150EF8D2114893BE65516CFFEE6DB18D184DA
S11301604B381BF77C1D901DA4BBE4242032847201
S11301705E228100C9F124ECA1E53D2711241FBEB4
S1130180CFE5D8E0DEBFCDBF10E0A0E6B0E0E6E109
S1130190F7E202C005900D92A836B107D9F720E026
S11301A0A8E6B0E001C01D92A93EB207E1F70E94A3
S11301B097060C9489130C94000011B888E480B954
S11301C0089594EA96BF06B607FEFDCF91B1987FD5
S11301D0903171F483B984E886BF06B607FEFDCF7B
S11301E081B1887F803431F0803231F083E008952A
S11301F080E0089581E0089582E0089584E986BF4F
S113020006B604FCFDCF08951F93CF93DF93C82F48
S1130210D4EA14E8D6BF06B607FEFDCF81B1887FC5
S11302208830C1F7C3B916BF06B607FEFDCF81B14A
S1130230887F883119F00E94FE00ECCFDF91CF91C6
S11302401F91089583B984E886BF06B607FEFDCFE3
S113025081B1887F883221F0803321F082E00895D3
S113026080E0089581E0089584EC86BF06B607FE19
S1130270FDCF83B1089584E886BF06B607FEFDCF9F
S113028083B1089512BE14BCBB9A8F9A08958F92BD
S11302909F92AF92BF92CF92DF92EF92FF9223E3AD
S11302A033E343E250E40E945F0D6B017C0121E7DC
S11302B03DE34AE85FE30E945F0D4B015C0120E0EF
S11302C030E048E453E40E94520D181634F4812CB3
S11302D0912C98E4A92E93E4B92E20E030E048E470
S11302E053E4C701B6010E94520D181634F4C12C10
S11302F0D12C88E4E82E83E4F82EC501B4010E94D1
S11303004A0C6CBFC701B6010E944A0C63BDFF9042
S1130310EF90DF90CF90BF90AF909F908F90089513
S113032083E683BF84E685BD08952FEF82E597E0D9
S1130330215080409040E1F700C0000080ED0E9411
S1130340040189E10E94220187E00E9422010E94A7
S1130350FE0080ED0E9404018BE60E94220181E0F0
S11303600E9422010E94FE0080ED0E9404018AE1A5
S11303700E94220180E00E9422010E94FE0080ED82
S11303800E9404018BE10E94220188E10E94220163
S11303900E94FE0080ED0E9404018CE10E94220173
S11303A080E00E9422010E94FE0080ED0E94040170
S11303B08FE10E94220180E00E9422010E94FE003F
S11303C080ED0E94040183E20E94220180E00E94E9
S11303D022010E94FE0080ED0E9404018DE10E9432
S11303E0220180E00E9422010E94FE0080ED0E9412
S11303F004018EE10E94220180E00E9422010E94F9
S1130400FE0080ED0E94040180E20E94220180E04F
S11304100E9422010E94FE0080ED0E94040182E2FB
S11304200E94220180E00E9422010E94FE0080EDD1
S11304300E94040181E20E94220180E00E942201C4
S11304400E94FE0080ED0E94040184E20E942201C9
S113045080E00E9422010E94FE0080ED0E940401BF
S113046086E20E94220180E00E9422010E94FE0096
S113047080ED0E94040185E20E94220180E00E9436
S113048022010E94FE0080ED0E94040187E20E9486
S1130490220180E00E9422010E94FE0080ED0E9461
S11304A0040189E20E94220180E00E9422010E944C
S11304B0FE0080ED0E94040188E20E94220180E097
S11304C00E9422010E94FE0080ED0E9404018AE243
S11304D00E94220180E00E9422010E94FE0080ED21
S11304E00E9404018CE20E94220180E00E94220109
S11304F00E94FE0080ED0E9404018CE20E94220111
S113050080E00E9422010E94FE0080ED0E9404010E
S11305108DE20E94220180E00E9422010E94FE00DE
S113052080ED0E9404018FE20E94220180E00E947B
S113053022010E94FE0080ED0E9404018EE20E94CE
S1130540220180E00E9422010E94FE0080ED0E94B0
S1130550040180E30E94220180E00E9422010E94A3
S1130560FE0080ED0E94040182E30E94220180E0EB
S11305700E9422010E94FE0080ED0E94040181E39A
S11305800E94220180E00E9422010E94FE0080ED70
S11305900E94040184E30E94220180E00E9422015F
S11305A00E94FE0080ED0E94040183E30E94220168
S11305B080E00E9422010E94FE0080ED0E9404015E
S11305C085E30E94220180E00E9422010E94FE0035
S11305D080ED0E94040187E30E94220180E00E94D2
S11305E022010E94FE0080ED0E94040188E30E9423
S11305F0220181E00E9422010E94FE0080ED0E94FF
S1130600040183E60E94220180E00E9422010E94EC
S1130610FE0080ED0E94040184E60E94220180E035
S11306200E9422010E94FE0080ED0E94040185E6E2
S11306300E94220180E00E9422010E94FE0080EDBF
S11306400E94040186E60E94220180E00E942201A9
S11306500E94FE0080ED0E94040187E60E942201B0
S113066080E00E9422010E94FE0080ED0E940401AD
S113067088E60E94220180E00E9422010E94FE007E
S113068080ED0E94040189E60E94220180E00E941C
S113069022010E94FE0080ED0E9404018AE60E946D
S11306A0220180E00E9422010E94FE0080ED0E944F
S11306B004018CE60E94220180E00E9422010E9433
S11306C0FE0080ED0E94040184E70E94220180E084
S11306D00E9422010C94FE0080ED0E9404018BE331
S11306E00E94220181ED0C94E100CF930E946C03DF
S11306F00E943401C82F0E9434016C2F70E0762FC1
S11307006627682B072E000C880B990B0E947B0C24
S11307106093A5007093A6008093A7009093A8000F
S11307200E943401C82F0E9434016C2F70E0762F90
S11307306627682B072E000C880B990B0E947B0CF4
S1130740609381007093820080938300909384006F
S11307500E943401C82F0E9434016C2F70E0762F60
S11307606627682B072E000C880B990B0E947B0CC4
S113077060936C0070936D0080936E0090936F0093
S11307800E943401C82F0E9434016C2F70E0762F30
S11307906627682B072E000C880B990B0E947B0C94
S11307A06093790070937A0080937B0090937C002F
S11307B00E943401C82F0E9434016C2F70E0762F00
S11307C06627682B072E000C880B990B0E947B0C64
S11307D0609375007093760080937700909378000F
S11307E00E943401C82F0E9434016C2F70E0762FD0
S11307F06627682B072E000C880B990B0E947B0C34
S11308006093CD007093CE008093CF009093D0007E
S11308100E943401C82F0E943B016C2F70E0762F98
S11308206627682B072E000C880B990B0E947B0C03
S113083060939D0070939E0080939F009093A0000E
S11308400E94FE0020E030E040E858E36091A500FB
S11308507091A6008091A7009091A8000E945F0D5E
S11308606093A5007093A6008093A7009093A800BE
S113087020E030E040E858E360918100709182000C
S113088080918300909184000E945F0D60938100A9
S113089070938200809383009093840020E030E082
S11308A040E858E360916C0070916D0080916E0097
S11308B090916F000E945F0D60936C0070936D00C7
S11308C080936E0090936F0023E333E343E851E495
S11308D06091750070917600809177009091780016
S11308E00E94D80B60937500709376008093770014
S11308F09093780023E333E343E851E46091CD001F
S11309007091CE008091CF009091D0000E94D80BBE
S11309106093CD007093CE008093CF009093D0006D
S113092023E333E343E851E460919D0070919E001A
S113093080919F009091A0000E94D80B60939D002D
S113094070939E0080939F009093A000CF91089590
S11309504F925F926F927F928F929F92AF92BF92CB
S1130960CF92DF92EF92FF92CF93DF93CDB7DEB7B2
S113097062970FB6F894DEBF0FBECDBF88EC90E04F
S11309809A8B898B0E9475038090810090908200DD
S1130990A0908300B09084004090A5005090A600E1
S11309A06090A7007090A800C0906C00D0906D007B
S11309B0E0906E00F0906F00A7019601C701B601A8
S11309C00E945F0D6D837E838F839887A3019201BC
S11309D0C301B2010E945F0D2D813E814F81588574
S11309E00E94380B0E94D20D69837A838B839C8387
S11309F09B01AC01C501B4010E94D80B0E94A40B59
S1130A0021EE3EE245E652E40E945F0D2091B900DA
S1130A103091BA004091BB005091BC000E94380B49
S1130A2069877A878B879C876093B9007093BA0033
S1130A308093BB009093BC00A5019401C501B4014F
S1130A400E945F0D2D813E814F8158850E94380B95
S1130A500E94D20D9B01AC01C301B20190580E94C7
S1130A60D80B0E94A40B21EE3EE245E652E40E941C
S1130A705F0D2091B1003091B2004091B3005091CC
S1130A80B4000E94380B4B015C016093B100709379
S1130A90B2008093B3009093B40029813A814B81D2
S1130AA05C81C701B6010E94D80B0E94A40B21EE01
S1130AB03EE245E652E40E945F0D2091950030919C
S1130AC0960040919700509198000E94380B6B015A
S1130AD07C016093950070939600809397009093A7
S1130AE098002091750030917600409177005091E4
S1130AF078006091DD007091DE008091DF009091BC
S1130B00E0000E94380B69837A838B839C83609313
S1130B10DD007093DE008093DF009093E00020916D
S1130B20CD003091CE004091CF005091D000609123
S1130B30C5007091C6008091C7009091C8000E94C2
S1130B40380B6D837E838F8398876093C500709381
S1130B50C6008093C7009093C80020919D003091F7
S1130B609E0040919F005091A0006091910070916F
S1130B70920080919300909194000E94380B6D87AD
S1130B807E878F87988B60939100709392008093F7
S1130B90930090939400A989BA891197BA8BA98B71
S1130BA0AB2B09F0EFCE20E030E048E453E4698554
S1130BB07A858B859C850E94D80B6093B9007093CD
S1130BC0BA008093BB009093BC0020E030E048E47E
S1130BD053E4C501B4010E94D80B6093B100709333
S1130BE0B2008093B3009093B40020E030E048E476
S1130BF053E4C701B6010E94D80B6093950070932B
S1130C009600809397009093980020E030E048E4A9
S1130C1053E469817A818B819C810E94D80B609313
S1130C20DD007093DE008093DF009093E00020E00D
S1130C3030E048E453E46D817E818F8198850E9481
S1130C40D80B6093C5007093C6008093C70090933F
S1130C50C80020E030E048E453E46D857E858F854C
S1130C6098890E94D80B60939100709392008093AE
S1130C7093009093940062960FB6F894DEBF0FBE73
S1130C80CDBFDF91CF91FF90EF90DF90CF90BF90D9
S1130C90AF909F908F907F906F905F904F9008954A
S1130CA01F920F920FB60F9211242F933F934F93DD
S1130CB05F936F937F938F939F93AF93BF93EF93C0
S1130CC0FF9320E030E040E85FE36091BD00709165
S1130CD0BE008091BF009091C0000E94380B6093C9
S1130CE0BD007093BE008093BF009093C000FF913D
S1130CF0EF91BF91AF919F918F917F916F915F9190
S1130D004F913F912F910F900FBE0F901F90189508
S1130D1087E886B917B8089587B985E38A95F1F706
S1130D200000369A349BFECF84B195B10895CF93D9
S1130D30DF93CDB7DEB7EC970FB6F894DEBF0FBEE6
S1130D40CDBF8FEF87BB0E9488060E94DD0060E064
S1130D507BE480E090E00E94040B0E94420160E08A
S1130D6070E0CB010E9447010E9490010E9495010E
S1130D700E94A8041E0121E2220E311C0E94750368
S1130D808FE892ECA5EFBCE38093D9009093DA004E
S1130D90A093DB00B093DC00C0908100D09082006F
S1130DA0E0908300F09084004090A5005090A6004D
S1130DB06090A7007090A80080906C0090906D00E7
S1130DC0A0906E00B0906F00A5019401C501B4011C
S1130DD00E945F0D69AB7AAB8BAB9CABA301920114
S1130DE0C301B2010E945F0D29A93AA94BA95CA9CC
S1130DF00E94380B0E94D20D6DAB7EAB8FAB98AFC7
S1130E009B01AC01C701B6010E94D80B0E94A40B40
S1130E1021EE3EE245E652E40E945F0D2091B900C6
S1130E203091BA004091BB005091BC000E94370B36
S1130E3069AF7AAF8BAF9CAF6093850070938600E7
S1130E408093870090938800A7019601C701B6019B
S1130E500E945F0D29A93AA94BA95CA90E94380BED
S1130E600E94D20D9B01AC01C301B20190580E94B3
S1130E70D80B0E94A40B21EE3EE245E652E40E9408
S1130E805F0D2091B1003091B2004091B3005091B8
S1130E90B4000E94370B69AB7AAB8BAB9CAB60930D
S1130EA0A1007093A2008093A3009093A4002DA9A5
S1130EB03EA94FA958ADC501B4010E94D80B0E94A8
S1130EC0A40B21EE3EE245E652E40E945F0D209120
S1130ED095003091960040919700509198000E949F
S1130EE0370B60938D0070938E0080938F009093E6
S1130EF090002091DD003091DE004091DF005091A0
S1130F00E000609175007091760080917700909177
S1130F1078000E94370B2B013C016093750070939D
S1130F20760080937700909378002091C5003091EB
S1130F30C6004091C7005091C8006091CD007091E7
S1130F40CE008091CF009091D0000E94370B4B01CE
S1130F505C016093CD007093CE008093CF0090939A
S1130F60D0002091910030919200409193005091D3
S1130F70940060919D0070919E0080919F009091DB
S1130F80A0000E94370B6B017C0160939D0070935D
S1130F909E0080939F009093A0002FE832EC45EFD1
S1130FA05CE3C301B2010E945F0D2091890030917E
S1130FB08A0040918B0050918C000E94380B2B01C9
S1130FC03C012FE832EC45EF5CE3C501B4010E941B
S1130FD05F0D2091E5003091E6004091E7005091CB
S1130FE0E8000E94380B4B015C012FE832EC45EF1E
S1130FF05CE3C701B6010E945F0D9B01AC016091E7
S1131000AD007091AE008091AF009091B0000E944D
S1131010380B6093AD007093AE008093AF00909353
S1131020B0002FE832EC45E75FE3C301B2010E9450
S11310305F0D6B017C012AE037ED43E25DE369ADAE
S11310407AAD8BAD9CAD0E945F0D9B01AC01C701D5
S1131050B6010E94380B6B017C0160938900709388
S11310608A0080938B0090938C002FE832EC45E744
S11310705FE3C501B4010E945F0D4B015C012AE0EE
S113108037ED43E25DE369A97AA98BA99CA90E9483
S11310905F0D9B01AC01C501B4010E94380B609344
S11310A0E5007093E6008093E7009093E800C09217
S11310B0D500D092D600E092D700F092D800609389
S11310C0D1007093D2008093D3009093D4007E011A
S11310D09BE2E90EF11C10E0812F0E948C06D701DF
S11310E08D939D937D011F5F1330B1F76BA57CA594
S11310F080E090E00E94790C20E030E040E25CE384
S11311000E945F0D6DAB7EAB8FAB98AF6093C9004F
S11311107093CA008093CB009093CC006DA57EA5FC
S113112080E090E00E94790C20E030E040E05AE357
S11311300E945F0D4B015C0160937D0070937E0003
S113114080937F00909380006FA578A980E090E061
S11311500E94790C2AE939E949E959E30E945F0DB3
S113116069AB7AAB8BAB9CAB6093B5007093B60064
S11311708093B7009093B800C090D100D090D20073
S1131180E090D300F090D400209168003091690081
S113119040916A0050916B00C701B6010E94370B61
S11311A02B013C016093C1007093C2008093C30083
S11311B09093C40020E030E048E452E4C701B60153
S11311C00E94520D181634F120E030E048E452EC4D
S11311D0C701B6010E94D30B87FD1CC0C090D50087
S11311E0D090D600E090D700F090D80020E030E016
S11311F048E452E4C701B6010E94520D181654F097
S113120020E030E048E452ECC701B6010E94D30B61
S113121087FF04C060E070E0CB01E6C0C090D90055
S1131220D090DA00E090DB00F090DC00A70196019A
S1131230C301B2010E945F0D2091990030919A0080
S113124040919B0050919C000E94380B69AF7AAF8B
S11312508BAF9CAF20E030E046E953E40E94520D8E
S113126018162CF089AD9AADABADBCAD04C080E0CE
S113127090E0A6E9B3E48093990090939A00A09338
S11312809B00B0939C0020E030E046E953EC609171
S1131290990070919A0080919B0090919C000E940B
S11312A0D30B87FF0CC080E090E0A6E9B3EC8093F9
S11312B0990090939A00A0939B00B0939C00209176
S11312C0990030919A0040919B0050919C00C50177
S11312D0B4010E945F0D4B015C01A30192016DA951
S11312E07EA98FA998AD0E945F0D9B01AC01C50139
S11312F0B4010E94380B4B015C012091A90030918C
S1131300AA004091AB005091AC00C301B2010E940D
S1131310370B29A93AA94BA95CA90E945F0DA70123
S113132096010E94D80B9B01AC01C501B4010E9437
S1131330380B6B017C016093700070937100809393
S11313407200909373004092A9005092AA00609298
S1131350AB007092AC0020E030E0A9010E94520D75
S1131360181614F481E001C08FEF8093740020E01C
S113137030E0A901C701B6010E94520D18165CF4B1
S1131380C19AC2988091700090917100A0917200EE
S1131390B09173000BC0C198C29A80917000909173
S11313A07100A0917200B0917300B0588093E10075
S11313B09093E200A093E300B093E40020E030E0D7
S11313C040E251E46091E1007091E2008091E30019
S11313D09091E4000E94380B6093E1007093E20066
S11313E08093E3009093E4000E9447016091D5004C
S11313F07091D6008091D7009091D800810122E0AD
S113140043E00E944D0E3F922F92A0E6B0E0BF93BE
S1131410AF9381E090E08C0F9D1F9F938F930E9468
S11314206D0ECE0101960E942B0B6091D10070913C
S1131430D2008091D3009091D40022E043E00E9436
S11314404D0E3F922F92A0E6B0E0BF93AF9381E0A0
S113145090E08C0F9D1F9F938F930E946D0ECE0181
S113146001960E942B0B8091C9009091CA00A09113
S1131470CB00B091CC008D8B9E8BAF8BB88F8091BD
S11314807D0090917E00A0917F00B0918000898FB3
S11314909A8FAB8FBC8F8091B5009091B600A091CC
S11314A0B700B091B8008D8F9E8FAF8FB8A37E0127
S11314B095E1E90EF11C0FB6F894DEBF0FBECDBF67
S11314C0F70161917191819191917F01810123E0F3
S11314D044E00E944D0E3F922F9280E690E09F934D
S11314E08F93E1E0F0E0EC0FFD1FFF93EF930E9478
S11314F06D0ECE0101960E942B0B0F900F900F9052
S11315000F900F900F902E143F04D1F66091990024
S113151070919A0080919B0090919C0022E043E09E
S11315200E944D0E3F922F9280E690E09F938F93FE
S1131530E1E0F0E0EC0FFD1FFF93EF930E946D0ECE
S1131540CE0101960E942B0B609170007091710086
S1131550809172009091730022E043E00E944D0E4E
S11315603F922F9280E690E09F938F93E1E0F0E02A
S1131570EC0FFD1FFF93EF930E946D0ECE010196B9
S11315800E942B0B6091E1007091E2008091E300D6
S11315909091E40022E043E00E944D0E3F922F928E
S11315A080E690E09F938F93E1E0F0E0EC0FFD1F65
S11315B0FF93EF930E946D0ECE0101960E942B0BB8
S11315C06091D9007091DA008091DB009091DC0089
S11315D023E044E00E944D0E3F922F9284E690E077
S11315E09F938F93E1E0F0E0EC0FFD1FFF93EF93E7
S11315F00E946D0ECE0101960E942B0B0FB6F8943B
S1131600DEBF0FBECDBFBACB2AB128612AB920B53F
S1131610266820BD9B01AC0184E0220F331F441FC8
S1131620551F8A95D1F760E074E284EF90E00E9440
S11316302B0E8FEF820F89B9DA01C9010197A10935
S1131640B109892F9A2FAB2FBB2780BD08958CB980
S11316505D9BFECF0895CF93DF93EC01899188239E
S113166019F00E94270BFACFDF91CF9108955058BB
S1131670BB27AA270E944F0B0C94180D0E940A0D39
S113168038F00E94110D20F039F49F3F19F426F42C
S11316900C94E00C0EF4E095E7FB0C94DA0CE92FC3
S11316A00E94290D58F3BA17620773078407950738
S11316B020F079F4A6F50C944B0D0EF4E0950B2E66
S11316C0BA2FA02D0B01B90190010C01CA01A00190
S11316D01124FF27591B99F0593F50F4503E68F1EB
S11316E01A16F040A22F232F342F4427585FF3CF2C
S11316F0469537952795A795F0405395C9F77EF4FD
S11317001F16BA0B620B730B840BBAF09150A1F045
S1131710FF0FBB1F661F771F881FC2F70EC0BA0FCB
S1131720621F731F841F48F4879577956795B79553
S1131730F7959E3F08F0B0CF9395880F08F099274E
S1131740EE0F979587950895DF93DD27B92FBF771F
S113175040E85FE31616170648075B0718F4D92F0D
S11317600E94570D9F938F937F936F930E94120E45
S1131770E4E5F0E00E94E30C0E94180D2F913F91E4
S11317804F915F910E94720DDD2351F09058A2EAAF
S11317902AED3FE049EC5FE3D0785D270E944F0BD0
S11317A0DF910C94180D0E94B60C08F481E00895A2
S11317B00E94EC0B0C94180D0E94110D58F00E941D
S11317C00A0D40F029F45F3F29F00C94DA0C511112
S11317D00C944C0D0C94E00C0E94290D68F3992391
S11317E0B1F3552391F3951B550BBB27AA27621719
S11317F07307840738F09F5F5F4F220F331F441F26
S1131800AA1FA9F335D00E2E3AF0E0E832D0915059
S11318105040E695001CCAF72BD0FE2F29D0660F46
S1131820771F881FBB1F261737074807AB07B0E889
S113183009F0BB0B802DBF01FF2793585F4F3AF08F
S11318409E3F510578F00C94DA0C0C944C0D5F3FDC
S1131850E4F3983ED4F3869577956795B795F79515
S11318609F5FC9F7880F911D9695879597F90895FD
S1131870E1E0660F771F881FBB1F62177307840799
S1131880BA0720F0621B730B840BBA0BEE1F88F7A8
S1131890E09508950E94310D88F09F5798F0B92F74
S11318A09927B751B0F0E1F0660F771F881F991F91
S11318B01AF0BA95C9F714C0B13091F00E944B0DDB
S11318C0B1E008950C944B0D672F782F8827B85FEB
S11318D039F0B93FCCF3869577956795B395D9F7E9
S11318E03EF490958095709561957F4F8F4F9F4FF3
S11318F00895E89409C097FB3EF4909580957095FF
S113190061957F4F8F4F9F4F9923A9F0F92F96E947
S1131910BB279395F695879577956795B795F111BC
S1131920F8CFFAF4BB0F11F460FF1BC06F5F7F4F59
S11319308F4F9F4F16C0882311F096E911C077236B
S113194021F09EE8872F762F05C0662371F096E874
S1131950862F70E060E02AF09A95660F771F881F43
S1131960DAF7880F9695879597F90895990F0008E7
S1131970550FAA0BE0E8FEEF16161706E807F9075D
S1131980C0F012161306E407F50798F0621B730BF8
S1131990840B950B39F40A2661F0232B242B252B79
S11319A021F408950A2609F4A140A6958FEF811D1C
S11319B0811D089597F99F6780E870E060E00895BD
S11319C09FEF80EC0895DF93CF931F930F93FF92C3
S11319D0EF92DF927B018C01689406C0DA2EEF014E
S11319E00E94720DFE01E894A591259135914591CF
S11319F05591A6F3EF010E944F0BFE019701A80138
S1131A00DA9469F7DF90EF90FF900F911F91CF91D7
S1131A10DF91089500240A9416161706180609067D
S1131A20089500240A941216130614060506089550
S1131A30092E0394000C11F4882352F0BB0F40F4D8
S1131A40BF2B11F460FF04C06F5F7F4F8F4F9F4F18
S1131A50089557FD9058440F551F59F05F3F71F09A
S1131A604795880F97FB991F61F09F3F79F0879501
S1131A700895121613061406551FF2CF4695F1DF8A
S1131A8008C0161617061806991FF1CF869571051A
S1131A90610508940895E894BB2766277727CB014E
S1131AA097F908950E94B60C08F48FEF08959B01EE
S1131AB0AC0160E070E080E89FE30C94D80B0E94D6
S1131AC0720D0C94180D0E940A0D38F00E94110D2D
S1131AD020F0952311F00C94DA0C0C94E00C1124F2
S1131AE00C944C0D0E94290D70F3959FC1F3950F32
S1131AF050E0551F629FF001729FBB27F00DB11D8E
S1131B00639FAA27F00DB11DAA1F649F6627B00D1D
S1131B10A11D661F829F2227B00DA11D621F739F06
S1131B20B00DA11D621F839FA00D611D221F749F14
S1131B303327A00D611D231F849F600D211D822F5B
S1131B40762F6A2F11249F5750409AF0F1F0882382
S1131B504AF0EE0FFF1FBB1F661F771F881F9150AF
S1131B605040A9F79E3F510580F00C94DA0C0C9478
S1131B704C0D5F3FE4F3983ED4F3869577956795D3
S1131B80B795F795E7959F5FC1F7FE2B880F911DD9
S1131B909695879597F9089519F416F40C94E00C2A
S1131BA00C94160E0E94310DB8F39923C9F3B6F3C1
S1131BB09F57550B87FF0E94240E0024A0E640EA9D
S1131BC0900180585695979528F4805C660F771F8E
S1131BD0881F20F026173707480730F4621B730B61
S1131BE0840B202931294A2BA69517940794202584
S1131BF031254A2758F7660F771F881F20F02617CC
S1131C003707480730F4620B730B840B200D311D2A
S1131C10411DA09581F7B901842F9158880F96959D
S1131C20879508959B01AC010C945F0D9F3F31F0A3
S1131C30915020F4879577956795B795880F911DF6
S1131C409695879597F9089591505040660F771FA0
S1131C50881FD2F70895A1E21A2EAA1BBB1BFD010F
S1131C600DC0AA1FBB1FEE1FFF1FA217B307E40777
S1131C70F50720F0A21BB30BE40BF50B661F771FCF
S1131C80881F991F1A9469F76095709580959095AF
S1131C909B01AC01BD01CF010895EF920F931F93F7
S1131CA0CF93DF93E80147FD02C034E001C034E183
S1131CB0042E000C550B57FF03C051954195510953
S1131CC0E32E022F242FAE010E947010CE01DF916B
S1131CD0CF911F910F91EF900895AEE0B0E0E3E74C
S1131CE0FEE00C9460130D891E8986E08C831A83B0
S1131CF009838FEF9FE79E838D83AE01475E5F4F1D
S1131D006F89788DCE0101960E948F0EEF81F88540
S1131D10E00FF11F10822E96E4E00C947C13ABE0EC
S1131D20B0E0E5E9FEE00C9452136C017B018A01FA
S1131D30FC0117821682838181FFCCC1CE010196FA
S1131D403C01F6019381F70193FD859193FF819105
S1131D507F01882309F4BAC1853239F493FD859152
S1131D6093FF81917F01853229F4B60190E00E94AE
S1131D70B812E7CF912C212C312CFFE1F315D8F0C8
S1131D808B3279F038F4803279F08332A1F4232D48
S1131D9020611DC08D3261F0803369F4232D2160F0
S1131DA016C0832D8260382EE32DE4603E2E2AC0B7
S1131DB0F32DF8601DC037FC2DC020ED280F2A300C
S1131DC040F08E32B9F436FC81C1232D2064322ECA
S1131DD019C036FE06C08AE0989E200D1124922E6A
S1131DE011C0EAE02E9E200D1124222EF32DF06264
S1131DF03F2E08C08C3621F4832D8068382E02C013
S1131E00883641F4F70193FD859193FF81917F0119
S1131E108111B3CF982F9F7D9554933028F40C5F94
S1131E201F4F9FE399830DC0833631F0833771F0E0
S1131E30833509F059C021C0F801808189830E5F80
S1131E401F4F88248394912C530113C02801F2E07E
S1131E504F0E511CF801A080B18036FE03C0692DDD
S1131E6070E002C06FEF7FEFC5010E94AD124C011C
S1131E708201F32DFF773F2E16C0280122E0420E87
S1131E80511CF801A080B18036FE03C0692D70E0BA
S1131E9002C06FEF7FEFC5010E94A2124C01F32D27
S1131EA0F0683F2E820133FC1BC0822D90E088161F
S1131EB09906B0F4B60180E290E00E94B8122A9428
S1131EC0F4CFF50137FC859137FE81915F01B601AE
S1131ED090E00E94B81221102A9421E0821A9108FD
S1131EE08114910471F7E8C0843611F0893641F504
S1131EF0F80137FE07C060817181828193810C5F94
S1131F001F4F08C060817181072E000C880B990B4C
S1131F100E5F1F4FF32DFF763F2E97FF09C090955C
S1131F208095709561957F4F8F4F9F4FF0683F2E3E
S1131F302AE030E0A3010E94F412882E861845C0DE
S1131F40853731F4232D2F7EB22E2AE030E025C0D0
S1131F50932D997FB92E8F36C1F018F4883579F016
S1131F60B5C0803719F0883721F0B0C0E92FE0619F
S1131F70BE2EB4FE0DC0FB2DF460BF2E09C034FE8E
S1131F800AC0292F2660B22E06C028E030E005C022
S1131F9020E130E002C020E132E0F801B7FE07C0E2
S1131FA060817181828193810C5F1F4F06C06081C3
S1131FB0718180E090E00E5F1F4FA3010E94F41234
S1131FC0882E8618FB2DFF773F2E36FE0DC0232D5D
S1131FD02E7FA22E891458F434FE0BC032FC09C0A3
S1131FE0832D8E7EA82E05C0B82CA32C03C0B82C3C
S1131FF001C0B92CA4FE0FC0FE01E80DF11D8081C3
S1132000803321F49A2D997EA92E09C0A2FE06C020
S1132010B394B39404C08A2D867809F0B394A3FCD6
S113202011C0A0FE06C0B21488F4280C922C9B1890
S11320300EC0B21460F4B60180E290E00E94B812BF
S1132040B394F7CFB21418F42B1802C0982C212C97
S1132050A4FE10C0B60180E390E00E94B812A2FE74
S113206017C0A1FC03C088E790E002C088E590E0B7
S1132070B6010CC08A2D867859F0A1FE02C08BE20D
S113208001C080E2A7FC8DE2B60190E00E94B81284
S1132090891438F4B60180E390E00E94B8129A944F
S11320A0F7CF8A94F301E80DF11D8081B60190E029
S11320B00E94B8128110F5CF222009F442CEB60155
S11320C080E290E00E94B8122A94F6CFF60186814D
S11320D0978102C08FEF9FEF2B96E2E10C946E1371
S11320E0A9E0B0E0E6E7F0E10C9458136A01122F7E
S11320F0B02E2BE3201720F0FF24F394F00E02C03F
S11321002CE3F22E0F2D27E0AE014F5F5F4F0E94AC
S1132110CA11BC014981842F8970813031F0E1FCFE
S113212006C0E0FE06C090E205C09DE203C09BE24B
S113213001C090E05E2D507143FF3CC0911102C07C
S113214083E001C084E0811718F4212F281B01C00B
S113215020E051110BC0F601822F30E2882319F0E0
S113216031938150FBCFC20ED11C20E0992329F07A
S1132170D6019C93F60131966F01C6010396E2FEE7
S11321800AC03EE4D6013C9341E411964C93119766
S113219012963C9306C03EE6F601308341E6418345
S11321A03283FC01322F40E2332309F442C04193CD
S11321B03150FACF42FF44C0911102C083E001C004
S11321C084E0811718F4212F281B01C020E051114D
S11321D00BC0F601822F30E2882319F0319381502D
S11321E0FBCFC20ED11C20E0992329F0D6019C9389
S11321F0F60131966F01C6010396E2FE0BC039E485
S1132200D6013C933EE411963C93119736E4129622
S11322103C9307C039E6F60130833EE6318336E667
S11322203283FC01322F40E2332319F041933150C1
S1132230FBCFFC01E20FF11D10828EEF9FEFA6C0D1
S113224021E030E0911102C020E030E016161706BC
S11322501CF4FB01319602C0E1E0F0E02E0F3F1FB9
S1132260BB2021F0EB2DF0E0319602C0E0E0F0E07D
S11322702E0F3F1FE12FF0E02E173F071CF4121B17
S1132280212F01C020E08E2D887159F4F601822F90
S113229030E2882319F031938150FBCFC20ED11C58
S11322A020E0992329F0D6019C93F60131966F0121
S11322B051110BC0F601822F90E3882319F09193FA
S11322C08150FBCFC20ED11C20E00F2D060F9A8146
S11322D0342F307144FF03C0913309F401501016B8
S11322E024F4093018F008E001C001E0AB0177FFE5
S11322F002C040E050E0FB01E41BF50BA1E0B0E0BC
S1132300AC0FBD1FEA0FFB1F8EE2A82E4B01801AF3
S113231091080B2D10E01195019511094F3FBFEF66
S11323205B0721F4D601AC9211966D016417750711
S11323302CF08416950614F4818101C080E3415089
S113234051093196D60111967D014017510724F0A9
S1132350D6018C936701E2CF6417750739F496337D
S113236020F4953319F4311101C081E3F60180831F
S1132370F701822F90E2882319F091938150FBCFCB
S1132380F701E20FF11D108280E090E02996ECE065
S11323900C947413283008F027E03327DA01990FDE
S11323A0311D87FD916000966105710539F4326035
S11323B02E5F3D9330E32A95E1F708959F3F30F077
S11323C080387105610509F03C5F3C5F3D939130B5
S11323D008F08068911DDF93CF931F930F93FF92B2
S11323E0EF92192F987F9695E92F96959695E90F78
S11323F0FF27E452FF4F99273327EE24FF24A70138
S1132400E70105900894079428F4360FE71EF81E98
S1132410491F511D660F771F881F991F0694A1F746
S11324200590079428F4E70EF81E491F561FC11D96
S1132430770F881F991F661F0694A1F705900794CC
S113244028F4F80E491F561FC71FD11D880F991F66
S1132450661F771F0694A1F70590079420F4490F8F
S1132460561FC71FD81F990F661F771F881F069412
S1132470A9F784911095177041F0D695C795579593
S11324804795F794E7941A95C1F7E2E8F0E0689469
S11324901590159135916591959105907FE273950D
S11324A0E118F10A430B560BC90BD009C0F7E10C34
S11324B0F11E431F561FC91FD01D7EF4703311F443
S11324C08A95E6CFE894015030F0080F0AF400270B
S11324D0021708F4202F2395022F7A3328F079E38A
S11324E07D932A95E9F710C07D932A9589F6069481
S11324F097956795379517951794E118F10A430B4B
S1132500560BC90BD00998F023957E9173957A33B5
S113251008F070E37C932013B8F77E9170617D938B
S113252030F0839571E37D9370E32A95E1F71124EC
S1132530EF90FF900F911F91CF91DF91992787FD25
S113254090950895FC010590615070400110D8F7F2
S1132550809590958E0F9F1F0895FC0161507040E7
S113256001900110D8F7809590958E0F9F1F0895C4
S11325700F931F93CF93DF93FB01238121FD03C0AE
S11325808FEF9FEF2CC022FF16C046815781248114
S113259035814217530744F4A081B1819D012F5F17
S11325A03F4F318320838C93268137812F5F3F4FA8
S11325B03783268314C08B01EC01FB010084F18571
S11325C0E02D0995892BE1F6D80116968D919C9101
S11325D01797019617969C938E931697CE01DF91C9
S11325E0CF911F910F910895FA01AA27283051F134
S11325F0203181F1E8946F936E7F6E5F7F4F8F4F30
S11326009F4FAF4FB1E03ED0B4E03CD0670F781F8E
S1132610891F9A1FA11D680F791F8A1F911DA11D73
S11326206A0F711D811D911DA11D20D009F46894AC
S11326303F912AE0269F11243019305D3193DEF654
S1132640CF010895462F4770405D4193B3E00FD00A
S1132650C9F7F6CF462F4F70405D4A3318F0495DF5
S113266031FD4052419302D0A9F7EACFB4E0A695D8
S11326709795879577956795BA95C9F700976105FA
S1132680710508959B01AC010A2E06945795479550
S113269037952795BA95C9F7620F731F841F951F45
S11326A0A01D08952F923F924F925F926F927F9256
S11326B08F929F92AF92BF92CF92DF92EF92FF924E
S11326C00F931F93CF93DF93CDB7DEB7CA1BDB0BFA
S11326D00FB6F894DEBF0FBECDBF09942A8839889F
S11326E048885F846E847D848C849B84AA84B984A6
S11326F0C884DF80EE80FD800C811B81AA81B981B2
S1132700CE0FD11D0FB6F894DEBF0FBECDBFED01C5
S10927100895F894FFCFC8
S10B271625732F0025730A004E
S9030000FC
