:100000000C94BE000C94DB000C94DB000C94DB0021
:100010000C94DB000C94DB000C94DB000C94DB00F4
:100020000C94DB000C94A4060C94DB000C94DB0015
:100030000C94DB000C94DB000C94DB000C94DB00D4
:100040000C94DB000C94DB000C94DB000C94DB00C4
:100050000C94DB00084AD73B3BCE016E84BCBFFD4D
:10006000C12F3D6C74319ABD56833DDA3D00C77F88
:1000700011BED9E4BB4C3E916BAAAABE0000008021
:100080003F0000407A10F35A00A0724E1809001089
:10009000A5D4E80000E87648170000E40B540200FD
:1000A00000CA9A3B000000E1F50500008096980028
:1000B000000040420F000000A08601000000102751
:1000C00000000000E80300000000640000000000E1
:1000D0000A00000000000100000000002C76D88813
:1000E000DC674F0823DFC1DFAE59E1B1B796E5E326
:1000F000E453C63AE651997696E8E6C28426EB893F
:100100008C9B62ED407C6FFCEFBC9C9F40F2BAA5DB
:100110006FA5F490055A2AF75C936B6CF9676DC173
:100120001BFCE0E40D47FEF520E6B500D0ED902E77
:100130000300943577050080841E080000204E0AD5
:10014000000000C80C333333330F986E1283114113
:10015000EF8D2114893BE65516CFFEE6DB18D184DE
:100160004B381BF77C1D901DA4BBE4242032847205
:100170005E228100C9F124ECA1E53D2711241FBEB8
:10018000CFE5D8E0DEBFCDBF10E0A0E6B0E0EEE204
:10019000F8E202C005900D92A836B107D9F720E029
:1001A000A8E6B0E001C01D92AA3EB207E1F70E94A6
:1001B000EB060C9415140C94000011B888E480B977
:1001C000089594EA96BF06B607FEFDCF91B1987FD9
:1001D000903171F483B984E886BF06B607FEFDCF7F
:1001E00081B1887F803431F0803231F083E008952E
:1001F00080E0089581E0089582E0089584E986BF53
:1002000006B604FCFDCF08951F93CF93DF93C82F4C
:10021000D4EA14E8D6BF06B607FEFDCF81B1887FC9
:100220008830C1F7C3B916BF06B607FEFDCF81B14E
:10023000887F883119F00E94FE00ECCFDF91CF91CA
:100240001F91089583B984E886BF06B607FEFDCFE7
:1002500081B1887F883221F0803321F082E00895D7
:1002600080E0089581E0089584EC86BF06B607FE1D
:10027000FDCF83B1089584E886BF06B607FEFDCFA3
:1002800083B1089512BE14BCBB9A8F9A08958F92C1
:100290009F92AF92BF92CF92DF92EF92FF9223E3B1
:1002A00033E343E250E40E94EB0D6B017C0121E754
:1002B0003DE34AE85FE30E94EB0D4B015C0120E067
:1002C00030E04FE753E40E94DE0D181634F4812C21
:1002D000912C98E4A92E93E4B92E20E030E04FE76A
:1002E00053E4C701B6010E94DE0D181634F4C12C88
:1002F000D12C88E4E82E83E4F82EC501B4010E94D5
:10030000D60C6CBFC701B6010E94D60C63BDFF902E
:10031000EF90DF90CF90BF90AF909F908F90089517
:1003200083E683BF84E685BD08952FEF82E597E0DD
:10033000215080409040E1F700C0000080ED0E9415
:10034000040189E10E94220187E00E9422010E94AB
:10035000FE0080ED0E9404018BE60E94220181E0F4
:100360000E9422010E94FE0080ED0E9404018AE1A9
:100370000E94220180E00E9422010E94FE0080ED86
:100380000E9404018BE10E94220188E10E94220167
:100390000E94FE0080ED0E9404018CE10E94220177
:1003A00080E00E9422010E94FE0080ED0E94040174
:1003B0008FE10E94220180E00E9422010E94FE0043
:1003C00080ED0E94040183E20E94220180E00E94ED
:1003D00022010E94FE0080ED0E9404018DE10E9436
:1003E000220180E00E9422010E94FE0080ED0E9416
:1003F00004018EE10E94220180E00E9422010E94FD
:10040000FE0080ED0E94040180E20E94220180E053
:100410000E9422010E94FE0080ED0E94040182E2FF
:100420000E94220180E00E9422010E94FE0080EDD5
:100430000E94040181E20E94220180E00E942201C8
:100440000E94FE0080ED0E94040184E20E942201CD
:1004500080E00E9422010E94FE0080ED0E940401C3
:1004600086E20E94220180E00E9422010E94FE009A
:1004700080ED0E94040185E20E94220180E00E943A
:1004800022010E94FE0080ED0E94040187E20E948A
:10049000220180E00E9422010E94FE0080ED0E9465
:1004A000040189E20E94220180E00E9422010E9450
:1004B000FE0080ED0E94040188E20E94220180E09B
:1004C0000E9422010E94FE0080ED0E9404018AE247
:1004D0000E94220180E00E9422010E94FE0080ED25
:1004E0000E9404018CE20E94220180E00E9422010D
:1004F0000E94FE0080ED0E9404018CE20E94220115
:1005000080E00E9422010E94FE0080ED0E94040112
:100510008DE20E94220180E00E9422010E94FE00E2
:1005200080ED0E9404018FE20E94220180E00E947F
:1005300022010E94FE0080ED0E9404018EE20E94D2
:10054000220180E00E9422010E94FE0080ED0E94B4
:10055000040180E30E94220180E00E9422010E94A7
:10056000FE0080ED0E94040182E30E94220180E0EF
:100570000E9422010E94FE0080ED0E94040181E39E
:100580000E94220180E00E9422010E94FE0080ED74
:100590000E94040184E30E94220180E00E94220163
:1005A0000E94FE0080ED0E94040183E30E9422016C
:1005B00080E00E9422010E94FE0080ED0E94040162
:1005C00085E30E94220180E00E9422010E94FE0039
:1005D00080ED0E94040187E30E94220180E00E94D6
:1005E00022010E94FE0080ED0E94040188E30E9427
:1005F000220181E00E9422010E94FE0080ED0E9403
:10060000040183E60E94220180E00E9422010E94F0
:10061000FE0080ED0E94040184E60E94220180E039
:100620000E9422010E94FE0080ED0E94040185E6E6
:100630000E94220180E00E9422010E94FE0080EDC3
:100640000E94040186E60E94220180E00E942201AD
:100650000E94FE0080ED0E94040187E60E942201B4
:1006600080E00E9422010E94FE0080ED0E940401B1
:1006700088E60E94220180E00E9422010E94FE0082
:1006800080ED0E94040189E60E94220180E00E9420
:1006900022010E94FE0080ED0E9404018AE60E9471
:1006A000220180E00E9422010E94FE0080ED0E9453
:1006B00004018CE60E94220180E00E9422010E9437
:1006C000FE0080ED0E94040184E70E94220180E088
:1006D0000E9422010C94FE0080ED0E9404018BE335
:1006E0000E94220181ED0C94E100CF930E946C03E3
:1006F0000E943401C82F0E9434016C2F70E0762FC5
:100700006627682B072E000C880B990B0E94070D9B
:100710006093A6007093A7008093A8009093A9000F
:100720000E943401C82F0E9434016C2F70E0762F94
:100730006627682B072E000C880B990B0E94070D6B
:10074000609382007093830080938400909385006F
:100750000E943401C82F0E9434016C2F70E0762F64
:100760006627682B072E000C880B990B0E94070D3B
:1007700060936D0070936E0080936F009093700093
:100780000E943401C82F0E9434016C2F70E0762F34
:100790006627682B072E000C880B990B0E94070D0B
:1007A00060937A0070937B0080937C0090937D002F
:1007B0000E943401C82F0E9434016C2F70E0762F04
:1007C0006627682B072E000C880B990B0E94070DDB
:1007D000609376007093770080937800909379000F
:1007E0000E943401C82F0E9434016C2F70E0762FD4
:1007F0006627682B072E000C880B990B0E94070DAB
:100800006093CE007093CF008093D0009093D1007E
:100810000E943401C82F0E943B016C2F70E0762F9C
:100820006627682B072E000C880B990B0E94070D7A
:1008300060939E0070939F008093A0009093A1000E
:100840000E94FE0020E030E040E858E36091A600FE
:100850007091A7008091A8009091A9000E94EB0DD3
:100860006093A6007093A7008093A8009093A900BE
:1008700020E030E040E858E360918200709183000E
:1008800080918400909185000E94EB0D609382001E
:1008900070938300809384009093850020E030E083
:1008A00040E858E360916D0070916E0080916F0098
:1008B000909170000E94EB0D60936D0070936E003C
:1008C00080936F009093700023E333E343E851E497
:1008D0006091760070917700809178009091790016
:1008E0000E94640C60937600709377008093780088
:1008F0009093790023E333E343E851E46091CE0021
:100900007091CF008091D0009091D1000E94640C32
:100910006093CE007093CF008093D0009093D1006D
:1009200023E333E343E851E460919E0070919F001C
:100930008091A0009091A1000E94640C60939E00A1
:1009400070939F008093A0009093A100CF91089591
:100950004F925F926F927F928F929F92AF92BF92CF
:10096000CF92DF92EF92FF92CF93DF93CDB7DEB7B6
:1009700062970FB6F894DEBF0FBECDBF88EC90E053
:100980009A8B898B0E9475038090820090908300DF
:10099000A0908400B09085004090A6005090A700E1
:1009A0006090A8007090A900C0906D00D0906E007B
:1009B000E0906F00F0907000A7019601C701B601AA
:1009C0000E94EB0D6D837E838F839887A301920134
:1009D000C301B2010E94EB0D2D813E814F815885EC
:1009E0000E94C40B0E945E0E69837A838B839C8372
:1009F0009B01AC01C501B4010E94640C0E94300C43
:100A000021EE3EE245E652E40E94EB0D2091BA0051
:100A10003091BB004091BC005091BD000E94C40BBE
:100A200069877A878B879C876093BA007093BB0035
:100A30008093BC009093BD00A5019401C501B40151
:100A40000E94EB0D2D813E814F8158850E94C40B81
:100A50000E945E0E9B01AC01C301B20190580E943E
:100A6000640C0E94300C21EE3EE245E652E40E9406
:100A7000EB0D2091B2003091B3004091B400509141
:100A8000B5000E94C40B4B015C016093B2007093EF
:100A9000B3008093B4009093B50029813A814B81D3
:100AA0005C81C701B6010E94640C0E94300C21EEEB
:100AB0003EE245E652E40E94EB0D20919600309113
:100AC000970040919800509199000E94C40B6B01CF
:100AD0007C016093960070939700809398009093A8
:100AE00099002091760030917700409178005091E4
:100AF00079006091DE007091DF008091E0009091BC
:100B0000E1000E94C40B69837A838B839C8360938A
:100B1000DE007093DF008093E0009093E10020916D
:100B2000CE003091CF004091D0005091D100609123
:100B3000C6007091C7008091C8009091C9000E94C2
:100B4000C40B6D837E838F8398876093C6007093F8
:100B5000C7008093C8009093C90020919E003091F7
:100B60009F004091A0005091A1006091920070916F
:100B7000930080919400909195000E94C40B6D8722
:100B80007E878F87988B60939200709393008093F9
:100B9000940090939500A989BA891197BA8BA98B73
:100BA000AB2B09F0EFCE20E030E048E453E4698558
:100BB0007A858B859C850E94640C6093BA00709343
:100BC000BB008093BC009093BD0020E030E048E47F
:100BD00053E4C501B4010E94640C6093B2007093A9
:100BE000B3008093B4009093B50020E030E048E477
:100BF00053E4C701B6010E94640C609396007093A1
:100C00009700809398009093990020E030E048E4AA
:100C100053E469817A818B819C810E94640C60938A
:100C2000DE007093DF008093E0009093E10020E00D
:100C300030E048E453E46D817E818F8198850E9485
:100C4000640C6093C6007093C7008093C8009093B3
:100C5000C90020E030E048E453E46D857E858F854F
:100C600098890E94640C6093920070939300809323
:100C700094009093950062960FB6F894DEBF0FBE75
:100C8000CDBFDF91CF91FF90EF90DF90CF90BF90DD
:100C9000AF909F908F907F906F905F904F9008954E
:100CA0001FBC89B7846089BF8EB582608EBD8EB54A
:100CB0008A7F8EBD08958F929F92AF92BF92EF92DE
:100CC000FF921F93CF93DF937C011FB7F894CCB5AD
:100CD000DDB52DEB37E346E05DE36091BE0070913A
:100CE000BF008091C0009091C1000E94EB0D4B01AC
:100CF0005C01BE0180E090E00E94050D2DEB37E322
:100D000046E055E30E94EB0D9B01AC01C501B40127
:100D10000E94C40BF70160837183828393831DBC9F
:100D20001CBC1092BE001092BF001092C000109226
:100D3000C1001FBFDF91CF911F91FF90EF90BF9037
:100D4000AF909F908F9008951F920F920FB60F92C1
:100D500011242F933F934F935F936F937F938F93C0
:100D60009F93AF93BF93EF93FF9320E030E040E871
:100D70005FE36091BE007091BF008091C0009091D0
:100D8000C1000E94C40B6093BE007093BF008093AB
:100D9000C0009093C100FF91EF91BF91AF919F91DF
:100DA0008F917F916F915F914F913F912F910F9014
:100DB0000FBE0F901F90189587E886B917B8089551
:100DC00087B985E38A95F1F70000369A349BFECF08
:100DD00084B195B10895CF93DF93CDB7DEB7EC978B
:100DE0000FB6F894DEBF0FBECDBF8FEF87BB0E945A
:100DF000DC060E94DD0060E07BE480E090E00E9481
:100E0000900B0E94420160E070E0CB010E9447011C
:100E10000E9490010E9495010E9450060E94A80421
:100E20001E0121E2220E311C0E9475038AED90E022
:100E30000E945B068090820090908300A0908400C6
:100E4000B09085004090A6005090A7006090A80048
:100E50007090A900C0906D00D0906E00E0906F007F
:100E6000F0907000A7019601C701B6010E94EB0D3A
:100E70006DAB7EAB8FAB98AFA3019201C301B20102
:100E80000E94EB0D2DA93EA94FA958AD0E94C40B9D
:100E90000E945E0E69AB7AAB8BAB9CAB9B01AC0145
:100EA000C501B4010E94640C0E94300C21EE3EE2A8
:100EB00045E652E40E94EB0D2091BA003091BB0050
:100EC0004091BC005091BD000E94C30B69AF7AAF46
:100ED0008BAF9CAF609386007093870080938800EF
:100EE00090938900A5019401C501B4010E94EB0D06
:100EF0002DA93EA94FA958AD0E94C40B0E945E0EB9
:100F00009B01AC01C301B20190580E94640C0E9485
:100F1000300C21EE3EE245E652E40E94EB0D2091BA
:100F2000B2003091B3004091B4005091B5000E94DE
:100F3000C30B6DAB7EAB8FAB98AF6093A200709389
:100F4000A3008093A4009093A50029A93AA94BA9D6
:100F50005CA9C701B6010E94640C0E94300C21EE0E
:100F60003EE245E652E40E94EB0D2091960030915E
:100F7000970040919800509199000E94C30B609394
:100F80008E0070938F008093900090939100209139
:100F9000DE003091DF004091E0005091E10060916F
:100FA00076007091770080917800909179000E948E
:100FB000C30B2B013C016093760070937700809304
:100FC0007800909379002091C6003091C70040913D
:100FD000C8005091C9006091CE007091CF008091FF
:100FE000D0009091D1000E94C30B4B015C01609333
:100FF000CE007093CF008093D0009093D1002091C9
:10100000920030919300409194005091950060912E
:101010009E0070919F008091A0009091A1000E947D
:10102000C30B69AB7AAB8BAB9CAB60939E007093A8
:101030009F008093A0009093A100C090DA00D09010
:10104000DB00E090DC00F090DD00A7019601C30119
:10105000B2010E94EB0D20918A0030918B004091EB
:101060008C0050918D000E94C40B2B013C01A70104
:101070009601C501B4010E94EB0D2091E60030916C
:10108000E7004091E8005091E9000E94C40B4B0139
:101090005C01A701960169A97AA98BA99CA90E9464
:1010A000EB0D9B01AC016091AE007091AF0080919F
:1010B000B0009091B1000E94C40B6093AE00709399
:1010C000AF008093B0009093B1002FE832EC45E779
:1010D0005FE3C301B2010E94EB0D6B017C012AE0CA
:1010E00037ED43E25DE369AD7AAD8BAD9CAD0E9417
:1010F000EB0D9B01AC01C701B6010E94C40B6B0153
:101100007C0160938A0070938B0080938C00909395
:101110008D002FE832EC45E75FE3C501B4010E9482
:10112000EB0D4B015C012AE037ED43E25DE36DA975
:101130007EA98FA998AD0E94EB0D9B01AC01C50162
:10114000B4010E94C40B6093E6007093E7008093A3
:10115000E8009093E900C092D600D092D700E092C8
:10116000D800F092D9006093D2007093D30080939E
:10117000D4009093D5007E018BE2E80EF11C10E0C4
:10118000812F0E94E006D7018D939D937D011F5F03
:101190001330B1F76BA57CA580E090E00E94050DAF
:1011A00020E030E040E25CE30E94EB0D69AB7AABFB
:1011B0008BAB9CAB6093CA007093CB008093CC0048
:1011C0009093CD006DA57EA580E090E00E94050D76
:1011D00020E030E040E05AE30E94EB0D6DAB7EABC7
:1011E0008FAB98AF60937E0070937F0080938000F8
:1011F000909381006FA578A980E090E00E94050D92
:101200002AE939E949E959E30E94EB0D69AF7AAF60
:101210008BAF9CAF6093B6007093B7008093B8001B
:101220009093B9008090D2009090D300A090D40009
:10123000B090D5002091690030916A0040916B0018
:1012400050916C00C501B4010E94C30B6B017C017D
:101250006093C2007093C3008093C4009093C50054
:1012600020E030E048E452E4C501B4010E94DE0D04
:10127000181634F120E030E048E452ECC501B40126
:101280000E945F0C87FD1CC08090D6009090D70014
:10129000A090D800B090D90020E030E048E452E4BB
:1012A000C501B4010E94DE0D181654F020E030E0B4
:1012B00048E452ECC501B4010E945F0C87FF04C0F2
:1012C00060E070E0CB011CC18090DA009090DB0000
:1012D000A090DC00B090DD00A5019401C701B6012B
:1012E0000E94EB0D20919A0030919B0040919C0050
:1012F00050919D000E94C40B2B013C0120E030E086
:1013000046E953E40E94DE0D18164CF040929A0014
:1013100050929B0060929C0070929D000CC080E0F7
:1013200090E0A6E9B3E480939A0090939B00A09389
:101330009C00B0939D0020E030E046E953EC6091C2
:101340009A0070919B0080919C0090919D000E945A
:101350005F0C87FF0CC080E090E0A6E9B3EC8093BF
:101360009A0090939B00A0939C00B0939D002091C5
:101370009A0030919B0040919C0050919D006DA976
:101380007EA98FA998AD0E94EB0D2B013C01A7010E
:10139000960169A97AA98BA99CA90E94EB0D9B01D2
:1013A000AC01C301B2010E94C40B2B013C0120918E
:1013B000AA003091AB004091AC005091AD00C70144
:1013C000B6010E94C30B29AD3AAD4BAD5CAD0E9496
:1013D000EB0DA50194010E94640C9B01AC01C301BB
:1013E000B2010E94C40B4B015C01609371007093C9
:1013F00072008093730090937400C092AA00D09200
:10140000AB00E092AC00F092AD0020E030E0A9012A
:101410000E94DE0D181614F481E001C08FEF809356
:10142000750020E030E0A901C501B4010E94DE0D85
:1014300018165CF4C19AC298809171009091720064
:10144000A0917300B09174000BC0C198C29A8091B2
:10145000710090917200A0917300B0917400B05827
:101460008093E2009093E300A093E400B093E50042
:1014700020E030E040E251E46091E2007091E3004E
:101480008091E4009091E5000E94C40B6B017C0107
:101490006093E2007093E3008093E4009093E50092
:1014A0009091750080916800981741F120E030E03C
:1014B00048EC51E4C701B6010E945F0C87FF1EC0D3
:1014C00060E070E088EC91E40E944701BFEFE9EF33
:1014D000F0E0B150E040F040E1F700C00000609162
:1014E000E2007091E3008091E4009091E5000E9499
:1014F0004701809175008093680004C0C701B60160
:101500000E9447016091D6007091D7008091D80069
:101510009091D900810122E043E00E94D90E3F92D0
:101520002F9280E690E09F938F93E1E0F0E0EC0F44
:10153000FD1FFF93EF930E94F90ECE0101960E94CA
:10154000B70B6091D2007091D3008091D40090913C
:10155000D50022E043E00E94D90E3F922F9280E610
:1015600090E09F938F93E1E0F0E0EC0FFD1FFF937D
:10157000EF930E94F90ECE0101960E94B70B809165
:10158000CA009091CB00A091CC00B091CD008D8B82
:101590009E8BAF8BB88F80917E0090917F00A09141
:1015A0008000B0918100898F9A8FAB8FBC8F809122
:1015B000B6009091B700A091B800B091B9008D8F9E
:1015C0009E8FAF8FB8A37E01F5E1EF0EF11C0FB631
:1015D000F894DEBF0FBECDBFD7016D917D918D9187
:1015E0009D917D01810123E044E00E94D90E3F924C
:1015F0002F92E0E6F0E0FF93EF9381E090E08C0F14
:101600009D1F9F938F930E94F90ECE0101960E9419
:10161000B70B0F900F900F900F900F900F902E140C
:101620003F04D1F660919A0070919B0080919C00DC
:1016300090919D0022E043E00E94D90E3F922F92AC
:10164000A0E6B0E0BF93AF9381E090E08C0F9D1FC8
:101650009F938F930E94F90ECE0101960E94B70BC3
:10166000609171007091720080917300909174008C
:1016700022E043E00E94D90E3F922F92A0E6B0E014
:10168000BF93AF9381E090E08C0F9D1F9F938F934A
:101690000E94F90ECE0101960E94B70B6091E20004
:1016A0007091E3008091E4009091E50022E043E036
:1016B0000E94D90E3F922F92A0E6B0E0BF93AF9365
:1016C00081E090E08C0F9D1F9F938F930E94F90EF5
:1016D000CE0101960E94B70B6091DA007091DB0099
:1016E0008091DC009091DD0023E044E00E94D90E5F
:1016F0003F922F92A4E6B0E0BF93AF9381E090E0D9
:101700008C0F9D1F9F938F930E94F90ECE0101961F
:101710000E94B70B0FB6F894DEBF0FBECDBF84CBCF
:101720002AB128612AB920B5266820BD9B01AC01E9
:1017300084E0220F331F441F551F8A95D1F760E0C4
:1017400074E284EF90E00E94B70E8FEF820F89B9A8
:10175000DA01C9010197A109B109892F9A2FAB2F8D
:10176000BB2780BD08958CB95D9BFECF0895CF93B4
:10177000DF93EC018991882319F00E94B30BFACF13
:10178000DF91CF9108955058BB27AA270E94DB0B09
:101790000C94A40D0E94960D38F00E949D0D20F02F
:1017A00039F49F3F19F426F40C946C0D0EF4E09577
:1017B000E7FB0C94660DE92F0E94B50D58F3BA179C
:1017C000620773078407950720F079F4A6F50C9457
:1017D000D70D0EF4E0950B2EBA2FA02D0B01B901F9
:1017E00090010C01CA01A0011124FF27591B99F097
:1017F000593F50F4503E68F11A16F040A22F232FA3
:10180000342F4427585FF3CF469537952795A795F2
:10181000F0405395C9F77EF41F16BA0B620B730B99
:10182000840BBAF09150A1F0FF0FBB1F661F771F0A
:10183000881FC2F70EC0BA0F621F731F841F48F4BF
:10184000879577956795B795F7959E3F08F0B0CF48
:101850009395880F08F09927EE0F9795879508952F
:10186000DF93DD27B92FBF7740E85FE31616170631
:1018700048075B0718F4D92F0E94E30D9F938F93BD
:101880007F936F930E949E0EE4E5F0E00E946F0D3F
:101890000E94A40D2F913F914F915F910E94FE0DE8
:1018A000DD2351F09058A2EA2AED3FE049EC5FE3D6
:1018B000D0785D270E94DB0BDF910C94A40D0E9471
:1018C000420D08F481E008950E94780C0C94A40D58
:1018D0000E949D0D58F00E94960D40F029F45F3F44
:1018E00029F00C94660D51110C94D80D0C946C0DCC
:1018F0000E94B50D68F39923B1F3552391F3951B1D
:10190000550BBB27AA2762177307840738F09F5F20
:101910005F4F220F331F441FAA1FA9F335D00E2E8D
:101920003AF0E0E832D091505040E695001CCAF7FA
:101930002BD0FE2F29D0660F771F881FBB1F2617BD
:1019400037074807AB07B0E809F0BB0B802DBF0194
:10195000FF2793585F4F3AF09E3F510578F00C9463
:10196000660D0C94D80D5F3FE4F3983ED4F3869552
:1019700077956795B795F7959F5FC9F7880F911D84
:101980009695879597F90895E1E0660F771F881F70
:10199000BB1F621773078407BA0720F0621B730B23
:1019A000840BBA0BEE1F88F7E09508950E94BD0DD9
:1019B00088F09F5798F0B92F9927B751B0F0E1F010
:1019C000660F771F881F991F1AF0BA95C9F714C0C0
:1019D000B13091F00E94D70DB1E008950C94D70D6D
:1019E000672F782F8827B85F39F0B93FCCF38695F9
:1019F00077956795B395D9F73EF490958095709556
:101A000061957F4F8F4F9F4F0895E89409C097FBD2
:101A10003EF490958095709561957F4F8F4F9F4FC5
:101A20009923A9F0F92F96E9BB279395F695879509
:101A300077956795B795F111F8CFFAF4BB0F11F4CC
:101A400060FF1BC06F5F7F4F8F4F9F4F16C0882373
:101A500011F096E911C0772321F09EE8872F762FA9
:101A600005C0662371F096E8862F70E060E02AF0EA
:101A70009A95660F771F881FDAF7880F96958795D6
:101A800097F90895990F0008550FAA0BE0E8FEEFAB
:101A900016161706E807F907C0F012161306E40732
:101AA000F50798F0621B730B840B950B39F40A262B
:101AB00061F0232B242B252B21F408950A2609F409
:101AC000A140A6958FEF811D811D089597F99F670D
:101AD00080E870E060E008959FEF80EC0895DF9368
:101AE000CF931F930F93FF92EF92DF927B018C01B4
:101AF000689406C0DA2EEF010E94FE0DFE01E89404
:101B0000A5912591359145915591A6F3EF010E943C
:101B1000DB0BFE019701A801DA9469F7DF90EF90E3
:101B2000FF900F911F91CF91DF91089500240A94A7
:101B30001616170618060906089500240A941216A8
:101B40001306140605060895092E0394000C11F4DB
:101B5000882352F0BB0F40F4BF2B11F460FF04C088
:101B60006F5F7F4F8F4F9F4F089557FD9058440FE1
:101B7000551F59F05F3F71F04795880F97FB991FEC
:101B800061F09F3F79F087950895121613061406A9
:101B9000551FF2CF4695F1DF08C016161706180636
:101BA000991FF1CF86957105610508940895E89411
:101BB000BB2766277727CB0197F908950E94420D2E
:101BC00008F48FEF08959B01AC0160E070E080E8BD
:101BD0009FE30C94640C0E94FE0D0C94A40D0E94D3
:101BE000960D38F00E949D0D20F0952311F00C9475
:101BF000660D0C946C0D11240C94D80D0E94B50D3B
:101C000070F3959FC1F3950F50E0551F629FF0014F
:101C1000729FBB27F00DB11D639FAA27F00DB11D68
:101C2000AA1F649F6627B00DA11D661F829F2227F1
:101C3000B00DA11D621F739FB00DA11D621F839F78
:101C4000A00D611D221F749F3327A00D611D231F4E
:101C5000849F600D211D822F762F6A2F11249F579C
:101C600050409AF0F1F088234AF0EE0FFF1FBB1F9F
:101C7000661F771F881F91505040A9F79E3F51055E
:101C800080F00C94660D0C94D80D5F3FE4F3983E01
:101C9000D4F3869577956795B795F795E7959F5F08
:101CA000C1F7FE2B880F911D9695879597F908959A
:101CB00019F416F40C946C0D0C94A20E0E94BD0D38
:101CC000B8F39923C9F3B6F39F57550B87FF0E94CA
:101CD000B00E0024A0E640EA9001805856959795F2
:101CE00028F4805C660F771F881F20F026173707BF
:101CF000480730F4621B730B840B202931294A2BCF
:101D0000A69517940794202531254A2758F7660F82
:101D1000771F881F20F026173707480730F4620B1B
:101D2000730B840B200D311D411DA09581F7B90166
:101D3000842F9158880F9695879508959B01AC0143
:101D40000C94EB0D9F3F31F0915020F487957795DF
:101D50006795B795880F911D9695879597F9089582
:101D600091505040660F771F881FD2F70895A1E267
:101D70001A2EAA1BBB1BFD010DC0AA1FBB1FEE1F05
:101D8000FF1FA217B307E407F50720F0A21BB30B50
:101D9000E40BF50B661F771F881F991F1A9469F7CC
:101DA00060957095809590959B01AC01BD01CF0128
:101DB0000895EF920F931F93CF93DF93E80147FDB0
:101DC00002C034E001C034E1042E000C550B57FF73
:101DD00003C0519541955109E32E022F242FAE01E6
:101DE0000E94FC10CE01DF91CF911F910F91EF90D7
:101DF0000895AEE0B0E0EFEFFEE00C94EC130D8937
:101E00001E8986E08C831A8309838FEF9FE79E8368
:101E10008D83AE01475E5F4F6F89788DCE0101964D
:101E20000E941B0FEF81F885E00FF11F10822E96A4
:101E3000E4E00C940814ABE0B0E0E1E2FFE00C94C5
:101E4000DE136C017B018A01FC01178216828381FB
:101E500081FFCCC1CE0101963C01F6019381F701CF
:101E600093FD859193FF81917F01882309F4BAC185
:101E7000853239F493FD859193FF81917F018532FD
:101E800029F4B60190E00E944413E7CF912C212C55
:101E9000312CFFE1F315D8F08B3279F038F4803231
:101EA00079F08332A1F4232D20611DC08D3261F0C1
:101EB000803369F4232D216016C0832D8260382E73
:101EC000E32DE4603E2E2AC0F32DF8601DC037FCE0
:101ED0002DC020ED280F2A3040F08E32B9F436FCA8
:101EE00081C1232D2064322E19C036FE06C08AE03F
:101EF000989E200D1124922E11C0EAE02E9E200DF6
:101F00001124222EF32DF0623F2E08C08C3621F4CE
:101F1000832D8068382E02C0883641F4F70193FD86
:101F2000859193FF81917F018111B3CF982F9F7D80
:101F30009554933028F40C5F1F4F9FE399830DC095
:101F4000833631F0833771F0833509F059C021C0F1
:101F5000F801808189830E5F1F4F88248394912C20
:101F6000530113C02801F2E04F0E511CF801A0806C
:101F7000B18036FE03C0692D70E002C06FEF7FEFC5
:101F8000C5010E9439134C018201F32DFF773F2ECA
:101F900016C0280122E0420E511CF801A080B18039
:101FA00036FE03C0692D70E002C06FEF7FEFC50100
:101FB0000E942E134C01F32DF0683F2E820133FC5A
:101FC0001BC0822D90E088169906B0F4B60180E21D
:101FD00090E00E9444132A94F4CFF50137FC8591D8
:101FE00037FE81915F01B60190E00E9444132110F9
:101FF0002A9421E0821A91088114910471F7E8C0B3
:10200000843611F0893641F5F80137FE07C060814A
:102010007181828193810C5F1F4F08C06081718143
:10202000072E000C880B990B0E5F1F4FF32DFF76C8
:102030003F2E97FF09C090958095709561957F4FD1
:102040008F4F9F4FF0683F2E2AE030E0A3010E949F
:102050008013882E861845C0853731F4232D2F7EB6
:10206000B22E2AE030E025C0932D997FB92E8F360D
:10207000C1F018F4883579F0B5C0803719F0883789
:1020800021F0B0C0E92FE061BE2EB4FE0DC0FB2DE3
:10209000F460BF2E09C034FE0AC0292F2660B22E7C
:1020A00006C028E030E005C020E130E002C020E1B9
:1020B00032E0F801B7FE07C06081718182819381AF
:1020C0000C5F1F4F06C06081718180E090E00E5F61
:1020D0001F4FA3010E948013882E8618FB2DFF77C7
:1020E0003F2E36FE0DC0232D2E7FA22E891458F4CC
:1020F00034FE0BC032FC09C0832D8E7EA82E05C095
:10210000B82CA32C03C0B82C01C0B92CA4FE0FC05E
:10211000FE01E80DF11D8081803321F49A2D997E16
:10212000A92E09C0A2FE06C0B394B39404C08A2DA0
:10213000867809F0B394A3FC11C0A0FE06C0B214C7
:1021400088F4280C922C9B180EC0B21460F4B601CF
:1021500080E290E00E944413B394F7CFB21418F4D5
:102160002B1802C0982C212CA4FE10C0B60180E3CD
:1021700090E00E944413A2FE17C0A1FC03C088E7B0
:1021800090E002C088E590E0B6010CC08A2D867808
:1021900059F0A1FE02C08BE201C080E2A7FC8DE2F3
:1021A000B60190E00E944413891438F4B60180E32C
:1021B00090E00E9444139A94F7CF8A94F301E80DBB
:1021C000F11D8081B60190E00E9444138110F5CF8B
:1021D000222009F442CEB60180E290E00E9444132E
:1021E0002A94F6CFF6018681978102C08FEF9FEF88
:1021F0002B96E2E10C94FA13A9E0B0E0E2E0F1E101
:102200000C94E4136A01122FB02E2BE3201720F058
:10221000FF24F394F00E02C02CE3F22E0F2D27E0E2
:10222000AE014F5F5F4F0E945612BC014981842F5F
:102230008970813031F0E1FC06C0E0FE06C090E21A
:1022400005C09DE203C09BE201C090E05E2D50718D
:1022500043FF3CC0911102C083E001C084E08117BC
:1022600018F4212F281B01C020E051110BC0F601EA
:10227000822F30E2882319F031938150FBCFC20EB8
:10228000D11C20E0992329F0D6019C93F6013196C8
:102290006F01C6010396E2FE0AC03EE4D6013C93FC
:1022A00041E411964C93119712963C9306C03EE67A
:1022B000F601308341E641833283FC01322F40E254
:1022C000332309F442C041933150FACF42FF44C056
:1022D000911102C083E001C084E0811718F4212F1E
:1022E000281B01C020E051110BC0F601822F30E203
:1022F000882319F031938150FBCFC20ED11C20E00E
:10230000992329F0D6019C93F60131966F01C601FD
:102310000396E2FE0BC039E4D6013C933EE41196ED
:102320003C93119736E412963C9307C039E6F601C8
:1023300030833EE6318336E63283FC01322F40E2C1
:10234000332319F041933150FBCFFC01E20FF11D13
:1023500010828EEF9FEFA6C021E030E0911102C005
:1023600020E030E0161617061CF4FB01319602C07F
:10237000E1E0F0E02E0F3F1FBB2021F0EB2DF0E05D
:10238000319602C0E0E0F0E02E0F3F1FE12FF0E0B9
:102390002E173F071CF4121B212F01C020E08E2DA9
:1023A000887159F4F601822F30E2882319F03193B5
:1023B0008150FBCFC20ED11C20E0992329F0D60119
:1023C0009C93F60131966F0151110BC0F601822FDB
:1023D00090E3882319F091938150FBCFC20ED11C5A
:1023E00020E00F2D060F9A81342F307144FF03C077
:1023F000913309F40150101624F4093018F008E064
:1024000001C001E0AB0177FF02C040E050E0FB01FA
:10241000E41BF50BA1E0B0E0AC0FBD1FEA0FFB1F02
:102420008EE2A82E4B01801A91080B2D10E0119519
:10243000019511094F3FBFEF5B0721F4D601AC9224
:1024400011966D01641775072CF08416950614F427
:10245000818101C080E3415051093196D601119626
:102460007D014017510724F0D6018C936701E2CF1C
:102470006417750739F4963320F4953319F4311144
:1024800001C081E3F6018083F701822F90E2882367
:1024900019F091938150FBCFF701E20FF11D1082EB
:1024A00080E090E02996ECE00C940014283008F0CD
:1024B00027E03327DA01990F311D87FD91600096DF
:1024C0006105710539F432602E5F3D9330E32A9542
:1024D000E1F708959F3F30F080387105610509F0FC
:1024E0003C5F3C5F3D93913008F08068911DDF9325
:1024F000CF931F930F93FF92EF92192F987F96958A
:10250000E92F96959695E90FFF27E452FF4F9927FB
:102510003327EE24FF24A701E701059008940794D0
:1025200028F4360FE71EF81E491F511D660F771F4E
:10253000881F991F0694A1F70590079428F4E70EC9
:10254000F81E491F561FC11D770F881F991F661F50
:102550000694A1F70590079428F4F80E491F561F1A
:10256000C71FD11D880F991F661F771F0694A1F7FB
:102570000590079420F4490F561FC71FD81F990FC5
:10258000661F771F881F0694A9F78491109517700E
:1025900041F0D695C79557954795F794E7941A95C6
:1025A000C1F7E2E8F0E068941590159135916591D6
:1025B000959105907FE27395E118F10A430B560B54
:1025C000C90BD009C0F7E10CF11E431F561FC91FEC
:1025D000D01D7EF4703311F48A95E6CFE894015053
:1025E00030F0080F0AF40027021708F4202F239573
:1025F000022F7A3328F079E37D932A95E9F710C00A
:102600007D932A9589F60694979567953795179542
:102610001794E118F10A430B560BC90BD00998F037
:1026200023957E9173957A3308F070E37C932013A1
:10263000B8F77E9170617D9330F0839571E37D935F
:1026400070E32A95E1F71124EF90FF900F911F910D
:10265000CF91DF91992787FD90950895FC01059012
:10266000615070400110D8F7809590958E0F9F1F94
:102670000895FC016150704001900110D8F78095D9
:1026800090958E0F9F1F08950F931F93CF93DF9305
:10269000FB01238121FD03C08FEF9FEF2CC022FFA0
:1026A00016C046815781248135814217530744F46F
:1026B000A081B1819D012F5F3F4F318320838C9397
:1026C000268137812F5F3F4F3783268314C08B01CC
:1026D000EC01FB010084F185E02D0995892BE1F6E1
:1026E000D80116968D919C911797019617969C93F9
:1026F0008E931697CE01DF91CF911F910F91089580
:10270000FA01AA27283051F1203181F1E8946F9322
:102710006E7F6E5F7F4F8F4F9F4FAF4FB1E03ED0C8
:10272000B4E03CD0670F781F891F9A1FA11D680F66
:10273000791F8A1F911DA11D6A0F711D811D911D99
:10274000A11D20D009F468943F912AE0269F11240E
:102750003019305D3193DEF6CF010895462F477072
:10276000405D4193B3E00FD0C9F7F6CF462F4F70CD
:10277000405D4A3318F0495D31FD4052419302D02B
:10278000A9F7EACFB4E0A6959795879577956795D1
:10279000BA95C9F700976105710508959B01AC01D1
:1027A0000A2E06945795479537952795BA95C9F7F8
:1027B000620F731F841F951FA01D08952F923F92D3
:1027C0004F925F926F927F928F929F92AF92BF9241
:1027D000CF92DF92EF92FF920F931F93CF93DF93ED
:1027E000CDB7DEB7CA1BDB0B0FB6F894DEBF0FBE4A
:1027F000CDBF09942A88398848885F846E847D8497
:102800008C849B84AA84B984C884DF80EE80FD8098
:102810000C811B81AA81B981CE0FD11D0FB6F8940E
:0E282000DEBF0FBECDBFED010895F894FFCFCF
:08282E0025732F0025730A0039
:00000001FF
