:100000000C94BE000C94DB000C94DB000C94DB0021
:100010000C94DB000C94DB000C94DB000C94DB00F4
:100020000C94DB000C94DB000C94DB000C94DB00E4
:100030000C94DB000C94DB000C94DB000C94DB00D4
:100040000C94DB000C94DB000C94DB000C94DB00C4
:100050000C94DB00084AD73B3BCE016E84BCBFFD4D
:10006000C12F3D6C74319ABD56833DDA3D00C77F88
:1000700011BED9E4BB4C3E916BAAAABE0000008021
:100080003F0000407A10F35A00A0724E1809001089
:10009000A5D4E80000E87648170000E40B540200FD
:1000A00000CA9A3B000000E1F50500008096980028
:1000B000000040420F000000A08601000000102751
:1000C00000000000E80300000000640000000000E1
:1000D0000A00000000000100000000002C76D88813
:1000E000DC674F0823DFC1DFAE59E1B1B796E5E326
:1000F000E453C63AE651997696E8E6C28426EB893F
:100100008C9B62ED407C6FFCEFBC9C9F40F2BAA5DB
:100110006FA5F490055A2AF75C936B6CF9676DC173
:100120001BFCE0E40D47FEF520E6B500D0ED902E77
:100130000300943577050080841E080000204E0AD5
:10014000000000C80C333333330F986E1283114113
:10015000EF8D2114893BE65516CFFEE6DB18D184DE
:100160004B381BF77C1D901DA4BBE4242032847205
:100170005E228100C9F124ECA1E53D2711241FBEB8
:10018000CFE5D8E0DEBFCDBF10E0A0E6B0E0E8EEFE
:10019000F6E202C005900D92A639B107D9F721E029
:1001A000A6E9B0E001C01D92A234B207E1F70E94B7
:1001B000C7070C9472130C94000011B88CE080B93E
:1001C000089594EA96BF4FEF50E060E070E006B605
:1001D00007FC06C04150510961097109C0F706C00A
:1001E000452B462B472B11F481E0089591B1987F60
:1001F000983011F09031C1F783B984E886BF8FEF52
:1002000090E0A0E0B0E006B607FC05C00197A109A8
:10021000B109C8F704C0892B8A2B8B2B29F381B134
:10022000887F883111F08034F9F680E0089544EA3F
:1002300054E864E946BF20E030E006B607FC06C09B
:100240002F5F3F4F211591E03907B9F791B1987FA2
:10025000983011F0903171F783B956BF20E030E04B
:1002600006B607FC06C02F5F3F4F211591E0390706
:10027000B9F791B1987F903211F0983569F466BF63
:1002800020E030E006B604FED5CF2F5F3F4F2115AA
:1002900091E03907B9F7CECF08950C94E10084E9D5
:1002A00086BF80E090E006B604FE05C00196811589
:1002B00021E09207C1F7089583B984E886BF8FEFE4
:1002C00090E0A0E0B0E006B607FC05C00197A109E8
:1002D000B109C8F704C0892B8A2B8B2B39F091B157
:1002E000987F81E0983219F480E0089581E00895C4
:1002F00084EC86BF8FEF90E0A0E0B0E006B607FC8C
:1003000005C00197A109B109C8F704C0892B8A2B40
:100310008B2B11F083B1089580E0089584E886BFA7
:100320008FEF90E0A0E0B0E006B607FC05C00197B3
:10033000A109B109C8F704C0892B8A2B8B2B11F0B6
:1003400083B1089580E008952FEF82E597E0215072
:1003500080409040E1F700C0000080ED0E9417014E
:1003600089E10E945C0187E00E945C010E944F01CC
:1003700080ED0E9417018BE60E945C0181E00E94E3
:100380005C010E944F0180ED0E9417018AE10E94EA
:100390005C0180E00E945C010E944F0180ED0E94A0
:1003A00017018BE10E945C0188E10E945C010E94C0
:1003B0004F0180ED0E9417018CE10E945C0180E0FA
:1003C0000E945C010E944F0180ED0E9417018FE1A5
:1003D0000E945C0180E00E945C010E944F0180ED60
:1003E0000E94170183E20E945C0180E00E945C0190
:1003F0000E944F0180ED0E9417018DE10E945C0177
:1004000080E00E945C010E944F0180ED0E94170174
:100410008EE10E945C0180E00E945C010E944F011D
:1004200080ED0E94170180E20E945C0180E00E9442
:100430005C010E944F0180ED0E94170182E20E9440
:100440005C0180E00E945C010E944F0180ED0E94EF
:10045000170181E20E945C0180E00E945C010E9421
:100460004F0180ED0E94170184E20E945C0180E050
:100470000E945C010E944F0180ED0E94170186E2FC
:100480000E945C0180E00E945C010E944F0180EDAF
:100490000E94170185E20E945C0180E00E945C01DD
:1004A0000E944F0180ED0E94170187E20E945C01CB
:1004B00080E00E945C010E944F0180ED0E941701C4
:1004C00089E20E945C0180E00E945C010E944F0171
:1004D00080ED0E94170188E20E945C0180E00E948A
:1004E0005C010E944F0180ED0E9417018AE20E9488
:1004F0005C0180E00E945C010E944F0180ED0E943F
:1005000017018CE20E945C0180E00E945C010E9465
:100510004F0180ED0E9417018BE20E945C0180E098
:100520000E945C010E944F0180ED0E9417018DE244
:100530000E945C0180E00E945C010E944F0180EDFE
:100540000E9417018FE20E945C0180E00E945C0122
:100550000E944F0180ED0E9417018EE20E945C0113
:1005600080E00E945C010E944F0180ED0E94170113
:1005700080E30E945C0180E00E945C010E944F01C8
:1005800080ED0E94170182E30E945C0180E00E94DE
:100590005C010E944F0180ED0E94170181E30E94DF
:1005A0005C0180E00E945C010E944F0180ED0E948E
:1005B000170184E30E945C0180E00E945C010E94BC
:1005C0004F0180ED0E94170183E30E945C0180E0EF
:1005D0000E945C010E944F0180ED0E94170185E39B
:1005E0000E945C0180E00E945C010E944F0180ED4E
:1005F0000E94170187E30E945C0180E00E945C0179
:100600000E944F0180ED0E94170188E30E945C0167
:1006100081E00E945C010E944F0180ED0E94170161
:1006200083E60E945C0180E00E945C010E944F0111
:1006300080ED0E94170184E60E945C0180E00E9428
:100640005C010E944F0180ED0E94170185E60E9427
:100650005C0180E00E945C010E944F0180ED0E94DD
:10066000170186E60E945C0180E00E945C010E9406
:100670004F0180ED0E94170187E60E945C0180E037
:100680000E945C010E944F0180ED0E94170188E6E4
:100690000E945C0180E00E945C010E944F0180ED9D
:1006A0000E94170189E60E945C0180E00E945C01C3
:1006B0000E944F0180ED0E9417018AE60E945C01B2
:1006C00080E00E945C010E944F0180ED0E941701B2
:1006D0008CE60E945C0180E00E945C010E944F0158
:1006E00080ED0E94170184E70E945C0180E00E9477
:1006F0005C010C944F0180ED0E9417018BE30E9476
:100700005C0181ED0C944D01CF930E947B0382ED3F
:100710000E947801C82F82ED0E9478016C2F70E052
:10072000762F6627682B719561957109072E000C4D
:10073000880B990B0E94860C609316017093170129
:10074000809318019093190182ED0E947801C82FBF
:1007500082ED0E9478016C2F70E0762F6627682B5F
:10076000719561957109072E000C880B990B0E94F9
:10077000860C6093F6007093F7008093F8009093D6
:10078000F90082ED0E947801C82F82ED0E94780165
:100790006C2F70E0762F6627682B71956195710933
:1007A000072E000C880B990B0E94860C6093DA00D0
:1007B0007093DB008093DC009093DD0082ED0E945B
:1007C0007801C82F82ED0E9478016C2F70E0762F9F
:1007D0006627682B719561957109072E000C880BAF
:1007E000990B0E94860C6093EE007093EF0080934B
:1007F000F0009093F10082ED0E947801C82F82ED05
:100800000E9478016C2F70E0762F6627682B719517
:1008100061957109072E000C880B990B0E94860CBC
:1008200060932E0170932F018093300190933101DA
:1008300082ED0E947801C82F80E00E948E016C2F0B
:1008400070E0762F6627682B719561957109072EE8
:10085000000C880B990B0E94860C60930E0170931C
:100860000F018093100190931101CF910C944F01CF
:100870008AB188618AB980B5866880BD83E389B909
:1008800010BC08955D9BFECF8CB908950F931F9304
:10089000CF938C01C0E0F801EC0FF11D808188231B
:1008A00021F00E944204CF5FF6CFCF911F910F91AC
:1008B00008954F925F926F927F928F929F92AF9224
:1008C000BF92CF92DF92EF92FF920F931F93CF933D
:1008D000DF93CDB7DEB76C970FB6F894DEBF0FBECF
:1008E000CDBF6D8B7E8B8F8B988FCA01B90167014D
:1008F00078012091BE003091BF004091C00050911E
:10090000C100298B3A8B4B8B5C8B0E943B0B609315
:10091000FE007093FF008093000190930101A701F6
:1009200096010E946A0D2091C2003091C30040914F
:10093000C4005091C5000E943C0B6D877E878F8755
:10094000988B8091BA009091BB00A091BC00B091AF
:10095000BD0089839A83AB83BC839C01AD01C70131
:10096000B6010E946A0D4B015C012091B2003091EA
:10097000B3004091B4005091B5002D833E834F8366
:1009800058878091B6009091B700A091B800B091BF
:10099000B90089879A87AB87BC87C501B4010E94DB
:1009A0003B0B29853A854B855C850E943B0B20914A
:1009B00068003091690040916A0050916B000E947C
:1009C0003C0BA70196010E946A0DAEEAB0E02D91A2
:1009D0003D914D915C910E943C0B2B013C01A50186
:1009E00094016D817E818F8198850E943B0B6D8380
:1009F0007E838F839887A501940169857A858B858D
:100A00009C850E943B0B69877A878B879C87209106
:100A10006400309165004091660050916700C70105
:100A2000B6010E946A0D29813A814B815C810E9446
:100A30003C0B698F7A8F8B8F9C8F20916000309157
:100A400061004091620050916300C301B2010E94B5
:100A50003C0B6B017C016093D6007093D7008093B0
:100A6000D8009093D9009B01AC01C301B2010E9450
:100A7000DC0B4B015C0106E211E0F801608371833D
:100A800082839383A701960169857A858B859C85EE
:100A90000E94DC0B6B017C01D80114966D937D9351
:100AA0008D939C9317972D853E854F8558896D8929
:100AB0007E898F89988D0E943B0B69837A838B8313
:100AC0009C836093060170930701809308019093C3
:100AD00009019B01AC01C501B4010E946A0D2D857D
:100AE0003E854F8558890E943C0B6D877E878F8796
:100AF000988B6093C2007093C3008093C40090935E
:100B0000C50029813A814B815C81C701B6010E94F1
:100B10006A0D29893A894B895C890E943C0B609354
:100B2000BE007093BF008093C0009093C100A501E8
:100B30009401C301B2010E946A0D9B01AC01C30183
:100B4000B2010E943B0B2B013C01EEEAF0E0608316
:100B5000718382839383A50194016D817E818F814E
:100B600098850E946A0D9B01AC016D817E818F8109
:100B700098850E943B0B4B015C016093B20070931F
:100B8000B3008093B4009093B500A3019201C70114
:100B9000B6010E946A0D9B01AC0169857A858B853F
:100BA0009C850E943B0B6093B6007093B7008093C6
:100BB000B8009093B900A5019401C701B6010E9445
:100BC0006A0D9B01AC01698D7A8D8B8D9C8D0E9485
:100BD0003B0B6093BA007093BB008093BC00909372
:100BE000BD006D857E858F8598896C960FB6F894CB
:100BF000DEBF0FBECDBFDF91CF911F910F91FF9050
:100C0000EF90DF90CF90BF90AF909F908F907F90AC
:100C10006F905F904F9008954F925F926F927F9286
:100C20008F929F92AF92BF92CF92DF92EF92FF92FC
:100C30000F931F93CF93DF93CDB7DEB76C970FB6AB
:100C4000F894DEBF0FBECDBF6D8B7E8B8F8B988FE0
:100C5000CA01B901670178012091A6003091A7006F
:100C60004091A8005091A900298B3A8B4B8B5C8B4B
:100C70000E943B0B60932201709323018093240117
:100C800090932501A70196010E946A0D2091AA0068
:100C90003091AB004091AC005091AD000E943C0BF4
:100CA0006D877E878F87988B8091A2009091A3009B
:100CB000A091A400B091A50089839A83AB83BC83E3
:100CC0009C01AD01C701B6010E946A0D4B015C0198
:100CD00020919A0030919B0040919C0050919D0082
:100CE0002D833E834F83588780919E0090919F0073
:100CF000A091A000B091A10089879A87AB87BC879B
:100D0000C501B4010E943B0B29853A854B855C8562
:100D10000E943B0B209168003091690040916A006D
:100D200050916B000E943C0BA70196010E946A0D36
:100D3000A6E9B0E02D913D914D915C910E943C0B54
:100D40002B013C01A50194016D817E818F819885E5
:100D50000E943B0B6D837E838F839887A50194014E
:100D600069857A858B859C850E943B0B69877A878C
:100D70008B879C87209164003091650040916600CC
:100D800050916700C701B6010E946A0D29813A811E
:100D90004B815C810E943C0B698F7A8F8B8F9C8F7B
:100DA0002091600030916100409162005091630099
:100DB000C301B2010E943C0B6B017C016093EA000D
:100DC0007093EB008093EC009093ED009B01AC01DD
:100DD000C301B2010E94DC0B4B015C010AE111E08E
:100DE000F8016083718382839383A70196016985EB
:100DF0007A858B859C850E94DC0B69837A838B8343
:100E00009C83D80114966D937D938D939C93179733
:100E10002D853E854F8558896D897E898F89988D6E
:100E20000E943B0B6B017C016093E2007093E30036
:100E30008093E4009093E5009B01AC01C501B401EF
:100E40000E946A0D2D853E854F8558890E943C0B76
:100E50006D877E878F87988B6093AA007093AB0015
:100E60008093AC009093AD00A701960169817A81CF
:100E70008B819C810E946A0D29893A894B895C8902
:100E80000E943C0B6093A6007093A7008093A8007B
:100E90009093A900A5019401C301B2010E946A0DBB
:100EA0009B01AC01C301B2010E943B0B2B013C0131
:100EB000E6E9F0E06083718382839383A501940166
:100EC0006D817E818F8198850E946A0D9B01AC01A6
:100ED0006D817E818F8198850E943B0B6B017C0127
:100EE00060939A0070939B0080939C0090939D0068
:100EF00080902A0190902B01A0902C01B0902D01A0
:100F0000A5019401C301B2010E946A0D9B01AC01CD
:100F100069857A858B859C850E943B0B60939E003A
:100F200070939F008093A0009093A100A50194016D
:100F3000C701B6010E946A0D9B01AC01698D7A8DD3
:100F40008B8D9C8D0E943B0B6093A2007093A3003D
:100F50008093A4009093A5006D857E858F859889E8
:100F60006C960FB6F894DEBF0FBECDBFDF91CF9168
:100F70001F910F91FF90EF90DF90CF90BF90AF90B7
:100F80009F908F907F906F905F904F900895CF9338
:100F9000DF93CDB7DEB7AE970FB6F894DEBF0FBEC6
:100FA000CDBF0E94DD000E94A4010E9438041E01F2
:100FB00025E1220E311C0E94840320E030E040E84D
:100FC00058E360911601709117018091180190917A
:100FD00019010E946A0D6B017C01609316017093E8
:100FE0001701809318019093190120E030E040E848
:100FF00058E36091F6007091F7008091F8009091AD
:10100000F9000E946A0D6F8F78A389A39AA3609359
:10101000F6007093F7008093F8009093F90020E0B9
:1010200030E040E858E36091DA007091DB00809195
:10103000DC009091DD000E946A0D4B015C01609321
:10104000DA007093DB008093DC009093DD0023E3F3
:1010500033E343E851E46091EE007091EF0080913A
:10106000F0009091F1000E94DC0B2B013C01609399
:10107000EE007093EF008093F0009093F10023E373
:1010800033E343E851E460912E0170912F01809188
:101090003001909131010E94DC0B6BA37CA38DA3E6
:1010A0009EA360932E0170932F0180933001909343
:1010B000310123E333E343E851E460910E01709181
:1010C0000F0180911001909111010E94DC0B6FA320
:1010D00078A789A79AA760930E0170930F01809358
:1010E00010019093110188E599E3A4E3BCE3809398
:1010F000C6009093C700A093C800B093C900A50193
:101100009401C501B4010E946A0D6BA77CA78DA74D
:101110009EA7A7019601C701B6010E946A0D2BA5E3
:101120003CA54DA55EA50E943C0B0E94DD0D9B01D8
:10113000AC01C701B6010E94DC0B0E94A80B27EC92
:101140003BE445E652E40E946A0D4B015C0160936A
:1011500036017093370180933801909339012F8DB8
:1011600038A149A15AA1CA01B9010E946A0D2BA553
:101170003CA54DA55EA50E943C0B0E94DD0D9B0188
:10118000AC01C701B60190580E94DC0B0E94A80B6D
:1011900027EC3BE445E652E40E946A0D609332017D
:1011A0007093330180933401909335018092C20093
:1011B0009092C300A092C400B092C5006093AA00B0
:1011C0007093AB008093AC009093AD0040921201FD
:1011D0005092130160921401709215018BA19CA191
:1011E000ADA1BEA180933A0190933B01A0933C0135
:1011F000B0933D018FA198A5A9A5BAA58093E6005B
:101200009093E700A093E800B093E900C090CE006F
:10121000D090CF00E090D000F090D100C092DE00DE
:10122000D092DF00E092E000F092E1008091CA00ED
:101230009091CB00A091CC00B091CD008093F200B2
:101240009093F300A093F400B093F5004092020154
:101250005092030160920401709205018BA19CA140
:10126000ADA1BEA18093FA009093FB00A093FC0077
:10127000B093FD0020E030E044EB52ECC501B40136
:101280000E94D70B87FF0AC020E030E044EB52E415
:10129000C701B6010E945D0D1816A4F020E030E0F1
:1012A00044EB52E4C501B4010E945D0D18169CF494
:1012B00020E030E044EB52ECC701B6010E94D70BAE
:1012C00087FF09C08092D2009092D300A092D400F0
:1012D000B092D50014C018E5E12E19E3F12E04E315
:1012E0001CE3A3019201C501B4010E94590460935B
:1012F000CE007093CF008093D0009093D100609186
:10130000CE007091CF008091D0009091D1000E94CA
:101310004E0C9B0177FF04C022273327261B370B77
:101320002B3531058CF08091020190910301A09141
:101330000401B0910501B0588093FA009093FB002E
:10134000A093FC00B093FD00E090C600F090C700B1
:101350000091C8001091C9002091FA003091FB0063
:101360004091FC005091FD00609132017091330179
:1013700080913401909135010E940C066B017C0133
:101380006093CA007093CB008093CC009093CD0003
:101390008090320190903301A0903401B0903501DB
:1013A00020E030E044EB52ECC501B4010E94D70BC1
:1013B00087FF0AC020E030E044EB52E4C701B601E9
:1013C0000E945D0D1816A4F020E030E044EB52E4DA
:1013D000C501B4010E945D0D1816DCF420E030E078
:1013E00044EB52ECC701B6010E94D70B87FF11C036
:1013F0008092AA009092AB00A092AC00B092AD0097
:101400008092CA009092CB00A092CC00B092CD0006
:101410001CC0E090C600F090C7000091C800109179
:10142000C9002091FA003091FB004091FC005091DE
:10143000FD00C501B4010E940C066093CA007093C0
:10144000CB008093CC009093CD006091CA00709146
:10145000CB008091CC009091CD000E944E0C9B015E
:1014600077FF04C022273327261B370B2B35310586
:101470008CF08091020190910301A0910401B09140
:101480000501B0588093020190930301A0930401D9
:10149000B0930501E090C600F090C7000091C8002D
:1014A0001091C90020910201309103014091040183
:1014B000509105016091360170913701809138019A
:1014C000909139010E9459049B01AC016093CE00B8
:1014D0007093CF008093D0009093D1006091DE0094
:1014E0007091DF008091E0009091E1000E943B0B41
:1014F00026E636E646E65FE30E946A0D4B015C0194
:1015000060930A0170930B0180930C0190930D017D
:101510002091CA003091CB004091CC005091CD0079
:101520006091F2007091F3008091F4009091F500C9
:101530000E943B0B20E030E040E05FE30E946A0D38
:101540006B017C0160933E0170933F0180934001E9
:10155000909341012DEC3CEC4CE45DE360910E0175
:1015600070910F0180911001909111010E946A0DFC
:1015700060930E0170930F018093100190931101FD
:101580002AE939E949E15FE3C501B4010E94D70BBB
:1015900087FF12C02AE939E949E15FEBC501B401CF
:1015A0000E945D0D181644F410920A0110920B016E
:1015B00010920C0110920D012AE939E949E15FE32B
:1015C000C701B6010E94D70B87FF12C02AE939E98B
:1015D00049E15FEBC701B6010E945D0D181644F4A6
:1015E00010923E0110923F01109240011092410171
:1015F00060910A0170910B0180910C0190910D0195
:10160000810122E043E00E94360E3F922F92ACE629
:10161000B0E0BF93AF9381E090E08C0F9D1F9F934C
:101620008F930E94560ECE0101960E94460460914F
:101630003E0170913F01809140019091410122E073
:1016400043E00E94360E3F922F92A2E8B0E0BF9393
:10165000AF9381E090E08C0F9D1F9F938F930E942A
:10166000560ECE0101960E9446040FB6F894DEBFD6
:101670000FBECDBFA0CC5058BB27AA270E94530B4A
:101680000C94230D0E94150D38F00E941C0D20F0C3
:1016900039F49F3F19F426F40C94EB0C0EF4E0950A
:1016A000E7FB0C94E50CE92F0E94340D58F3BA17B0
:1016B000620773078407950720F079F4A6F50C9468
:1016C000560D0EF4E0950B2EBA2FA02D0B01B9018B
:1016D00090010C01CA01A0011124FF27591B99F0A8
:1016E000593F50F4503E68F11A16F040A22F232FB4
:1016F000342F4427585FF3CF469537952795A79504
:10170000F0405395C9F77EF41F16BA0B620B730BAA
:10171000840BBAF09150A1F0FF0FBB1F661F771F1B
:10172000881FC2F70EC0BA0F621F731F841F48F4D0
:10173000879577956795B795F7959E3F08F0B0CF59
:101740009395880F08F09927EE0F97958795089540
:10175000DF93DD27B92FBF7740E85FE31616170642
:1017600048075B0718F4D92F0E94620D9F938F934F
:101770007F936F930E941D0EE4E5F0E00E94EE0C53
:101780000E94230D2F913F914F915F910E947D0DFB
:10179000DD2351F09058A2EA2AED3FE049EC5FE3E7
:1017A000D0785D270E94530BDF910C94230D0E948B
:1017B000C10C08F481E008950E94F00B0C94230DF5
:1017C0000E941C0D58F00E94150D40F029F45F3F57
:1017D00029F00C94E50C51110C94570D0C94EB0C62
:1017E0000E94340D68F39923B1F3552391F3951BAF
:1017F000550BBB27AA2762177307840738F09F5F32
:101800005F4F220F331F441FAA1FA9F335D00E2E9E
:101810003AF0E0E832D091505040E695001CCAF70B
:101820002BD0FE2F29D0660F771F881FBB1F2617CE
:1018300037074807AB07B0E809F0BB0B802DBF01A5
:10184000FF2793585F4F3AF09E3F510578F00C9474
:10185000E50C0C94570D5F3FE4F3983ED4F3869566
:1018600077956795B795F7959F5FC9F7880F911D95
:101870009695879597F90895E1E0660F771F881F81
:10188000BB1F621773078407BA0720F0621B730B34
:10189000840BBA0BEE1F88F7E09508950E94550C53
:1018A0006894B1110C94570D08950E943C0D88F076
:1018B0009F5798F0B92F9927B751B0F0E1F0660F14
:1018C000771F881F991F1AF0BA95C9F714C0B13055
:1018D00091F00E94560DB1E008950C94560D672FBB
:1018E000782F8827B85F39F0B93FCCF38695779584
:1018F0006795B395D9F73EF490958095709561956D
:101900007F4F8F4F9F4F0895E89409C097FB3EF497
:1019100090958095709561957F4F8F4F9F4F99233C
:10192000A9F0F92F96E9BB279395F69587957795BA
:101930006795B795F111F8CFFAF4BB0F11F460FF7A
:101940001BC06F5F7F4F8F4F9F4F16C0882311F0D2
:1019500096E911C0772321F09EE8872F762F05C0E6
:10196000662371F096E8862F70E060E02AF09A9581
:10197000660F771F881FDAF7880F9695879597F976
:101980000895990F0008550FAA0BE0E8FEEF161610
:101990001706E807F907C0F012161306E407F50763
:1019A00098F0621B730B840B950B39F40A2661F0D7
:1019B000232B242B252B21F408950A2609F4A1407A
:1019C000A6958FEF811D811D089597F99F6780E887
:1019D00070E060E008959FEF80EC0895DF93CF936F
:1019E0001F930F93FF92EF92DF927B018C0168941B
:1019F00006C0DA2EEF010E947D0DFE01E894A5914C
:101A00002591359145915591A6F3EF010E94530B15
:101A1000FE019701A801DA9469F7DF90EF90FF903B
:101A20000F911F91CF91DF91089500240A9416160B
:101A3000170618060906089500240A9412161306BC
:101A4000140605060895092E0394000C11F488234A
:101A500052F0BB0F40F4BF2B11F460FF04C06F5F66
:101A60007F4F8F4F9F4F089557FD9058440F551F3C
:101A700059F05F3F71F04795880F97FB991F61F010
:101A80009F3F79F087950895121613061406551F87
:101A9000F2CF4695F1DF08C0161617061806991FF3
:101AA000F1CF86957105610508940895E894BB27E8
:101AB00066277727CB0197F908950E94C10C08F497
:101AC0008FEF08959B01AC0160E070E080E89FE338
:101AD0000C94DC0B0E947D0D0C94230D0E94150DBF
:101AE00038F00E941C0D20F0952311F00C94E50CA9
:101AF0000C94EB0C11240C94570D0E94340D70F3D0
:101B0000959FC1F3950F50E0551F629FF001729FA2
:101B1000BB27F00DB11D639FAA27F00DB11DAA1FB1
:101B2000649F6627B00DA11D661F829F2227B00DFE
:101B3000A11D621F739FB00DA11D621F839FA00D89
:101B4000611D221F749F3327A00D611D231F849FD9
:101B5000600D211D822F762F6A2F11249F57504030
:101B60009AF0F1F088234AF0EE0FFF1FBB1F661FAB
:101B7000771F881F91505040A9F79E3F510580F074
:101B80000C94E50C0C94570D5F3FE4F3983ED4F3AE
:101B9000869577956795B795F795E7959F5FC1F718
:101BA000FE2B880F911D9695879597F9089519F446
:101BB00016F40C94EB0C0C94210E0E943C0DB8F31F
:101BC0009923C9F3B6F39F57550B87FF0E942F0E39
:101BD0000024A0E640EA900180585695979528F495
:101BE000805C660F771F881F20F02617370748078D
:101BF00030F4621B730B840B202931294A2BA695E4
:101C000017940794202531254A2758F7660F771F28
:101C1000881F20F026173707480730F4620B730B34
:101C2000840B200D311D411DA09581F7B901842F32
:101C30009158880F9695879508959B01AC010C9457
:101C40006A0D9F3F31F0915020F487957795679505
:101C5000B795880F911D9695879597F9089591509E
:101C60005040660F771F881FD2F70895EF920F93A9
:101C70001F93CF93DF93E80147FD02C034E001C01A
:101C800034E1042E000C550B57FF03C051954195CC
:101C90005109E32E022F242FAE010E945910CE01CC
:101CA000DF91CF911F910F91EF900895AEE0B0E0DA
:101CB000ECE5FEE00C9449130D891E8986E08C83C7
:101CC0001A8309838FEF9FE79E838D83AE01475E62
:101CD0005F4F6F89788DCE0101960E94780EEF815B
:101CE000F885E00FF11F10822E96E4E00C94651346
:101CF000ABE0B0E0EEE7FEE00C943B136C017B013F
:101D00008A01FC0117821682838181FFCCC1CE013A
:101D100001963C01F6019381F70193FD859193FFB4
:101D200081917F01882309F4BAC1853239F493FD8A
:101D3000859193FF81917F01853229F4B60190E06E
:101D40000E94A112E7CF912C212C312CFFE1F31539
:101D5000D8F08B3279F038F4803279F08332A1F404
:101D6000232D20611DC08D3261F0803369F4232D55
:101D7000216016C0832D8260382EE32DE4603E2E54
:101D80002AC0F32DF8601DC037FC2DC020ED280FB0
:101D90002A3040F08E32B9F436FC81C1232D206404
:101DA000322E19C036FE06C08AE0989E200D1124FE
:101DB000922E11C0EAE02E9E200D1124222EF32D2A
:101DC000F0623F2E08C08C3621F4832D8068382EB7
:101DD00002C0883641F4F70193FD859193FF81910C
:101DE0007F018111B3CF982F9F7D9554933028F4B4
:101DF0000C5F1F4F9FE399830DC0833631F083370B
:101E000071F0833509F059C021C0F80180818983C0
:101E10000E5F1F4F88248394912C530113C0280117
:101E2000F2E04F0E511CF801A080B18036FE03C0D5
:101E3000692D70E002C06FEF7FEFC5010E9496121E
:101E40004C018201F32DFF773F2E16C0280122E0BE
:101E5000420E511CF801A080B18036FE03C0692DEE
:101E600070E002C06FEF7FEFC5010E948B124C0142
:101E7000F32DF0683F2E820133FC1BC0822D90E0D1
:101E800088169906B0F4B60180E290E00E94A11293
:101E90002A94F4CFF50137FC859137FE81915F01DB
:101EA000B60190E00E94A11221102A9421E0821A2A
:101EB00091088114910471F7E8C0843611F08936D5
:101EC00041F5F80137FE07C06081718182819381FD
:101ED0000C5F1F4F08C060817181072E000C880BBA
:101EE000990B0E5F1F4FF32DFF763F2E97FF09C012
:101EF00090958095709561957F4F8F4F9F4FF068BB
:101F00003F2E2AE030E0A3010E94DD12882E8618C1
:101F100045C0853731F4232D2F7EB22E2AE030E0E4
:101F200025C0932D997FB92E8F36C1F018F48835CE
:101F300079F0B5C0803719F0883721F0B0C0E92FAB
:101F4000E061BE2EB4FE0DC0FB2DF460BF2E09C0B3
:101F500034FE0AC0292F2660B22E06C028E030E0E9
:101F600005C020E130E002C020E132E0F801B7FE18
:101F700007C060817181828193810C5F1F4F06C011
:101F80006081718180E090E00E5F1F4FA3010E948D
:101F9000DD12882E8618FB2DFF773F2E36FE0DC0F2
:101FA000232D2E7FA22E891458F434FE0BC032FC50
:101FB00009C0832D8E7EA82E05C0B82CA32C03C08B
:101FC000B82C01C0B92CA4FE0FC0FE01E80DF11D14
:101FD0008081803321F49A2D997EA92E09C0A2FE1A
:101FE00006C0B394B39404C08A2D867809F0B394E4
:101FF000A3FC11C0A0FE06C0B21488F4280C922CD9
:102000009B180EC0B21460F4B60180E290E00E940A
:10201000A112B394F7CFB21418F42B1802C0982C65
:10202000212CA4FE10C0B60180E390E00E94A11212
:10203000A2FE17C0A1FC03C088E790E002C088E5BB
:1020400090E0B6010CC08A2D867859F0A1FE02C03E
:102050008BE201C080E2A7FC8DE2B60190E00E9415
:10206000A112891438F4B60180E390E00E94A11215
:102070009A94F7CF8A94F301E80DF11D8081B6019F
:1020800090E00E94A1128110F5CF222009F442CEE7
:10209000B60180E290E00E94A1122A94F6CFF601E8
:1020A0008681978102C08FEF9FEF2B96E2E10C941F
:1020B0005713A9E0B0E0EFE5F0E10C9441136A0199
:1020C000122FB02E2BE3201720F0FF24F394F00EF4
:1020D00002C02CE3F22E0F2D27E0AE014F5F5F4FC1
:1020E0000E94B311BC014981842F8970813031F085
:1020F000E1FC06C0E0FE06C090E205C09DE203C020
:102100009BE201C090E05E2D507143FF3CC09111F5
:1021100002C083E001C084E0811718F4212F281B3E
:1021200001C020E051110BC0F601822F30E288235C
:1021300019F031938150FBCFC20ED11C20E09923BE
:1021400029F0D6019C93F60131966F01C6010396E2
:10215000E2FE0AC03EE4D6013C9341E411964C9362
:10216000119712963C9306C03EE6F601308341E695
:1021700041833283FC01322F40E2332309F442C011
:1021800041933150FACF42FF44C0911102C083E025
:1021900001C084E0811718F4212F281B01C020E022
:1021A00051110BC0F601822F30E2882319F03193D0
:1021B0008150FBCFC20ED11C20E0992329F0D6011B
:1021C0009C93F60131966F01C6010396E2FE0BC0A7
:1021D00039E4D6013C933EE411963C93119736E4E2
:1021E00012963C9307C039E6F60130833EE6318310
:1021F00036E63283FC01322F40E2332319F041935B
:102200003150FBCFFC01E20FF11D10828EEF9FEFEA
:10221000A6C021E030E0911102C020E030E01616A7
:1022200017061CF4FB01319602C0E1E0F0E02E0F2E
:102230003F1FBB2021F0EB2DF0E0319602C0E0E023
:10224000F0E02E0F3F1FE12FF0E02E173F071CF4A8
:10225000121B212F01C020E08E2D887159F4F60148
:10226000822F30E2882319F031938150FBCFC20EC8
:10227000D11C20E0992329F0D6019C93F6013196D8
:102280006F0151110BC0F601822F90E3882319F0E2
:1022900091938150FBCFC20ED11C20E00F2D060F71
:1022A0009A81342F307144FF03C0913309F40150F7
:1022B000101624F4093018F008E001C001E0AB0169
:1022C00077FF02C040E050E0FB01E41BF50BA1E00A
:1022D000B0E0AC0FBD1FEA0FFB1F8EE2A82E4B0132
:1022E000801A91080B2D10E01195019511094F3FAF
:1022F000BFEF5B0721F4D601AC9211966D01641714
:1023000075072CF08416950614F4818101C080E3D2
:10231000415051093196D60111967D014017510760
:1023200024F0D6018C936701E2CF6417750739F466
:10233000963320F4953319F4311101C081E3F6018D
:102340008083F701822F90E2882319F091938150C6
:10235000FBCFF701E20FF11D108280E090E029969B
:10236000ECE00C945D13283008F027E03327DA0105
:10237000990F311D87FD916000966105710539F453
:1023800032602E5F3D9330E32A95E1F708959F3F39
:1023900030F080387105610509F03C5F3C5F3D938A
:1023A000913008F08068911DDF93CF931F930F93B6
:1023B000FF92EF92192F987F9695E92F9695969513
:1023C000E90FFF27E452FF4F99273327EE24FF241C
:1023D000A701E70105900894079428F4360FE71E3B
:1023E000F81E491F511D660F771F881F991F0694FD
:1023F000A1F70590079428F4E70EF81E491F561F11
:10240000C11D770F881F991F661F0694A1F70590BD
:10241000079428F4F80E491F561FC71FD11D880FB7
:10242000991F661F771F0694A1F70590079420F463
:10243000490F561FC71FD81F990F661F771F881F88
:102440000694A9F784911095177041F0D695C79519
:1024500057954795F794E7941A95C1F7E2E8F0E0AD
:1024600068941590159135916591959105907FE24D
:102470007395E118F10A430B560BC90BD009C0F74D
:10248000E10CF11E431F561FC91FD01D7EF470338F
:1024900011F48A95E6CFE894015030F0080F0AF461
:1024A0000027021708F4202F2395022F7A3328F0F3
:1024B00079E37D932A95E9F710C07D932A9589F6F3
:1024C000069497956795379517951794E118F10A33
:1024D000430B560BC90BD00998F023957E91739549
:1024E0007A3308F070E37C932013B8F77E91706123
:1024F0007D9330F0839571E37D9370E32A95E1F746
:102500001124EF90FF900F911F91CF91DF919927A8
:1025100087FD90950895FC01059061507040011071
:10252000D8F7809590958E0F9F1F0895FC016150FC
:10253000704001900110D8F7809590958E0F9F1FE5
:1025400008950F931F93CF93DF93FB01238121FD08
:1025500003C08FEF9FEF2CC022FF16C0468157812A
:10256000248135814217530744F4A081B1819D0134
:102570002F5F3F4F318320838C93268137812F5FDC
:102580003F4F3783268314C08B01EC01FB0100848D
:10259000F185E02D0995892BE1F6D80116968D91EC
:1025A0009C911797019617969C938E931697CE0140
:1025B000DF91CF911F910F910895FA01AA2728303A
:1025C00051F1203181F1E8946F936E7F6E5F7F4F00
:1025D0008F4F9F4FAF4FB1E03ED0B4E03CD0670F7C
:1025E000781F891F9A1FA11D680F791F8A1F911DCF
:1025F000A11D6A0F711D811D911DA11D20D009F41F
:1026000068943F912AE0269F11243019305D319360
:10261000DEF6CF010895462F4770405D4193B3E049
:102620000FD0C9F7F6CF462F4F70405D4A3318F0F0
:10263000495D31FD4052419302D0A9F7EACFB4E0A1
:10264000A6959795879577956795BA95C9F7009759
:102650006105710508959B01AC010A2E06945795FA
:10266000479537952795BA95C9F7620F731F841F51
:10267000951FA01D08952F923F924F925F926F92E7
:102680007F928F929F92AF92BF92CF92DF92EF9202
:10269000FF920F931F93CF93DF93CDB7DEB7CA1B83
:1026A000DB0B0FB6F894DEBF0FBECDBF09942A88AE
:1026B000398848885F846E847D848C849B84AA8456
:1026C000B984C884DF80EE80FD800C811B81AA81E3
:1026D000B981CE0FD11D0FB6F894DEBF0FBECDBFAE
:0826E000ED010895F894FFCF0D
:1026E800A69B443BA69B443B6F12033C6779726FE1
:1026F800416E676C6558203D202573206720202097
:1027080020006779726F416E676C6559203D2025FE
:062718007320670D0A00AA
:00000001FF
