S019000073656C6642616C616E636564526F626F742E7372656351
S11300000C94BE000C94DB000C94DB000C94DB001D
S11300100C94DB000C94DB000C94DB000C94DB00F0
S11300200C94DB000C9466060C94DB000C94DB004F
S11300300C94DB000C94DB000C94DB000C94DB00D0
S11300400C94DB000C94DB000C94DB000C94DB00C0
S11300500C94DB00084AD73B3BCE016E84BCBFFD49
S1130060C12F3D6C74319ABD56833DDA3D00C77F84
S113007011BED9E4BB4C3E916BAAAABE000000801D
S11300803F0000407A10F35A00A0724E1809001085
S1130090A5D4E80000E87648170000E40B540200F9
S11300A000CA9A3B000000E1F50500008096980024
S11300B0000040420F000000A0860100000010274D
S11300C000000000E80300000000640000000000DD
S11300D00A00000000000100000000002C76D8880F
S11300E0DC674F0823DFC1DFAE59E1B1B796E5E322
S11300F0E453C63AE651997696E8E6C28426EB893B
S11301008C9B62ED407C6FFCEFBC9C9F40F2BAA5D7
S11301106FA5F490055A2AF75C936B6CF9676DC16F
S11301201BFCE0E40D47FEF520E6B500D0ED902E73
S11301300300943577050080841E080000204E0AD1
S1130140000000C80C333333330F986E128311410F
S1130150EF8D2114893BE65516CFFEE6DB18D184DA
S11301604B381BF77C1D901DA4BBE4242032847201
S11301705E228100C9F124ECA1E53D2711241FBEB4
S1130180CFE5D8E0DEBFCDBF10E0A0E6B0E0EAE9FD
S1130190F7E202C005900D92A636B107D9F720E028
S11301A0A6E6B0E001C01D92A83EB207E1F70E94A6
S11301B005070C94CB130C94000011B880E280B9AD
S11301C0089594EA96BF06B607FEFDCF91B1987FD5
S11301D0903171F483B984E886BF06B607FEFDCF7B
S11301E081B1887F803431F0803231F083E008952A
S11301F080E0089581E0089582E0089584E986BF4F
S113020006B604FCFDCF08951F93CF93DF93182FF8
S1130210C4EAD4E8C6BF06B607FEFDCF81B1887F25
S11302208830C1F713B9D6BF06B607FEFDCF81B13A
S1130230887F883119F00E94FE00ECCFDF91CF91C6
S11302401F91089583B984E886BF06B607FEFDCFE3
S113025081B1887F883221F0803321F082E00895D3
S113026080E0089581E0089584EC86BF06B607FE19
S1130270FDCF83B1089584E886BF06B607FEFDCF9F
S113028083B108952FEF82E597E02150804090409C
S1130290E1F700C0000080ED0E94040189E10E94A2
S11302A0220187E00E9422010E94FE0080ED0E944C
S11302B004018BE60E94220181E00E9422010E9437
S11302C0FE0080ED0E9404018AE10E94220182E086
S11302D00E9422010E94FE0080ED0E9404018BE135
S11302E00E94220188E10E9422010E94FE0080ED0A
S11302F00E9404018CE10E94220180E00E942201FC
S11303000E94FE0080ED0E9404018FE10E94220100
S113031080E00E9422010E94FE0080ED0E94040100
S113032083E20E94220180E00E9422010E94FE00DA
S113033080ED0E9404018DE10E94220180E00E9470
S113034022010E94FE0080ED0E9404018EE10E94C1
S1130350220180E00E9422010E94FE0080ED0E94A2
S1130360040180E20E94220180E00E9422010E9496
S1130370FE0080ED0E94040182E20E94220180E0DE
S11303800E9422010E94FE0080ED0E94040181E28D
S11303900E94220180E00E9422010E94FE0080ED62
S11303A00E94040184E20E94220180E00E94220152
S11303B00E94FE0080ED0E94040186E20E94220158
S11303C080E00E9422010E94FE0080ED0E94040150
S11303D085E20E94220180E00E9422010E94FE0028
S11303E080ED0E94040187E20E94220180E00E94C5
S11303F022010E94FE0080ED0E94040189E20E9415
S1130400220180E00E9422010E94FE0080ED0E94F1
S1130410040188E20E94220180E00E9422010E94DD
S1130420FE0080ED0E9404018AE20E94220180E025
S11304300E9422010E94FE0080ED0E9404018CE2D1
S11304400E94220180E00E9422010E94FE0080EDB1
S11304500E9404018CE20E94220180E00E94220199
S11304600E94FE0080ED0E9404018DE20E942201A0
S113047080E00E9422010E94FE0080ED0E9404019F
S11304808FE20E94220180E00E9422010E94FE006D
S113049080ED0E9404018EE20E94220180E00E940D
S11304A022010E94FE0080ED0E94040180E30E946C
S11304B0220180E00E9422010E94FE0080ED0E9441
S11304C0040182E30E94220180E00E9422010E9432
S11304D0FE0080ED0E94040181E30E94220180E07D
S11304E00E9422010E94FE0080ED0E94040184E328
S11304F00E94220180E00E9422010E94FE0080ED01
S11305000E94040183E30E94220180E00E942201F0
S11305100E94FE0080ED0E94040185E30E942201F6
S113052080E00E9422010E94FE0080ED0E940401EE
S113053087E30E94220180E00E9422010E94FE00C3
S113054080ED0E94040188E30E94220181E00E9460
S113055022010E94FE0080ED0E94040183E60E94B5
S1130560220180E00E9422010E94FE0080ED0E9490
S1130570040184E60E94220180E00E9422010E947C
S1130580FE0080ED0E94040185E60E94220180E0C5
S11305900E9422010E94FE0080ED0E94040186E672
S11305A00E94220180E00E9422010E94FE0080ED50
S11305B00E94040187E60E94220180E00E94220139
S11305C00E94FE0080ED0E94040188E60E94220140
S11305D080E00E9422010E94FE0080ED0E9404013E
S11305E089E60E94220180E00E9422010E94FE000E
S11305F080ED0E9404018AE60E94220180E00E94AC
S113060022010E94FE0080ED0E9404018CE60E94FB
S1130610220180E00E9422010E94FE0080ED0E94DF
S1130620040184E70E94220180E00E9422010E94CA
S1130630FE00089580ED0E9404018BE30E942201D4
S113064081ED0E94E1000895CF930E941A030E9455
S11306503401C82F0E9434016C2F70E0762F662776
S1130660682B072E000C880B990B0E94BD0C60931D
S1130670A3007093A4008093A5009093A6000E9409
S11306803401C82F0E9434016C2F70E0762F662746
S1130690682B072E000C880B990B0E94BD0C6093ED
S11306A07E0070937F0080938000909381000E946D
S11306B03401C82F0E9434016C2F70E0762F662716
S11306C0682B072E000C880B990B0E94BD0C6093BD
S11306D06A0070936B0080936C0090936D000E948D
S11306E03401C82F0E9434016C2F70E0762F6627E6
S11306F0682B072E000C880B990B0E94BD0C60938D
S113070076007093770080937800909379000E942C
S11307103401C82F0E9434016C2F70E0762F6627B5
S1130720682B072E000C880B990B0E94BD0C60935C
S113073072007093730080937400909375000E940C
S11307403401C82F0E9434016C2F70E0762F662785
S1130750682B072E000C880B990B0E94BD0C60932C
S1130760CC007093CD008093CE009093CF000E9474
S11307703401C82F0E943B016C2F70E0762F66274E
S1130780682B072E000C880B990B0E94BD0C6093FC
S11307909A0070939B0080939C0090939D000E940C
S11307A0FE0020E030E040E858E36091A30070913F
S11307B0A4008091A5009091A6000E94A10D6093D1
S11307C0A3007093A4008093A5009093A60020E05A
S11307D030E040E858E360917E0070917F008091A2
S11307E08000909181000E94A10D60937E0070931F
S11307F07F00809380009093810020E030E040E807
S113080058E360916A0070916B0080916C00909144
S11308106D000E94A10D60936A0070936B00809339
S11308206C0090936D0023E333E343E851E460915B
S113083072007091730080917400909175000E9411
S11308401A0C6093720070937300809374009093F9
S1130850750023E333E343E851E46091CC007091E5
S1130860CD008091CE009091CF000E941A0C60932D
S1130870CC007093CD008093CE009093CF0023E3FF
S113088033E343E851E460919A0070919B008091B6
S11308909C0090919D000E941A0C60939A007093A2
S11308A09B0080939C0090939D00CF9108951FBC62
S11308B089B7846089BF8EB582608EBD8EB58A7F0C
S11308C08EBD0895CF92DF92EF92FF92CF93DF9384
S11308D0CCB5DDB52DEB37E346E05DE36091BB00BD
S11308E07091BC008091BD009091BE000E94A10D4A
S11308F06B017C01BE0180E090E00E94BB0C2DEBFB
S113090037E346E055E30E94A10D9B01AC01C7010A
S1130910B6010E947A0B6093D8007093D90080933B
S1130920DA009093DB001DBC1CBC1092BB0010923B
S1130930BC001092BD001092BE00DF91CF91FF90D9
S1130940EF90DF90CF9008954F925F926F927F92D5
S11309508F929F92AF92BF92CF92DF92EF92FF92CB
S1130960CF93DF93CDB7DEB72E970FB6F894DEBFE3
S11309700FBECDBF88EC90E09E878D870E94240334
S11309800E946204C0907E00D0907F00E0908000BE
S1130990F09081004090A3005090A4006090A500C6
S11309A07090A60080906A0090906B00A0906C00FC
S11309B0B0906D00A5019401C501B4010E94A10D80
S11309C06D837E838F839887A3019201C301B20153
S11309D00E94A10D69837A838B839C832D813E8140
S11309E04F81588569817A818B819C810E947A0B21
S11309F00E94140E69837A838B839C839B01AC01D0
S1130A00C701B6010E941A0C0E94E60B21EE3EE2D9
S1130A1045E652E40E94A10D2091B7003091B80040
S1130A204091B9005091BA000E947A0B69877A8785
S1130A308B879C876093B7007093B8008093B9004C
S1130A409093BA00A7019601C701B6010E94A10DB7
S1130A502D813E814F8158850E947A0B0E94140E8D
S1130A609B01AC01C301B20190580E941A0C0E9470
S1130A70E60B21EE3EE245E652E40E94A10D2091F0
S1130A80AF003091B0004091B1005091B2000E948B
S1130A907A0B6B017C016093AF007093B00080937C
S1130AA0B1009093B20029813A814B815C81C501E8
S1130AB0B4010E941A0C0E94E60B21EE3EE245E6C8
S1130AC052E40E94A10D2091920030919300409134
S1130AD09400509195000E947A0B2B013C01609385
S1130AE0920070939300809394009093950080906B
S1130AF0D8009090D900A090DA00B090DB0020914B
S1130B007200309173004091740050917500C501DA
S1130B10B4010E94A10D2091DC003091DD004091D0
S1130B20DE005091DF000E947A0B6D837E838F83F9
S1130B3098876093DC007093DD008093DE009093CF
S1130B40DF002091CC003091CD004091CE00509137
S1130B50CF00C501B4010E94A10D2091C4003091C1
S1130B60C5004091C6005091C7000E947A0B69836A
S1130B707A838B839C836093C4007093C5008093B5
S1130B80C6009093C70020919A0030919B00409139
S1130B909C0050919D00C501B4010E94A10D2091BB
S1130BA08E0030918F0040919000509191000E94EE
S1130BB07A0B4B015C0160938E0070938F008093DD
S1130BC0900090939100AD85BE851197BE87AD8747
S1130BD0AB2B09F0D3CE20E030E048E453E4698540
S1130BE07A858B859C850E941A0C6093B70070935C
S1130BF0B8008093B9009093BA0020E030E048E454
S1130C0053E4C701B6010E941A0C6093AF007093BD
S1130C10B0008093B1009093B20020E030E048E44B
S1130C2053E4C301B2010E941A0C609392007093C2
S1130C309300809394009093950020E030E048E482
S1130C4053E46D817E818F8198850E941A0C609394
S1130C50DC007093DD008093DE009093DF0020E0E1
S1130C6030E048E453E469817A818B819C810E945D
S1130C701A0C6093C4007093C5008093C6009093CF
S1130C80C70020E030E048E453E4C501B4010E9409
S1130C901A0C60938E0070938F0080939000909351
S1130CA091002E960FB6F894DEBF0FBECDBFDF9134
S1130CB0CF91FF90EF90DF90CF90BF90AF909F9037
S1130CC08F907F906F905F904F9008951F920F9236
S1130CD00FB60F9211242F933F934F935F936F930B
S1130CE07F938F939F93AF93BF93EF93FF9320E0F2
S1130CF030E040E85FE36091BB007091BC008091FC
S1130D00BD009091BE000E947A0B6093BB0070936B
S1130D10BC008093BD009093BE00FF91EF91BF9102
S1130D20AF919F918F917F916F915F914F913F917F
S1130D302F910F900FBE0F901F90189512BE14BCE8
S1130D40BB9A8F9A089589E683BF85BD08958F92D3
S1130D509F92AF92BF92CF92DF92EF92FF9223E3E2
S1130D6033E343E250E40E94A10D6B017C0121E7CF
S1130D703DE34AE85FE30E94A10D4B015C0120E0E2
S1130D8030E04FE753E40E94940D181644F40F2EFC
S1130D90812C912CFFE7AF2EF3E4BF2EF02D20E041
S1130DA030E04FE753E4C701B6010E94940D1816D2
S1130DB044F40F2EC12CD12CFFE7EF2EF3E4FF2EC9
S1130DC0F02DC501B4010E948C0C6CBFC701B601A3
S1130DD00E948C0C63BDFF90EF90DF90CF90BF908A
S1130DE0AF909F908F90089580E487B986E886B984
S1130DF00895806487B985E38A95F1F70000369AEF
S1130E00349BFECF84B195B10895CF93DF93CDB7D2
S1130E10DEB7C255D1090FB6F894DEBF0FBECDBF01
S1130E2087B3836087BB81B3806681BB0E94DD008A
S1130E3060E071EE80E090E00E94380B0E9457045D
S1130E4078940E9442010E94A4040E94F4060E9425
S1130E509E0660E070E0CB010E94A7060E94A306F4
S1130E60CE01CF962C013E0195E1690E711CDE0185
S1130E7011961D0160966FAE609761967FAE619783
S1130E806296AFAF629763963FAE63970E94240366
S1130E900E946204C0907E00D0907F00E0908000A9
S1130EA0F09081008090A3009090A400A090A500F1
S1130EB0B090A60060916A0070916B0080916C0004
S1130EC090916D009B01AC010E94A10D2B966CAF1B
S1130ED07DAF8EAF9FAF2B97A5019401C501B401DF
S1130EE00E94A10D2F966CAF7DAF8EAF9FAF2F9751
S1130EF02B962CAD3DAD4EAD5FAD2B972F966CADC3
S1130F007DAD8EAD9FAD2F970E947A0B0E94140E7B
S1130F109B01AC01C701B6010E941A0C0E94E60BAA
S1130F2021EE3EE245E652E40E94A10D2091B70075
S1130F303091B8004091B9005091BA000E94790BE9
S1130F402F966CAF7DAF8EAF9FAF2F9760938200CB
S1130F50709383008093840090938500A701960189
S1130F60C701B6010E94A10D2B962CAD3DAD4EAD2F
S1130F705FAD2B970E947A0B0E94140E9B01AC016B
S1130F80C501B40190580E941A0C0E94E60B21EE90
S1130F903EE245E652E40E94A10D2091AF0030915B
S1130FA0B0004091B1005091B2000E94790B6B01E6
S1130FB07C0160939F007093A0008093A1009093A4
S1130FC0A2008091D8009091D900A091DA00B0914C
S1130FD0DB002B968CAF9DAFAEAFBFAF2B972091AC
S1130FE07200309173004091740050917500BC01FF
S1130FF0CD010E94A10D2091DC003091DD004091D3
S1131000DE005091DF000E94790B4B015C0160937C
S11310107200709373008093740090937500209114
S1131020CC003091CD004091CE005091CF002B9652
S11310306CAD7DAD8EAD9FAD2B970E94A10D20911F
S1131040C4003091C5004091C6005091C7000E9471
S1131050790B6093CC007093CD008093CE00909375
S1131060CF002091E4003091E5004091E6005091DA
S1131070E7000E947A0B2B966CAF7DAF8EAF9FAFCB
S11310802B972091860030918700409188005091E1
S11310908900C501B4010E947A0B2FE832EC45E7C0
S11310A05FE30E94A10D4B015C012AE037ED43E2AE
S11310B05DE32F966CAD7DAD8EAD9FAD2F970E94F5
S11310C0A10D9B01AC01C501B4010E947A0B4B0137
S11310D05C016093860070938700809388009093EE
S11310E089002FE832EC45E75FE32B966CAD7DADCC
S11310F08EAD9FAD2B970E94A10D2B966CAF7DAF4B
S11311008EAF9FAF2B972AE037ED43E25DE3C70133
S1131110B6010E94A10D9B01AC012B966CAD7DAD77
S11311208EAD9FAD2B970E947A0B6093E400709371
S1131130E5008093E6009093E7008092D4009092BB
S1131140D500A092D600B092D7006093D0007093DF
S1131150D1008093D2009093D3007E019FE3E90EE7
S1131160F11C10E0812F0E94F906D7018D939D9305
S11311707D011F5F1430B1F723966EAD7FAD2397C9
S113118080E090E00E94BB0C20E030E040E25CE3B1
S11311900E94A10D6093C8007093C9008093CA0097
S11311A09093CB0025966EAD7FAD259780E090E0BF
S11311B00E94BB0C20E030E040E85BE30E94A10DFC
S11311C060937A0070937B0080937C0090937D0001
S11311D027966EAD7FAD279780E090E00E94BB0C10
S11311E02AE939E949E959E30E94A10D6093B30062
S11311F07093B4008093B5009093B600F2016081BF
S1131200718180E090E00E94BB0C20E030E040E778
S11312105CE30E94A10D20E030E042E852E40E9429
S11312207A0B2091D0003091D1004091D20050919E
S1131230D3000E947A0B6B017C016093D000709301
S1131240D1008093D2009093D30020916600309116
S1131250670040916800509169000E94790B4B012E
S11312605C016093BF007093C0008093C1009093B1
S1131270C20020E030E040E251EC0E94940D1816C8
S113128074F411E020E030E040E251E4C501B4011F
S11312900E94150C88230CF010E0812F01C080E01F
S11312A090919E00892B80939E00882381F120E0F9
S11312B030E048E452E4C701B6010E94940D1816C8
S11312C034F120E030E048E452ECC701B6010E945A
S11312D0150C8823E4F0C090D400D090D500E090A1
S11312E0D600F090D70020E030E048E452E4C70193
S11312F0B6010E94940D181654F020E030E048E442
S113130052ECC701B6010E94150C882344F460E036
S113131070E0CB010E94A706C19AC098F6C0C09A9B
S1131320C1988090BF009090C000A090C100B09080
S1131330C2008091D8009091D900A091DA00B091B8
S1131340DB002B968CAF9DAFAEAFBFAF2B979C014C
S1131350AD01C501B4010E94A10D20919600309108
S1131360970040919800509199000E947A0B6B016C
S11313707C016093960070939700809398009093FB
S1131380990020E030E048E452E40E94940D1816DD
S11313906CF480E090E0A8E4B2E48093960090932B
S11313A09700A0939800B093990016C020E030E015
S11313B048E452ECC701B6010E94150C882364F47A
S11313C080E090E0A8E4B2EC8093960090939700BC
S11313D0A0939800B09399002091960030919700C3
S11313E0409198005091990060917A0070917B002F
S11313F080917C0090917D000E94A10D6B017C0185
S11314002091C8003091C9004091CA005091CB008E
S1131410C501B4010E94A10D9B01AC01C701B60135
S11314200E947A0B6B017C012091A7003091A800E7
S11314304091A9005091AA00C501B4010E94790B02
S11314402091B3003091B4004091B5005091B600A2
S11314500E94A10D2B962CAD3DAD4EAD5FAD2B97EB
S11314600E941A0C9B01AC01C701B6010E947A0BC1
S113147060936E0070936F0080937000909371007E
S11314808092A7009092A800A092A900B092AA000E
S113149020E030E0A9010E94940D18169CF4959A5E
S11314A0969880916E0090916F00A0917000B09119
S11314B071008093E0009093E100A093E200B09368
S11314C0E30013C09598969A80916E0090916F00F6
S11314D0A0917000B0917100B0588093E000909397
S11314E0E100A093E200B093E30020E030E040E2AA
S11314F051E46091E0007091E1008091E2009091EC
S1131500E3000E947A0B0E94A7069091C3009F5F9C
S11315108DEC989F812D112482958F70880F880FF0
S1131520282F220F220F820F981B9093C300911132
S113153098C08091D0009091D100A091D200B09138
S1131540D3008F8F98A3A9A3BAA38091C8009091C8
S1131550C900A091CA00B091CB008BA39CA3ADA3FA
S1131560BEA380917A0090917B00A0917C00B09101
S11315707D008FA398A7A9A7BAA78091B3009091E3
S1131580B400A091B500B091B6008BA79CA7ADA7FD
S1131590BEA78091960090919700A0919800B09179
S11315A099008FA798ABA9ABBAAB80916E009091CC
S11315B06F00A0917000B09171008BAB9CABADAB90
S11315C0BEAB8091E0009091E100A091E200B09167
S11315D0E3008FAB98AFA9AFBAAF8091D8009091D8
S11315E0D900A091DA00B091DB008BAF9CAFADAF16
S11315F0BEAF7E019FE1E90EF11C6096DFAC6097FF
S11316006196CFAC61976296BFAC62976396AFACBC
S11316106397D7016D917D918D919D917D010D2DE4
S11316201C2D23E043E00E948F0E7F926F92E0E630
S1131630F0E0FF93EF933F922F920E94AF0E8B2D19
S11316409A2D0E946A0B0F900F900F900F900F909D
S11316500F90E414F504E9F684E690E00E946A0B26
S113166015CC8FED9EE20197F1F700C000000ECC7F
S11316702AB128612AB920B5266820BDDC01CB0136
S1131680880F991FAA1FBB1F880F991FAA1FBB1F72
S11316909C01AD01220F331F441F551F220F331F1E
S11316A0441F551F60E074E284EF90E00E946D0EC9
S11316B08FEF820F89B9DA01C9010197A109B10934
S11316C0892F9A2FAB2FBB2780BD08958CB95D9BC2
S11316D0FECF0895CF93DF93EC018881882331F006
S11316E021960E94660B89918111FBCFDF91CF91E6
S11316F008955058BB27AA270E94910B0C945A0DA9
S11317000E944C0D38F00E94530D20F039F49F3F95
S113171019F426F40C94220D0EF4E095E7FB0C94D6
S11317201C0DE92F0E946B0D58F3BA17620773075B
S11317308407950720F079F4A6F50C948D0D0EF42A
S1131740E0950B2EBA2FA02D0B01B90190010C01CD
S1131750CA01A0011124FF27591B99F0593F50F4E5
S1131760503E68F11A16F040A22F232F342F44273D
S1131770585FF3CF469537952795A795F040539535
S1131780C9F77EF41F16BA0B620B730B840BBAF005
S11317909150A1F0FF0FBB1F661F771F881FC2F770
S11317A00EC0BA0F621F731F841F48F48795779584
S11317B06795B795F7959E3F08F0B0CF9395880F3E
S11317C008F09927EE0F979587950895DF93DD2705
S11317D0B92FBF7740E85FE31616170648075B0783
S11317E018F4D92F0E94990D9F938F937F936F9331
S11317F00E94540EE4E5F0E00E94250D0E945A0D6B
S11318002F913F914F915F910E94B40DDD2351F0D0
S11318109058A2EA2AED3FE049EC5FE3D0785D27D7
S11318200E94910BDF910C945A0D0E94F80C08F45D
S113183081E008950E942E0C0C945A0D0E94530DC1
S113184058F00E944C0D40F029F45F3F29F00C94AD
S11318501C0D51110C948E0D0C94220D0E946B0DD5
S113186068F39923B1F3552391F3951B550BBB27CB
S1131870AA2762177307840738F09F5F5F4F220F10
S1131880331F441FAA1FA9F335D00E2E3AF0E0E807
S113189032D091505040E695001CCAF72BD0FE2F51
S11318A029D0660F771F881FBB1F261737074807E5
S11318B0AB07B0E809F0BB0B802DBF01FF2793589D
S11318C05F4F3AF09E3F510578F00C941C0D0C9438
S11318D08E0D5F3FE4F3983ED4F386957795679534
S11318E0B795F7959F5FC9F7880F911D96958795D2
S11318F097F90895E1E0660F771F881FBB1F6217F1
S113190073078407BA0720F0621B730B840BBA0BAE
S1131910EE1F88F7E09508950E94730D88F09F5795
S113192098F0B92F9927B751B0F0E1F0660F771FFF
S1131930881F991F1AF0BA95C9F714C0B13091F0F5
S11319400E948D0DB1E008950C948D0D672F782FB2
S11319508827B85F39F0B93FCCF3869577956795BA
S1131960B395D9F73EF490958095709561957F4F26
S11319708F4F9F4F0895E89409C097FB3EF49095CC
S11319808095709561957F4F8F4F9F4F9923A9F054
S1131990F92F96E9BB279395F695879577956795E3
S11319A0B795F111F8CFFAF4BB0F11F460FF1BC027
S11319B06F5F7F4F8F4F9F4F16C0882311F096E9BA
S11319C011C0772321F09EE8872F762F05C0662368
S11319D071F096E8862F70E060E02AF09A95660F21
S11319E0771F881FDAF7880F9695879597F90895DA
S11319F0990F0008550FAA0BE0E8FEEF161617061C
S1131A00E807F907C0F012161306E407F50798F083
S1131A10621B730B840B950B39F40A2661F0232B9C
S1131A20242B252B21F408950A2609F4A140A69518
S1131A308FEF811D811D089597F99F6780E870E0FD
S1131A4060E008959FEF80EC0895DF93CF931F9398
S1131A500F93FF92EF92DF927B018C01689406C092
S1131A60DA2EEF010E94B40DFE01E894A5912591B0
S1131A70359145915591A6F3EF010E94910BFE011A
S1131A809701A801DA9469F7DF90EF90FF900F9126
S1131A901F91CF91DF91089500240A94161617061A
S1131AA018060906089500240A941216130614064B
S1131AB005060895092E0394000C11F4882352F0AE
S1131AC0BB0F40F4BF2B11F460FF04C06F5F7F4F66
S1131AD08F4F9F4F089557FD9058440F551F59F04D
S1131AE05F3F71F04795880F97FB991F61F09F3F07
S1131AF079F087950895121613061406551FF2CF30
S1131B004695F1DF08C0161617061806991FF1CF7F
S1131B1086957105610508940895E894BB276627A6
S1131B207727CB0197F908950E94F80C08F48FEFFA
S1131B3008959B01AC0160E070E080E89FE30C94A1
S1131B401A0C0E94B40D0C945A0D0E944C0D38F0DE
S1131B500E94530D20F0952311F00C941C0D0C944D
S1131B60220D11240C948E0D0E946B0D70F3959F21
S1131B70C1F3950F50E0551F629FF001729FBB2780
S1131B80F00DB11D639FAA27F00DB11DAA1F649F1C
S1131B906627B00DA11D661F829F2227B00DA11DCF
S1131BA0621F739FB00DA11D621F839FA00D611D55
S1131BB0221F749F3327A00D611D231F849F600D76
S1131BC0211D822F762F6A2F11249F5750409AF09F
S1131BD0F1F088234AF0EE0FFF1FBB1F661F771F2B
S1131BE0881F91505040A9F79E3F510580F00C94F6
S1131BF01C0D0C948E0D5F3FE4F3983ED4F3869550
S1131C0077956795B795F795E7959F5FC1F7FE2B95
S1131C10880F911D9695879597F9089519F416F4F0
S1131C200C94220D0C94580E0E94730DB8F3992352
S1131C30C9F3B6F39F57550B87FF0E94660E002425
S1131C40A0E640EA900180585695979528F4805C68
S1131C50660F771F881F20F026173707480730F4D0
S1131C60621B730B840B202931294A2BA6951794E8
S1131C700794202531254A2758F7660F771F881FB8
S1131C8020F026173707480730F4620B730B840BD8
S1131C90200D311D411DA09581F7B901842F915864
S1131CA0880F9695879508959B01AC010C94A10D1E
S1131CB09F3F31F0915020F4879577956795B795BC
S1131CC0880F911D9695879597F9089591505040E6
S1131CD0660F771F881FD2F70895A1E21A2EAA1B58
S1131CE0BB1BFD010DC0AA1FBB1FEE1FFF1FA217C8
S1131CF0B307E407F50720F0A21BB30BE40BF50BC5
S1131D00661F771F881F991F1A9469F7609570954D
S1131D10809590959B01AC01BD01CF010895EF9290
S1131D200F931F93CF93DF93E80147FD02C034E084
S1131D3001C034E1042E000C550B57FF03C051952C
S1131D4041955109E32E022F242FAE010E94B210B7
S1131D50CE01DF91CF911F910F91EF900895AEE0E6
S1131D60B0E0E5EBFEE00C94A2130D891E8986E039
S1131D708C831A8309838FEF9FE79E838D83AE0143
S1131D80475E5F4F6F89788DCE0101960E94D10E18
S1131D90EF81F885E00FF11F10822E96E4E00C9499
S1131DA0BE13ABE0B0E0E7EDFEE00C9494136C01DD
S1131DB07B018A01FC0117821682838181FFCCC1D9
S1131DC0CE0101963C01F6019381F70193FD8591C3
S1131DD093FF81917F01882309F4BAC1853239F4D4
S1131DE093FD859193FF81917F01853229F4B6019A
S1131DF090E00E94FA12E7CF912C212C312CFFE1C4
S1131E00F315D8F08B3279F038F4803279F08332DC
S1131E10A1F4232D20611DC08D3261F0803369F45B
S1131E20232D216016C0832D8260382EE32DE460BB
S1131E303E2E2AC0F32DF8601DC037FC2DC020EDC6
S1131E40280F2A3040F08E32B9F436FC81C1232D9C
S1131E502064322E19C036FE06C08AE0989E200DFA
S1131E601124922E11C0EAE02E9E200D1124222E60
S1131E70F32DF0623F2E08C08C3621F4832D806848
S1131E80382E02C0883641F4F70193FD859193FF03
S1131E9081917F018111B3CF982F9F7D9554933009
S1131EA028F40C5F1F4F9FE399830DC0833631F0F4
S1131EB0833771F0833509F059C021C0F80180815E
S1131EC089830E5F1F4F88248394912C530113C080
S1131ED02801F2E04F0E511CF801A080B18036FEBB
S1131EE003C0692D70E002C06FEF7FEFC5010E944F
S1131EF0EF124C018201F32DFF773F2E16C028010B
S1131F0022E0420E511CF801A080B18036FE03C0CD
S1131F10692D70E002C06FEF7FEFC5010E94E412EB
S1131F204C01F32DF0683F2E820133FC1BC0822D3F
S1131F3090E088169906B0F4B60180E290E00E9421
S1131F40FA122A94F4CFF50137FC859137FE81917A
S1131F505F01B60190E00E94FA1221102A9421E058
S1131F60821A91088114910471F7E8C0843611F043
S1131F70893641F5F80137FE07C06081718182819D
S1131F8093810C5F1F4F08C060817181072E000C84
S1131F90880B990B0E5F1F4FF32DFF763F2E97FF93
S1131FA009C090958095709561957F4F8F4F9F4F95
S1131FB0F0683F2E2AE030E0A3010E943613882EF9
S1131FC0861845C0853731F4232D2F7EB22E2AE0A2
S1131FD030E025C0932D997FB92E8F36C1F018F4C7
S1131FE0883579F0B5C0803719F0883721F0B0C052
S1131FF0E92FE061BE2EB4FE0DC0FB2DF460BF2EB0
S113200009C034FE0AC0292F2660B22E06C028E07B
S113201030E005C020E130E002C020E132E0F80108
S1132020B7FE07C060817181828193810C5F1F4F6D
S113203006C06081718180E090E00E5F1F4FA301B4
S11320400E943613882E8618FB2DFF773F2E36FE0E
S11320500DC0232D2E7FA22E891458F434FE0BC0FC
S113206032FC09C0832D8E7EA82E05C0B82CA32C6B
S113207003C0B82C01C0B92CA4FE0FC0FE01E80DAA
S1132080F11D8081803321F49A2D997EA92E09C0F7
S1132090A2FE06C0B394B39404C08A2D867809F0D6
S11320A0B394A3FC11C0A0FE06C0B21488F4280C9B
S11320B0922C9B180EC0B21460F4B60180E290E03A
S11320C00E94FA12B394F7CFB21418F42B1802C07A
S11320D0982C212CA4FE10C0B60180E390E00E944D
S11320E0FA12A2FE17C0A1FC03C088E790E002C068
S11320F088E590E0B6010CC08A2D867859F0A1FEDF
S113210002C08BE201C080E2A7FC8DE2B60190E040
S11321100E94FA12891438F4B60180E390E00E9418
S1132120FA129A94F7CF8A94F301E80DF11D808195
S1132130B60190E00E94FA128110F5CF222009F432
S113214042CEB60180E290E00E94FA122A94F6CFC1
S1132150F6018681978102C08FEF9FEF2B96E2E113
S11321600C94B013A9E0B0E0E8EBF0E10C949A13FE
S11321706A01122FB02E2BE3201720F0FF24F394D2
S1132180F00E02C02CE3F22E0F2D27E0AE014F5FBC
S11321905F4F0E940C12BC014981842F89708130E9
S11321A031F0E1FC06C0E0FE06C090E205C09DE20D
S11321B003C09BE201C090E05E2D507143FF3CC020
S11321C0911102C083E001C084E0811718F4212F2B
S11321D0281B01C020E051110BC0F601822F30E210
S11321E0882319F031938150FBCFC20ED11C20E01B
S11321F0992329F0D6019C93F60131966F01C6010B
S11322000396E2FE0AC03EE4D6013C9341E41196F3
S11322104C93119712963C9306C03EE6F601308328
S113222041E641833283FC01322F40E2332309F437
S113223042C041933150FACF42FF44C0911102C0D1
S113224083E001C084E0811718F4212F281B01C00A
S113225020E051110BC0F601822F30E2882319F0DF
S113226031938150FBCFC20ED11C20E0992329F079
S1132270D6019C93F60131966F01C6010396E2FEE6
S11322800BC039E4D6013C933EE411963C9311977C
S113229036E412963C9307C039E6F60130833EE6F5
S11322A0318336E63283FC01322F40E2332319F0C6
S11322B041933150FBCFFC01E20FF11D10828EEFF0
S11322C09FEFA6C021E030E0911102C020E030E091
S11322D0161617061CF4FB01319602C0E1E0F0E08B
S11322E02E0F3F1FBB2021F0EB2DF0E0319602C0F2
S11322F0E0E0F0E02E0F3F1FE12FF0E02E173F0744
S11323001CF4121B212F01C020E08E2D887159F47A
S1132310F601822F30E2882319F031938150FBCFEC
S1132320C20ED11C20E0992329F0D6019C93F6011A
S113233031966F0151110BC0F601822F90E388236F
S113234019F091938150FBCFC20ED11C20E00F2DC8
S1132350060F9A81342F307144FF03C0913309F47E
S11323600150101624F4093018F008E001C001E00F
S1132370AB0177FF02C040E050E0FB01E41BF50B2A
S1132380A1E0B0E0AC0FBD1FEA0FFB1F8EE2A82E48
S11323904B01801A91080B2D10E01195019511093C
S11323A04F3FBFEF5B0721F4D601AC9211966D014C
S11323B0641775072CF08416950614F4818101C006
S11323C080E3415051093196D60111967D014017A1
S11323D0510724F0D6018C936701E2CF6417750787
S11323E039F4963320F4953319F4311101C081E3A3
S11323F0F6018083F701822F90E2882319F09193EC
S11324008150FBCFF701E20FF11D108280E090E0D4
S11324102996ECE00C94B613283008F027E0332713
S1132420DA01990F311D87FD9160009661057105F0
S113243039F432602E5F3D9330E32A95E1F7089535
S11324409F3F30F080387105610509F03C5F3C5FC7
S11324503D93913008F08068911DDF93CF931F93D3
S11324600F93FF92EF92192F987F9695E92F9695E7
S11324709695E90FFF27E452FF4F99273327EE245F
S1132480FF24A701E70105900894079428F4360F68
S1132490E71EF81E491F511D660F771F881F991FDD
S11324A00694A1F70590079428F4E70EF81E491F37
S11324B0561FC11D770F881F991F661F0694A1F729
S11324C00590079428F4F80E491F561FC71FD11D05
S11324D0880F991F661F771F0694A1F7059007942C
S11324E020F4490F561FC71FD81F990F661F771F67
S11324F0881F0694A9F784911095177041F0D6951A
S1132500C79557954795F794E7941A95C1F7E2E86C
S1132510F0E0689415901591359165919591059029
S11325207FE27395E118F10A430B560BC90BD009EE
S1132530C0F7E10CF11E431F561FC91FD01D7EF4C6
S1132540703311F48A95E6CFE894015030F0080F07
S11325500AF40027021708F4202F2395022F7A3358
S113256028F079E37D932A95E9F710C07D932A95A5
S113257089F6069497956795379517951794E118FA
S1132580F10A430B560BC90BD00998F023957E91A1
S113259073957A3308F070E37C932013B8F77E9137
S11325A070617D9330F0839571E37D9370E32A9598
S11325B0E1F71124EF90FF900F911F91CF91DF91DC
S11325C0992787FD90950895FC010590615070400E
S11325D00110D8F7809590958E0F9F1F0895FC01E8
S11325E06150704001900110D8F7809590958E0F3E
S11325F09F1F08950F931F93CF93DF93FB012381B4
S113260021FD03C08FEF9FEF2CC022FF16C046812F
S11326105781248135814217530744F4A081B18145
S11326209D012F5F3F4F318320838C932681378117
S11326302F5F3F4F3783268314C08B01EC01FB01CE
S11326400084F185E02D0995892BE1F6D8011696D1
S11326508D919C911797019617969C938E9316973C
S1132660CE01DF91CF911F910F910895FA01AA270E
S1132670283051F1203181F1E8946F936E7F6E5FC1
S11326807F4F8F4F9F4FAF4FB1E03ED0B4E03CD06F
S1132690670F781F891F9A1FA11D680F791F8A1F52
S11326A0911DA11D6A0F711D811D911DA11D20D0B9
S11326B009F468943F912AE0269F11243019305D73
S11326C03193DEF6CF010895462F4770405D419364
S11326D0B3E00FD0C9F7F6CF462F4F70405D4A33B1
S11326E018F0495D31FD4052419302D0A9F7EACF79
S11326F0B4E0A6959795879577956795BA95C9F7A8
S113270000976105710508959B01AC010A2E06949A
S11327105795479537952795BA95C9F7620F731F53
S1132720841F951FA01D08952F923F924F925F9290
S11327306F927F928F929F92AF92BF92CF92DF92CD
S1132740EF92FF920F931F93CF93DF93CDB7DEB732
S1132750CA1BDB0B0FB6F894DEBF0FBECDBF0994C6
S11327602A88398848885F846E847D848C849B841D
S1132770AA84B984C884DF80EE80FD800C811B812B
S1132780AA81B981CE0FD11D0FB6F894DEBF0FBE5A
S10D2790CDBFED010895F894FFCFCA
S109279A25732F000A0064
S9030000FC
